{
  "contractName": "PoolRegistry",
  "abi": [
    {
      "anonymous": false,
      "inputs": [
        {
          "indexed": false,
          "internalType": "address",
          "name": "pool",
          "type": "address"
        },
        {
          "indexed": false,
          "internalType": "address",
          "name": "token",
          "type": "address"
        },
        {
          "indexed": false,
          "internalType": "uint256",
          "name": "lock",
          "type": "uint256"
        },
        {
          "indexed": false,
          "internalType": "uint256",
          "name": "rate",
          "type": "uint256"
        },
        {
          "indexed": false,
          "internalType": "uint256",
          "name": "interestFee",
          "type": "uint256"
        },
        {
          "indexed": false,
          "internalType": "uint256",
          "name": "anualPrecent",
          "type": "uint256"
        }
      ],
      "name": "AddPool",
      "type": "event"
    },
    {
      "anonymous": false,
      "inputs": [
        {
          "indexed": false,
          "internalType": "address",
          "name": "pool",
          "type": "address"
        },
        {
          "indexed": false,
          "internalType": "address",
          "name": "token",
          "type": "address"
        },
        {
          "indexed": false,
          "internalType": "uint256",
          "name": "lock",
          "type": "uint256"
        },
        {
          "indexed": false,
          "internalType": "uint256",
          "name": "rate",
          "type": "uint256"
        },
        {
          "indexed": false,
          "internalType": "uint256",
          "name": "interestFee",
          "type": "uint256"
        },
        {
          "indexed": false,
          "internalType": "uint256",
          "name": "anualPrecent",
          "type": "uint256"
        }
      ],
      "name": "CreatePool",
      "type": "event"
    },
    {
      "anonymous": false,
      "inputs": [],
      "name": "Finalized",
      "type": "event"
    },
    {
      "anonymous": false,
      "inputs": [
        {
          "indexed": true,
          "internalType": "address",
          "name": "previousOwner",
          "type": "address"
        },
        {
          "indexed": true,
          "internalType": "address",
          "name": "newOwner",
          "type": "address"
        }
      ],
      "name": "OwnershipTransferred",
      "type": "event"
    },
    {
      "anonymous": false,
      "inputs": [
        {
          "indexed": true,
          "internalType": "bytes32",
          "name": "role",
          "type": "bytes32"
        },
        {
          "indexed": true,
          "internalType": "address",
          "name": "account",
          "type": "address"
        },
        {
          "indexed": true,
          "internalType": "address",
          "name": "sender",
          "type": "address"
        }
      ],
      "name": "RoleGranted",
      "type": "event"
    },
    {
      "anonymous": false,
      "inputs": [
        {
          "indexed": true,
          "internalType": "bytes32",
          "name": "role",
          "type": "bytes32"
        },
        {
          "indexed": true,
          "internalType": "address",
          "name": "account",
          "type": "address"
        },
        {
          "indexed": true,
          "internalType": "address",
          "name": "sender",
          "type": "address"
        }
      ],
      "name": "RoleRevoked",
      "type": "event"
    },
    {
      "anonymous": false,
      "inputs": [
        {
          "indexed": false,
          "internalType": "address",
          "name": "pool",
          "type": "address"
        },
        {
          "indexed": false,
          "internalType": "uint256",
          "name": "lock",
          "type": "uint256"
        },
        {
          "indexed": false,
          "internalType": "uint256",
          "name": "rate",
          "type": "uint256"
        },
        {
          "indexed": false,
          "internalType": "uint256",
          "name": "interestFee",
          "type": "uint256"
        },
        {
          "indexed": false,
          "internalType": "uint256",
          "name": "anualPrecent",
          "type": "uint256"
        }
      ],
      "name": "UpdatePool",
      "type": "event"
    },
    {
      "inputs": [],
      "name": "DEFAULT_ADMIN_ROLE",
      "outputs": [
        {
          "internalType": "bytes32",
          "name": "",
          "type": "bytes32"
        }
      ],
      "stateMutability": "view",
      "type": "function",
      "constant": true
    },
    {
      "inputs": [],
      "name": "GENERAL_PARTNER_ROLE",
      "outputs": [
        {
          "internalType": "bytes32",
          "name": "",
          "type": "bytes32"
        }
      ],
      "stateMutability": "view",
      "type": "function",
      "constant": true
    },
    {
      "inputs": [],
      "name": "LIMITED_PARTNER_ROLE",
      "outputs": [
        {
          "internalType": "bytes32",
          "name": "",
          "type": "bytes32"
        }
      ],
      "stateMutability": "view",
      "type": "function",
      "constant": true
    },
    {
      "inputs": [],
      "name": "ORACLE_ROLE",
      "outputs": [
        {
          "internalType": "bytes32",
          "name": "",
          "type": "bytes32"
        }
      ],
      "stateMutability": "view",
      "type": "function",
      "constant": true
    },
    {
      "inputs": [],
      "name": "POOL_REGISTRY",
      "outputs": [
        {
          "internalType": "bytes32",
          "name": "",
          "type": "bytes32"
        }
      ],
      "stateMutability": "view",
      "type": "function",
      "constant": true
    },
    {
      "inputs": [],
      "name": "REFERER_ROLE",
      "outputs": [
        {
          "internalType": "bytes32",
          "name": "",
          "type": "bytes32"
        }
      ],
      "stateMutability": "view",
      "type": "function",
      "constant": true
    },
    {
      "inputs": [],
      "name": "STURTAP_TEAM_ROLE",
      "outputs": [
        {
          "internalType": "bytes32",
          "name": "",
          "type": "bytes32"
        }
      ],
      "stateMutability": "view",
      "type": "function",
      "constant": true
    },
    {
      "inputs": [],
      "name": "SUPER_ADMIN_ROLE",
      "outputs": [
        {
          "internalType": "bytes32",
          "name": "",
          "type": "bytes32"
        }
      ],
      "stateMutability": "view",
      "type": "function",
      "constant": true
    },
    {
      "inputs": [],
      "name": "TEAM_ROLE",
      "outputs": [
        {
          "internalType": "bytes32",
          "name": "",
          "type": "bytes32"
        }
      ],
      "stateMutability": "view",
      "type": "function",
      "constant": true
    },
    {
      "inputs": [
        {
          "internalType": "bytes32",
          "name": "role",
          "type": "bytes32"
        },
        {
          "internalType": "address",
          "name": "account",
          "type": "address"
        }
      ],
      "name": "addAdmin",
      "outputs": [
        {
          "internalType": "bool",
          "name": "",
          "type": "bool"
        }
      ],
      "stateMutability": "nonpayable",
      "type": "function"
    },
    {
      "inputs": [],
      "name": "finalize",
      "outputs": [],
      "stateMutability": "nonpayable",
      "type": "function"
    },
    {
      "inputs": [
        {
          "internalType": "bytes32",
          "name": "role",
          "type": "bytes32"
        }
      ],
      "name": "getMembersRole",
      "outputs": [
        {
          "internalType": "address[]",
          "name": "Accounts",
          "type": "address[]"
        }
      ],
      "stateMutability": "view",
      "type": "function",
      "constant": true
    },
    {
      "inputs": [
        {
          "internalType": "bytes32",
          "name": "role",
          "type": "bytes32"
        }
      ],
      "name": "getRoleAdmin",
      "outputs": [
        {
          "internalType": "bytes32",
          "name": "",
          "type": "bytes32"
        }
      ],
      "stateMutability": "view",
      "type": "function",
      "constant": true
    },
    {
      "inputs": [
        {
          "internalType": "bytes32",
          "name": "role",
          "type": "bytes32"
        },
        {
          "internalType": "uint256",
          "name": "index",
          "type": "uint256"
        }
      ],
      "name": "getRoleMember",
      "outputs": [
        {
          "internalType": "address",
          "name": "",
          "type": "address"
        }
      ],
      "stateMutability": "view",
      "type": "function",
      "constant": true
    },
    {
      "inputs": [
        {
          "internalType": "bytes32",
          "name": "role",
          "type": "bytes32"
        }
      ],
      "name": "getRoleMemberCount",
      "outputs": [
        {
          "internalType": "uint256",
          "name": "",
          "type": "uint256"
        }
      ],
      "stateMutability": "view",
      "type": "function",
      "constant": true
    },
    {
      "inputs": [
        {
          "internalType": "bytes32",
          "name": "role",
          "type": "bytes32"
        },
        {
          "internalType": "address",
          "name": "account",
          "type": "address"
        }
      ],
      "name": "grantRole",
      "outputs": [],
      "stateMutability": "nonpayable",
      "type": "function"
    },
    {
      "inputs": [
        {
          "internalType": "bytes32",
          "name": "role",
          "type": "bytes32"
        },
        {
          "internalType": "address",
          "name": "account",
          "type": "address"
        }
      ],
      "name": "hasRole",
      "outputs": [
        {
          "internalType": "bool",
          "name": "",
          "type": "bool"
        }
      ],
      "stateMutability": "view",
      "type": "function",
      "constant": true
    },
    {
      "inputs": [],
      "name": "owner",
      "outputs": [
        {
          "internalType": "address",
          "name": "",
          "type": "address"
        }
      ],
      "stateMutability": "view",
      "type": "function",
      "constant": true
    },
    {
      "inputs": [
        {
          "internalType": "bytes32",
          "name": "role",
          "type": "bytes32"
        },
        {
          "internalType": "address",
          "name": "account",
          "type": "address"
        }
      ],
      "name": "renounceRole",
      "outputs": [],
      "stateMutability": "nonpayable",
      "type": "function"
    },
    {
      "inputs": [
        {
          "internalType": "bytes32",
          "name": "role",
          "type": "bytes32"
        },
        {
          "internalType": "address",
          "name": "account",
          "type": "address"
        }
      ],
      "name": "revokeRole",
      "outputs": [],
      "stateMutability": "nonpayable",
      "type": "function"
    },
    {
      "inputs": [
        {
          "internalType": "address",
          "name": "token",
          "type": "address"
        },
        {
          "internalType": "uint256",
          "name": "locked",
          "type": "uint256"
        },
        {
          "internalType": "uint256",
          "name": "rate",
          "type": "uint256"
        },
        {
          "internalType": "uint256",
          "name": "interestFee",
          "type": "uint256"
        },
        {
          "internalType": "uint256",
          "name": "anualPrecent",
          "type": "uint256"
        },
        {
          "internalType": "address",
          "name": "superAdmin",
          "type": "address"
        },
        {
          "internalType": "address",
          "name": "gPartner",
          "type": "address"
        },
        {
          "internalType": "address",
          "name": "lPartner",
          "type": "address"
        },
        {
          "internalType": "address",
          "name": "team",
          "type": "address"
        },
        {
          "internalType": "address",
          "name": "sturtapTeam",
          "type": "address"
        },
        {
          "internalType": "address",
          "name": "referer",
          "type": "address"
        }
      ],
      "name": "createPool",
      "outputs": [
        {
          "internalType": "bool",
          "name": "",
          "type": "bool"
        }
      ],
      "stateMutability": "nonpayable",
      "type": "function"
    },
    {
      "inputs": [
        {
          "internalType": "address",
          "name": "poolAddress",
          "type": "address"
        }
      ],
      "name": "addPool",
      "outputs": [
        {
          "internalType": "bool",
          "name": "",
          "type": "bool"
        }
      ],
      "stateMutability": "nonpayable",
      "type": "function"
    },
    {
      "inputs": [
        {
          "internalType": "address",
          "name": "pool",
          "type": "address"
        },
        {
          "internalType": "uint256",
          "name": "lock",
          "type": "uint256"
        },
        {
          "internalType": "uint256",
          "name": "rate",
          "type": "uint256"
        },
        {
          "internalType": "uint256",
          "name": "interestFee",
          "type": "uint256"
        },
        {
          "internalType": "uint256",
          "name": "anualPrecent",
          "type": "uint256"
        }
      ],
      "name": "updatePool",
      "outputs": [
        {
          "internalType": "bool",
          "name": "",
          "type": "bool"
        }
      ],
      "stateMutability": "nonpayable",
      "type": "function"
    },
    {
      "inputs": [
        {
          "internalType": "address",
          "name": "pool",
          "type": "address"
        }
      ],
      "name": "getPollInfo",
      "outputs": [
        {
          "internalType": "address",
          "name": "token",
          "type": "address"
        },
        {
          "internalType": "uint256",
          "name": "lock",
          "type": "uint256"
        },
        {
          "internalType": "uint256",
          "name": "rate",
          "type": "uint256"
        },
        {
          "internalType": "uint256",
          "name": "interestFee",
          "type": "uint256"
        },
        {
          "internalType": "uint256",
          "name": "anualPrecent",
          "type": "uint256"
        }
      ],
      "stateMutability": "view",
      "type": "function",
      "constant": true
    },
    {
      "inputs": [],
      "name": "getPools",
      "outputs": [
        {
          "internalType": "address[]",
          "name": "",
          "type": "address[]"
        }
      ],
      "stateMutability": "view",
      "type": "function",
      "constant": true
    }
  ],
  "bytecode": "0x60806040526000600260146101000a81548160ff0219169083151502179055506000620000316200043a60201b60201c565b905080600260006101000a81548173ffffffffffffffffffffffffffffffffffffffff021916908373ffffffffffffffffffffffffffffffffffffffff1602179055508073ffffffffffffffffffffffffffffffffffffffff16600073ffffffffffffffffffffffffffffffffffffffff167f8be0079c531659141344cd1fd0a4f28419497f9722a3daafe3b4186f6b6457e060405160405180910390a3506200014c60405180807f47454e4552414c5f504152544e45525f524f4c450000000000000000000000008152506014019050604051809103902060405180807f53555045525f41444d494e5f524f4c4500000000000000000000000000000000815250601001905060405180910390206200044260201b60201c565b620001c860405180807f4c494d495445445f504152544e45525f524f4c450000000000000000000000008152506014019050604051809103902060405180807f53555045525f41444d494e5f524f4c4500000000000000000000000000000000815250601001905060405180910390206200044260201b60201c565b6200024460405180807f5445414d5f524f4c4500000000000000000000000000000000000000000000008152506009019050604051809103902060405180807f53555045525f41444d494e5f524f4c4500000000000000000000000000000000815250601001905060405180910390206200044260201b60201c565b620002c060405180807f535455525441505f5445414d5f524f4c450000000000000000000000000000008152506011019050604051809103902060405180807f53555045525f41444d494e5f524f4c4500000000000000000000000000000000815250601001905060405180910390206200044260201b60201c565b6200033c60405180807f524546455245525f524f4c450000000000000000000000000000000000000000815250600c019050604051809103902060405180807f53555045525f41444d494e5f524f4c4500000000000000000000000000000000815250601001905060405180910390206200044260201b60201c565b620003b860405180807f4f5241434c455f524f4c45000000000000000000000000000000000000000000815250600b019050604051809103902060405180807f53555045525f41444d494e5f524f4c4500000000000000000000000000000000815250601001905060405180910390206200044260201b60201c565b6200043460405180807f504f4f4c5f524547495354525900000000000000000000000000000000000000815250600d019050604051809103902060405180807f53555045525f41444d494e5f524f4c4500000000000000000000000000000000815250601001905060405180910390206200044260201b60201c565b62000460565b600033905090565b80600080848152602001908152602001600020600301819055505050565b615efc80620004706000396000f3fe60806040523480156200001157600080fd5b5060043610620001965760003560e01c8063673a2a1f11620000f3578063b3fa9a6d11620000a5578063ca15c873116200007b578063ca15c8731462000884578063d547741f14620008c9578063d914cd4b146200091a578063fe070e9d14620009795762000196565b8063b3fa9a6d14620006fc578063ba12d0871462000844578063c1abd75714620008645762000196565b8063673a2a1f14620004c15780638da5cb5b14620005245780639010d07c146200057057806391d1485414620005eb5780639cf6cc701462000654578063a217fddf14620006dc5762000196565b80634460bdd6116200014d5780634460bdd6146200034957806349d5e60414620003695780634bb278f3146200038957806359bc2b3014620003955780635ac8b00514620004385780636419bcdb14620004585762000196565b806307e2cea5146200019b5780631cda4a8d14620001bb578063248a9ca314620001db5780632f2ff15d146200022057806336568abe146200027157806339ec4d8e14620002c2575b600080fd5b620001a562000999565b6040518082815260200191505060405180910390f35b620001c5620009d2565b6040518082815260200191505060405180910390f35b6200020a60048036036020811015620001f357600080fd5b810190808035906020019092919050505062000a0b565b6040518082815260200191505060405180910390f35b6200026f600480360360408110156200023857600080fd5b8101908080359060200190929190803573ffffffffffffffffffffffffffffffffffffffff16906020019092919050505062000a2a565b005b620002c0600480360360408110156200028957600080fd5b8101908080359060200190929190803573ffffffffffffffffffffffffffffffffffffffff16906020019092919050505062000abb565b005b6200032f600480360360a0811015620002da57600080fd5b81019080803573ffffffffffffffffffffffffffffffffffffffff1690602001909291908035906020019092919080359060200190929190803590602001909291908035906020019092919050505062000b5a565b604051808215151515815260200191505060405180910390f35b62000353620011b5565b6040518082815260200191505060405180910390f35b62000373620011ee565b6040518082815260200191505060405180910390f35b6200039362001227565b005b620003da60048036036020811015620003ad57600080fd5b81019080803573ffffffffffffffffffffffffffffffffffffffff169060200190929190505050620013c1565b604051808673ffffffffffffffffffffffffffffffffffffffff1673ffffffffffffffffffffffffffffffffffffffff1681526020018581526020018481526020018381526020018281526020019550505050505060405180910390f35b620004426200165b565b6040518082815260200191505060405180910390f35b620004a7600480360360408110156200047057600080fd5b8101908080359060200190929190803573ffffffffffffffffffffffffffffffffffffffff16906020019092919050505062001694565b604051808215151515815260200191505060405180910390f35b620004cb620017fd565b6040518080602001828103825283818151815260200191508051906020019060200280838360005b8381101562000510578082015181840152602081019050620004f3565b505050509050019250505060405180910390f35b6200052e62001810565b604051808273ffffffffffffffffffffffffffffffffffffffff1673ffffffffffffffffffffffffffffffffffffffff16815260200191505060405180910390f35b620005a9600480360360408110156200058857600080fd5b8101908080359060200190929190803590602001909291905050506200183a565b604051808273ffffffffffffffffffffffffffffffffffffffff1673ffffffffffffffffffffffffffffffffffffffff16815260200191505060405180910390f35b6200063a600480360360408110156200060357600080fd5b8101908080359060200190929190803573ffffffffffffffffffffffffffffffffffffffff1690602001909291905050506200186d565b604051808215151515815260200191505060405180910390f35b62000683600480360360208110156200066c57600080fd5b8101908080359060200190929190505050620018a0565b6040518080602001828103825283818151815260200191508051906020019060200280838360005b83811015620006c8578082015181840152602081019050620006ab565b505050509050019250505060405180910390f35b620006e662001943565b6040518082815260200191505060405180910390f35b6200082a60048036036101608110156200071557600080fd5b81019080803573ffffffffffffffffffffffffffffffffffffffff16906020019092919080359060200190929190803590602001909291908035906020019092919080359060200190929190803573ffffffffffffffffffffffffffffffffffffffff169060200190929190803573ffffffffffffffffffffffffffffffffffffffff169060200190929190803573ffffffffffffffffffffffffffffffffffffffff169060200190929190803573ffffffffffffffffffffffffffffffffffffffff169060200190929190803573ffffffffffffffffffffffffffffffffffffffff169060200190929190803573ffffffffffffffffffffffffffffffffffffffff1690602001909291905050506200194a565b604051808215151515815260200191505060405180910390f35b6200084e62001db6565b6040518082815260200191505060405180910390f35b6200086e62001def565b6040518082815260200191505060405180910390f35b620008b3600480360360208110156200089c57600080fd5b810190808035906020019092919050505062001e28565b6040518082815260200191505060405180910390f35b6200091860048036036040811015620008e157600080fd5b8101908080359060200190929190803573ffffffffffffffffffffffffffffffffffffffff16906020019092919050505062001e50565b005b6200095f600480360360208110156200093257600080fd5b81019080803573ffffffffffffffffffffffffffffffffffffffff16906020019092919050505062001ee1565b604051808215151515815260200191505060405180910390f35b620009836200286b565b6040518082815260200191505060405180910390f35b60405180807f4f5241434c455f524f4c45000000000000000000000000000000000000000000815250600b019050604051809103902081565b60405180807f504f4f4c5f524547495354525900000000000000000000000000000000000000815250600d019050604051809103902081565b6000806000838152602001908152602001600020600301549050919050565b62000a546000808481526020019081526020016000206003015462000a4e620028a4565b6200186d565b62000aab576040517f08c379a000000000000000000000000000000000000000000000000000000000815260040180806020018281038252602f81526020018062005d9c602f913960400191505060405180910390fd5b62000ab78282620028ac565b5050565b62000ac5620028a4565b73ffffffffffffffffffffffffffffffffffffffff168173ffffffffffffffffffffffffffffffffffffffff161462000b4a576040517f08c379a000000000000000000000000000000000000000000000000000000000815260040180806020018281038252602f81526020018062005e98602f913960400191505060405180910390fd5b62000b568282620029b8565b5050565b60008073ffffffffffffffffffffffffffffffffffffffff168673ffffffffffffffffffffffffffffffffffffffff16141562000bff576040517f08c379a000000000000000000000000000000000000000000000000000000000815260040180806020018281038252601f8152602001807f506f6f6c52656769737472793a20706f6f6c207a65726f20616464726573730081525060200191505060405180910390fd5b62000c1586600462002b2390919063ffffffff16565b62000c6c576040517f08c379a000000000000000000000000000000000000000000000000000000000815260040180806020018281038252602f81526020018062005dcb602f913960400191505060405180910390fd5b60008690508073ffffffffffffffffffffffffffffffffffffffff166391d1485460405180807f47454e4552414c5f504152544e45525f524f4c4500000000000000000000000081525060140190506040518091039020336040518363ffffffff1660e01b8152600401808381526020018273ffffffffffffffffffffffffffffffffffffffff1673ffffffffffffffffffffffffffffffffffffffff1681526020019250505060206040518083038186803b15801562000d2c57600080fd5b505afa15801562000d41573d6000803e3d6000fd5b505050506040513d602081101562000d5857600080fd5b810190808051906020019092919050505062000dc0576040517f08c379a000000000000000000000000000000000000000000000000000000000815260040180806020018281038252603b81526020018062005dfa603b913960400191505060405180910390fd5b8073ffffffffffffffffffffffffffffffffffffffff1663d3e15747876040518263ffffffff1660e01b815260040180828152602001915050602060405180830381600087803b15801562000e1457600080fd5b505af115801562000e29573d6000803e3d6000fd5b505050506040513d602081101562000e4057600080fd5b8101908080519060200190929190505050508073ffffffffffffffffffffffffffffffffffffffff166334fcf437866040518263ffffffff1660e01b815260040180828152602001915050602060405180830381600087803b15801562000ea657600080fd5b505af115801562000ebb573d6000803e3d6000fd5b505050506040513d602081101562000ed257600080fd5b8101908080519060200190929190505050508073ffffffffffffffffffffffffffffffffffffffff16635b56d6f5856040518263ffffffff1660e01b815260040180828152602001915050602060405180830381600087803b15801562000f3857600080fd5b505af115801562000f4d573d6000803e3d6000fd5b505050506040513d602081101562000f6457600080fd5b8101908080519060200190929190505050508073ffffffffffffffffffffffffffffffffffffffff1663d92c848f846040518263ffffffff1660e01b815260040180828152602001915050602060405180830381600087803b15801562000fca57600080fd5b505af115801562000fdf573d6000803e3d6000fd5b505050506040513d602081101562000ff657600080fd5b81019080805190602001909291905050505085600360008973ffffffffffffffffffffffffffffffffffffffff1673ffffffffffffffffffffffffffffffffffffffff1681526020019081526020016000206001018190555084600360008973ffffffffffffffffffffffffffffffffffffffff1673ffffffffffffffffffffffffffffffffffffffff1681526020019081526020016000206002018190555083600360008973ffffffffffffffffffffffffffffffffffffffff1673ffffffffffffffffffffffffffffffffffffffff1681526020019081526020016000206003018190555082600360008973ffffffffffffffffffffffffffffffffffffffff1673ffffffffffffffffffffffffffffffffffffffff168152602001908152602001600020600401819055507fe9ca9c51fee70c832a9946778273f75eb689e6901a09ef2fa4821884318f1ea08787878787604051808673ffffffffffffffffffffffffffffffffffffffff1673ffffffffffffffffffffffffffffffffffffffff1681526020018581526020018481526020018381526020018281526020019550505050505060405180910390a1600191505095945050505050565b60405180807f53555045525f41444d494e5f524f4c45000000000000000000000000000000008152506010019050604051809103902081565b60405180807f5445414d5f524f4c4500000000000000000000000000000000000000000000008152506009019050604051809103902081565b62001231620028a4565b73ffffffffffffffffffffffffffffffffffffffff16600260009054906101000a900473ffffffffffffffffffffffffffffffffffffffff1673ffffffffffffffffffffffffffffffffffffffff1614620012f4576040517f08c379a00000000000000000000000000000000000000000000000000000000081526004018080602001828103825260208152602001807f4f776e61626c653a2063616c6c6572206973206e6f7420746865206f776e657281525060200191505060405180910390fd5b600260149054906101000a900460ff161562001378576040517f08c379a000000000000000000000000000000000000000000000000000000000815260040180806020018281038252601e8152602001807f4d616e61676572526f6c653a20616c72656164792066696e616c697a6564000081525060200191505060405180910390fd5b6001600260146101000a81548160ff0219169083151502179055507f6823b073d48d6e3a7d385eeb601452d680e74bb46afe3255a7d778f3a9b1768160405160405180910390a1565b60008060008060008073ffffffffffffffffffffffffffffffffffffffff168673ffffffffffffffffffffffffffffffffffffffff1614156200146c576040517f08c379a000000000000000000000000000000000000000000000000000000000815260040180806020018281038252601f8152602001807f506f6f6c52656769737472793a20706f6f6c207a65726f20616464726573730081525060200191505060405180910390fd5b6200148286600462002b2390919063ffffffff16565b620014d9576040517f08c379a000000000000000000000000000000000000000000000000000000000815260040180806020018281038252602f81526020018062005dcb602f913960400191505060405180910390fd5b600360008773ffffffffffffffffffffffffffffffffffffffff1673ffffffffffffffffffffffffffffffffffffffff16815260200190815260200160002060000160009054906101000a900473ffffffffffffffffffffffffffffffffffffffff16600360008873ffffffffffffffffffffffffffffffffffffffff1673ffffffffffffffffffffffffffffffffffffffff16815260200190815260200160002060010154600360008973ffffffffffffffffffffffffffffffffffffffff1673ffffffffffffffffffffffffffffffffffffffff16815260200190815260200160002060020154600360008a73ffffffffffffffffffffffffffffffffffffffff1673ffffffffffffffffffffffffffffffffffffffff16815260200190815260200160002060030154600360008b73ffffffffffffffffffffffffffffffffffffffff1673ffffffffffffffffffffffffffffffffffffffff168152602001908152602001600020600401549450945094509450945091939590929450565b60405180807f524546455245525f524f4c450000000000000000000000000000000000000000815250600c019050604051809103902081565b6000620016a0620028a4565b73ffffffffffffffffffffffffffffffffffffffff16600260009054906101000a900473ffffffffffffffffffffffffffffffffffffffff1673ffffffffffffffffffffffffffffffffffffffff161462001763576040517f08c379a00000000000000000000000000000000000000000000000000000000081526004018080602001828103825260208152602001807f4f776e61626c653a2063616c6c6572206973206e6f7420746865206f776e657281525060200191505060405180910390fd5b600260149054906101000a900460ff1615620017e7576040517f08c379a000000000000000000000000000000000000000000000000000000000815260040180806020018281038252601e8152602001807f4d616e61676572526f6c653a20616c72656164792066696e616c697a6564000081525060200191505060405180910390fd5b620017f3838362002b55565b6001905092915050565b60606200180b600462002b65565b905090565b6000600260009054906101000a900473ffffffffffffffffffffffffffffffffffffffff16905090565b6000620018658260008086815260200190815260200160002060000162002b7c90919063ffffffff16565b905092915050565b6000620018988260008086815260200190815260200160002060000162002b2390919063ffffffff16565b905092915050565b6060600160008381526020019081526020016000208054806020026020016040519081016040528092919081815260200182805480156200193757602002820191906000526020600020905b8160009054906101000a900473ffffffffffffffffffffffffffffffffffffffff1673ffffffffffffffffffffffffffffffffffffffff1681526020019060010190808311620018ec575b50505050509050919050565b6000801b81565b60006200198d60405180807f47454e4552414c5f504152544e45525f524f4c4500000000000000000000000081525060140190506040518091039020336200186d565b620019e4576040517f08c379a000000000000000000000000000000000000000000000000000000000815260040180806020018281038252603481526020018062005d686034913960400191505060405180910390fd5b60008c8c8c8c8c8c8c8c8c8c8c620019fb620028a4565b60405162001a0990620031c6565b808d73ffffffffffffffffffffffffffffffffffffffff1673ffffffffffffffffffffffffffffffffffffffff1681526020018c81526020018b81526020018a81526020018981526020018873ffffffffffffffffffffffffffffffffffffffff1673ffffffffffffffffffffffffffffffffffffffff1681526020018773ffffffffffffffffffffffffffffffffffffffff1673ffffffffffffffffffffffffffffffffffffffff1681526020018673ffffffffffffffffffffffffffffffffffffffff1673ffffffffffffffffffffffffffffffffffffffff1681526020018573ffffffffffffffffffffffffffffffffffffffff1673ffffffffffffffffffffffffffffffffffffffff1681526020018473ffffffffffffffffffffffffffffffffffffffff1673ffffffffffffffffffffffffffffffffffffffff1681526020018373ffffffffffffffffffffffffffffffffffffffff1673ffffffffffffffffffffffffffffffffffffffff1681526020018273ffffffffffffffffffffffffffffffffffffffff1673ffffffffffffffffffffffffffffffffffffffff1681526020019c50505050505050505050505050604051809103906000f08015801562001bdd573d6000803e3d6000fd5b50905060008190506040518060a001604052808f73ffffffffffffffffffffffffffffffffffffffff1681526020018e81526020018d81526020018c81526020018b815250600360008373ffffffffffffffffffffffffffffffffffffffff1673ffffffffffffffffffffffffffffffffffffffff16815260200190815260200160002060008201518160000160006101000a81548173ffffffffffffffffffffffffffffffffffffffff021916908373ffffffffffffffffffffffffffffffffffffffff1602179055506020820151816001015560408201518160020155606082015181600301556080820151816004015590505062001ce981600462002b9890919063ffffffff16565b507f4d4c389af1cd6ae306feab780df09ae81048118fed984b76fb6323e760b4aae3818f8f8f8f8f604051808773ffffffffffffffffffffffffffffffffffffffff1673ffffffffffffffffffffffffffffffffffffffff1681526020018673ffffffffffffffffffffffffffffffffffffffff1673ffffffffffffffffffffffffffffffffffffffff168152602001858152602001848152602001838152602001828152602001965050505050505060405180910390a16001925050509b9a5050505050505050505050565b60405180807f535455525441505f5445414d5f524f4c450000000000000000000000000000008152506011019050604051809103902081565b60405180807f47454e4552414c5f504152544e45525f524f4c450000000000000000000000008152506014019050604051809103902081565b600062001e4960008084815260200190815260200160002060000162002bcb565b9050919050565b62001e7a6000808481526020019081526020016000206003015462001e74620028a4565b6200186d565b62001ed1576040517f08c379a000000000000000000000000000000000000000000000000000000000815260040180806020018281038252603081526020018062005e356030913960400191505060405180910390fd5b62001edd8282620029b8565b5050565b60008073ffffffffffffffffffffffffffffffffffffffff168273ffffffffffffffffffffffffffffffffffffffff16141562001f86576040517f08c379a000000000000000000000000000000000000000000000000000000000815260040180806020018281038252601f8152602001807f506f6f6c52656769737472793a20706f6f6c207a65726f20616464726573730081525060200191505060405180910390fd5b62001f9c82600462002b2390919063ffffffff16565b1562001ff4576040517f08c379a000000000000000000000000000000000000000000000000000000000815260040180806020018281038252603381526020018062005e656033913960400191505060405180910390fd5b60008290508073ffffffffffffffffffffffffffffffffffffffff166391d1485460405180807f47454e4552414c5f504152544e45525f524f4c4500000000000000000000000081525060140190506040518091039020336040518363ffffffff1660e01b8152600401808381526020018273ffffffffffffffffffffffffffffffffffffffff1673ffffffffffffffffffffffffffffffffffffffff1681526020019250505060206040518083038186803b158015620020b457600080fd5b505afa158015620020c9573d6000803e3d6000fd5b505050506040513d6020811015620020e057600080fd5b810190808051906020019092919050505062002148576040517f08c379a000000000000000000000000000000000000000000000000000000000815260040180806020018281038252603b81526020018062005dfa603b913960400191505060405180910390fd5b60008173ffffffffffffffffffffffffffffffffffffffff1663fc0c546a6040518163ffffffff1660e01b815260040160206040518083038186803b1580156200219157600080fd5b505afa158015620021a6573d6000803e3d6000fd5b505050506040513d6020811015620021bd57600080fd5b81019080805190602001909291905050509050600073ffffffffffffffffffffffffffffffffffffffff168173ffffffffffffffffffffffffffffffffffffffff16141562002274576040517f08c379a00000000000000000000000000000000000000000000000000000000081526004018080602001828103825260208152602001807f506f6f6c52656769737472793a20746f6b656e207a65726f206164647265737381525060200191505060405180910390fd5b60008273ffffffffffffffffffffffffffffffffffffffff1663cf3090126040518163ffffffff1660e01b815260040160206040518083038186803b158015620022bd57600080fd5b505afa158015620022d2573d6000803e3d6000fd5b505050506040513d6020811015620022e957600080fd5b8101908080519060200190929190505050905060008373ffffffffffffffffffffffffffffffffffffffff16632c4e722e6040518163ffffffff1660e01b815260040160206040518083038186803b1580156200234557600080fd5b505afa1580156200235a573d6000803e3d6000fd5b505050506040513d60208110156200237157600080fd5b8101908080519060200190929190505050905060008473ffffffffffffffffffffffffffffffffffffffff1663a75df4986040518163ffffffff1660e01b815260040160206040518083038186803b158015620023cd57600080fd5b505afa158015620023e2573d6000803e3d6000fd5b505050506040513d6020811015620023f957600080fd5b8101908080519060200190929190505050905060008573ffffffffffffffffffffffffffffffffffffffff1663a8a159c26040518163ffffffff1660e01b815260040160206040518083038186803b1580156200245557600080fd5b505afa1580156200246a573d6000803e3d6000fd5b505050506040513d60208110156200248157600080fd5b810190808051906020019092919050505090506040518060a001604052808673ffffffffffffffffffffffffffffffffffffffff1681526020018773ffffffffffffffffffffffffffffffffffffffff1663cf3090126040518163ffffffff1660e01b815260040160206040518083038186803b1580156200250257600080fd5b505afa15801562002517573d6000803e3d6000fd5b505050506040513d60208110156200252e57600080fd5b810190808051906020019092919050505081526020018773ffffffffffffffffffffffffffffffffffffffff16632c4e722e6040518163ffffffff1660e01b815260040160206040518083038186803b1580156200258b57600080fd5b505afa158015620025a0573d6000803e3d6000fd5b505050506040513d6020811015620025b757600080fd5b810190808051906020019092919050505081526020018773ffffffffffffffffffffffffffffffffffffffff1663a75df4986040518163ffffffff1660e01b815260040160206040518083038186803b1580156200261457600080fd5b505afa15801562002629573d6000803e3d6000fd5b505050506040513d60208110156200264057600080fd5b810190808051906020019092919050505081526020018773ffffffffffffffffffffffffffffffffffffffff1663a8a159c26040518163ffffffff1660e01b815260040160206040518083038186803b1580156200269d57600080fd5b505afa158015620026b2573d6000803e3d6000fd5b505050506040513d6020811015620026c957600080fd5b8101908080519060200190929190505050815250600360008a73ffffffffffffffffffffffffffffffffffffffff1673ffffffffffffffffffffffffffffffffffffffff16815260200190815260200160002060008201518160000160006101000a81548173ffffffffffffffffffffffffffffffffffffffff021916908373ffffffffffffffffffffffffffffffffffffffff16021790555060208201518160010155604082015181600201556060820151816003015560808201518160040155905050620027a488600462002b9890919063ffffffff16565b507f1a9e9cb7556ff82aa0fbaa3e41234bba6c1a5a738489e2fcffa91e42c3f5b871888686868686604051808773ffffffffffffffffffffffffffffffffffffffff1673ffffffffffffffffffffffffffffffffffffffff1681526020018673ffffffffffffffffffffffffffffffffffffffff1673ffffffffffffffffffffffffffffffffffffffff168152602001858152602001848152602001838152602001828152602001965050505050505060405180910390a160019650505050505050919050565b60405180807f4c494d495445445f504152544e45525f524f4c450000000000000000000000008152506014019050604051809103902081565b600033905090565b620028d58160008085815260200190815260200160002060000162002b9890919063ffffffff16565b15620029b45760016000838152602001908152602001600020819080600181540180825580915050600190039060005260206000200160009091909190916101000a81548173ffffffffffffffffffffffffffffffffffffffff021916908373ffffffffffffffffffffffffffffffffffffffff16021790555062002959620028a4565b73ffffffffffffffffffffffffffffffffffffffff168173ffffffffffffffffffffffffffffffffffffffff16837f2f8788117e7eff1d82e926ec794901d17c78024a50270940304540a733656f0d60405160405180910390a45b5050565b620029e18160008085815260200190815260200160002060000162002be290919063ffffffff16565b1562002b1f5760005b600160008481526020019081526020016000208054905081101562002ab9578173ffffffffffffffffffffffffffffffffffffffff1660016000858152602001908152602001600020828154811062002a3f57fe5b9060005260206000200160009054906101000a900473ffffffffffffffffffffffffffffffffffffffff1673ffffffffffffffffffffffffffffffffffffffff16141562002aab5762002aa5816001600086815260200190815260200160002062002c15565b62002ab9565b8080600101915050620029ea565b5062002ac4620028a4565b73ffffffffffffffffffffffffffffffffffffffff168173ffffffffffffffffffffffffffffffffffffffff16837ff6391f5c32d9c69d2a47ea670b442974b53935d1edc7fd64eb21e047a839171b60405160405180910390a45b5050565b600062002b4d836000018373ffffffffffffffffffffffffffffffffffffffff1660001b62002d0e565b905092915050565b62002b618282620028ac565b5050565b606062002b758260000162002d31565b9050919050565b600062002b8d836000018362002dc5565b60001c905092915050565b600062002bc3836000018373ffffffffffffffffffffffffffffffffffffffff1660001b8462002e4b565b905092915050565b600062002bdb8260000162002f25565b9050919050565b600062002c0d836000018373ffffffffffffffffffffffffffffffffffffffff1660001b8462002f36565b905092915050565b60008290505b600182805490500381101562002cc95781600182018154811062002c3b57fe5b9060005260206000200160009054906101000a900473ffffffffffffffffffffffffffffffffffffffff1682828154811062002c7357fe5b9060005260206000200160006101000a81548173ffffffffffffffffffffffffffffffffffffffff021916908373ffffffffffffffffffffffffffffffffffffffff160217905550808060010191505062002c1b565b508080548062002cd557fe5b6001900381819060005260206000200160006101000a81549073ffffffffffffffffffffffffffffffffffffffff021916905590555050565b600080836002016000848152602001908152602001600020541415905092915050565b60608160010180548060200260200160405190810160405280929190818152602001828054801562002db957602002820191906000526020600020905b8160009054906101000a900473ffffffffffffffffffffffffffffffffffffffff1673ffffffffffffffffffffffffffffffffffffffff168152602001906001019080831162002d6e575b50505050509050919050565b60008183600001805490501162002e28576040517f08c379a000000000000000000000000000000000000000000000000000000000815260040180806020018281038252602281526020018062005d466022913960400191505060405180910390fd5b82600001828154811062002e3857fe5b9060005260206000200154905092915050565b600062002e59848462002d0e565b62002f19578360000183908060018154018082558091505060019003906000526020600020016000909190919091505583600101829080600181540180825580915050600190039060005260206000200160009091909190916101000a81548173ffffffffffffffffffffffffffffffffffffffff021916908373ffffffffffffffffffffffffffffffffffffffff1602179055508360000180549050846002016000858152602001908152602001600020819055506001905062002f1e565b600090505b9392505050565b600081600001805490509050919050565b60008084600201600085815260200190815260200160002054905060008114620030c0576000600182039050600060018760000180549050039050600087600001828154811062002f8357fe5b906000526020600020015490508088600001848154811062002fa157fe5b906000526020600020018190555060018301886002016000838152602001908152602001600020819055508760000180548062002fda57fe5b600190038181906000526020600020016000905590558760020160008881526020019081526020016000206000905560008090505b8860010180549050811015620030b1578673ffffffffffffffffffffffffffffffffffffffff168960010182815481106200304657fe5b9060005260206000200160009054906101000a900473ffffffffffffffffffffffffffffffffffffffff1673ffffffffffffffffffffffffffffffffffffffff161415620030a3576200309d818a600101620030cd565b620030b1565b80806001019150506200300f565b506001945050505050620030c6565b60009150505b9392505050565b60008290505b60018280549050038110156200318157816001820181548110620030f357fe5b9060005260206000200160009054906101000a900473ffffffffffffffffffffffffffffffffffffffff168282815481106200312b57fe5b9060005260206000200160006101000a81548173ffffffffffffffffffffffffffffffffffffffff021916908373ffffffffffffffffffffffffffffffffffffffff1602179055508080600101915050620030d3565b50808054806200318d57fe5b6001900381819060005260206000200160006101000a81549073ffffffffffffffffffffffffffffffffffffffff021916905590555050565b612b7180620031d58339019056fe60806040526000600260146101000a81548160ff021916908315150217905550600360009054906101000a900473ffffffffffffffffffffffffffffffffffffffff16600460006101000a81548173ffffffffffffffffffffffffffffffffffffffff021916908373ffffffffffffffffffffffffffffffffffffffff1602179055503480156200008f57600080fd5b5060405162002b7138038062002b718339818101604052610180811015620000b657600080fd5b810190808051906020019092919080519060200190929190805190602001909291908051906020019092919080519060200190929190805190602001909291908051906020019092919080519060200190929190805190602001909291908051906020019092919080519060200190929190805190602001909291905050506000620001476200081260201b60201c565b905080600260006101000a81548173ffffffffffffffffffffffffffffffffffffffff021916908373ffffffffffffffffffffffffffffffffffffffff1602179055508073ffffffffffffffffffffffffffffffffffffffff16600073ffffffffffffffffffffffffffffffffffffffff167f8be0079c531659141344cd1fd0a4f28419497f9722a3daafe3b4186f6b6457e060405160405180910390a3506200026260405180807f47454e4552414c5f504152544e45525f524f4c450000000000000000000000008152506014019050604051809103902060405180807f53555045525f41444d494e5f524f4c4500000000000000000000000000000000815250601001905060405180910390206200081a60201b60201c565b620002de60405180807f4c494d495445445f504152544e45525f524f4c450000000000000000000000008152506014019050604051809103902060405180807f53555045525f41444d494e5f524f4c4500000000000000000000000000000000815250601001905060405180910390206200081a60201b60201c565b6200035a60405180807f5445414d5f524f4c4500000000000000000000000000000000000000000000008152506009019050604051809103902060405180807f53555045525f41444d494e5f524f4c4500000000000000000000000000000000815250601001905060405180910390206200081a60201b60201c565b620003d660405180807f535455525441505f5445414d5f524f4c450000000000000000000000000000008152506011019050604051809103902060405180807f53555045525f41444d494e5f524f4c4500000000000000000000000000000000815250601001905060405180910390206200081a60201b60201c565b6200045260405180807f524546455245525f524f4c450000000000000000000000000000000000000000815250600c019050604051809103902060405180807f53555045525f41444d494e5f524f4c4500000000000000000000000000000000815250601001905060405180910390206200081a60201b60201c565b620004ce60405180807f4f5241434c455f524f4c45000000000000000000000000000000000000000000815250600b019050604051809103902060405180807f53555045525f41444d494e5f524f4c4500000000000000000000000000000000815250601001905060405180910390206200081a60201b60201c565b6200054a60405180807f504f4f4c5f524547495354525900000000000000000000000000000000000000815250600d019050604051809103902060405180807f53555045525f41444d494e5f524f4c4500000000000000000000000000000000815250601001905060405180910390206200081a60201b60201c565b8b600360006101000a81548173ffffffffffffffffffffffffffffffffffffffff021916908373ffffffffffffffffffffffffffffffffffffffff1602179055508a600581905550896006819055508860078190555087600881905550620005f360405180807f53555045525f41444d494e5f524f4c450000000000000000000000000000000081525060100190506040518091039020336200083860201b62000d8f1760201c565b506200064060405180807f53555045525f41444d494e5f524f4c450000000000000000000000000000000081525060100190506040518091039020886200083860201b62000d8f1760201c565b5062000656620009ad60201b62000b1a1760201c565b6200069d60405180807f47454e4552414c5f504152544e45525f524f4c45000000000000000000000000815250601401905060405180910390208762000b4d60201b60201c565b620006e460405180807f4c494d495445445f504152544e45525f524f4c45000000000000000000000000815250601401905060405180910390208662000b4d60201b60201c565b6200072b60405180807f5445414d5f524f4c450000000000000000000000000000000000000000000000815250600901905060405180910390208562000b4d60201b60201c565b6200077260405180807f535455525441505f5445414d5f524f4c45000000000000000000000000000000815250601101905060405180910390208462000b4d60201b60201c565b620007b960405180807f524546455245525f524f4c450000000000000000000000000000000000000000815250600c01905060405180910390208362000b4d60201b60201c565b6200080060405180807f504f4f4c5f524547495354525900000000000000000000000000000000000000815250600d01905060405180910390208262000b4d60201b60201c565b50505050505050505050505062000ec9565b600033905090565b80600080848152602001908152602001600020600301819055505050565b60006200084a6200081260201b60201c565b73ffffffffffffffffffffffffffffffffffffffff16600260009054906101000a900473ffffffffffffffffffffffffffffffffffffffff1673ffffffffffffffffffffffffffffffffffffffff16146200090d576040517f08c379a00000000000000000000000000000000000000000000000000000000081526004018080602001828103825260208152602001807f4f776e61626c653a2063616c6c6572206973206e6f7420746865206f776e657281525060200191505060405180910390fd5b600260149054906101000a900460ff161562000991576040517f08c379a000000000000000000000000000000000000000000000000000000000815260040180806020018281038252601e8152602001807f4d616e61676572526f6c653a20616c72656164792066696e616c697a6564000081525060200191505060405180910390fd5b620009a3838362000bf060201b60201c565b6001905092915050565b620009bd6200081260201b60201c565b73ffffffffffffffffffffffffffffffffffffffff16600260009054906101000a900473ffffffffffffffffffffffffffffffffffffffff1673ffffffffffffffffffffffffffffffffffffffff161462000a80576040517f08c379a00000000000000000000000000000000000000000000000000000000081526004018080602001828103825260208152602001807f4f776e61626c653a2063616c6c6572206973206e6f7420746865206f776e657281525060200191505060405180910390fd5b600260149054906101000a900460ff161562000b04576040517f08c379a000000000000000000000000000000000000000000000000000000000815260040180806020018281038252601e8152602001807f4d616e61676572526f6c653a20616c72656164792066696e616c697a6564000081525060200191505060405180910390fd5b6001600260146101000a81548160ff0219169083151502179055507f6823b073d48d6e3a7d385eeb601452d680e74bb46afe3255a7d778f3a9b1768160405160405180910390a1565b62000b836000808481526020019081526020016000206003015462000b776200081260201b60201c565b62000c0660201b60201c565b62000bda576040517f08c379a000000000000000000000000000000000000000000000000000000000815260040180806020018281038252602f81526020018062002b42602f913960400191505060405180910390fd5b62000bec828262000c3e60201b60201c565b5050565b62000c02828262000c3e60201b60201c565b5050565b600062000c368260008086815260200190815260200160002060000162000d5560201b620015aa1790919060201c565b905092915050565b62000c6c8160008085815260200190815260200160002060000162000d8d60201b620015ef1790919060201c565b1562000d515760016000838152602001908152602001600020819080600181540180825580915050600190039060005260206000200160009091909190916101000a81548173ffffffffffffffffffffffffffffffffffffffff021916908373ffffffffffffffffffffffffffffffffffffffff16021790555062000cf66200081260201b60201c565b73ffffffffffffffffffffffffffffffffffffffff168173ffffffffffffffffffffffffffffffffffffffff16837f2f8788117e7eff1d82e926ec794901d17c78024a50270940304540a733656f0d60405160405180910390a45b5050565b600062000d85836000018373ffffffffffffffffffffffffffffffffffffffff1660001b62000dc660201b60201c565b905092915050565b600062000dbe836000018373ffffffffffffffffffffffffffffffffffffffff1660001b8462000de960201b60201c565b905092915050565b600080836002016000848152602001908152602001600020541415905092915050565b600062000dfd848462000dc660201b60201c565b62000ebd578360000183908060018154018082558091505060019003906000526020600020016000909190919091505583600101829080600181540180825580915050600190039060005260206000200160009091909190916101000a81548173ffffffffffffffffffffffffffffffffffffffff021916908373ffffffffffffffffffffffffffffffffffffffff1602179055508360000180549050846002016000858152602001908152602001600020819055506001905062000ec2565b600090505b9392505050565b611c698062000ed96000396000f3fe608060405234801561001057600080fd5b50600436106101cf5760003560e01c80639010d07c11610104578063c1abd757116100a2578063d547741f11610071578063d547741f14610749578063d92c848f14610797578063fc0c546a146107dd578063fe070e9d14610827576101cf565b8063c1abd75714610685578063ca15c873146106a3578063cf309012146106e5578063d3e1574714610703576101cf565b8063a217fddf116100de578063a217fddf1461060d578063a75df4981461062b578063a8a159c214610649578063ba12d08714610667576101cf565b80639010d07c146104ac57806391d14854146105245780639cf6cc701461058a576101cf565b80634460bdd6116101715780635ac8b0051161014b5780635ac8b005146103985780635b56d6f5146103b65780636419bcdb146103fc5780638da5cb5b14610462576101cf565b80634460bdd61461035257806349d5e604146103705780634bb278f31461038e576101cf565b80632c4e722e116101ad5780632c4e722e146102525780632f2ff15d1461027057806334fcf437146102be57806336568abe14610304576101cf565b806307e2cea5146101d45780631cda4a8d146101f2578063248a9ca314610210575b600080fd5b6101dc610845565b6040518082815260200191505060405180910390f35b6101fa61087e565b6040518082815260200191505060405180910390f35b61023c6004803603602081101561022657600080fd5b81019080803590602001909291905050506108b7565b6040518082815260200191505060405180910390f35b61025a6108d6565b6040518082815260200191505060405180910390f35b6102bc6004803603604081101561028657600080fd5b8101908080359060200190929190803573ffffffffffffffffffffffffffffffffffffffff1690602001909291905050506108e0565b005b6102ea600480360360208110156102d457600080fd5b8101908080359060200190929190505050610969565b604051808215151515815260200191505060405180910390f35b6103506004803603604081101561031a57600080fd5b8101908080359060200190929190803573ffffffffffffffffffffffffffffffffffffffff169060200190929190505050610a0f565b005b61035a610aa8565b6040518082815260200191505060405180910390f35b610378610ae1565b6040518082815260200191505060405180910390f35b610396610b1a565b005b6103a0610cb0565b6040518082815260200191505060405180910390f35b6103e2600480360360208110156103cc57600080fd5b8101908080359060200190929190505050610ce9565b604051808215151515815260200191505060405180910390f35b6104486004803603604081101561041257600080fd5b8101908080359060200190929190803573ffffffffffffffffffffffffffffffffffffffff169060200190929190505050610d8f565b604051808215151515815260200191505060405180910390f35b61046a610ef2565b604051808273ffffffffffffffffffffffffffffffffffffffff1673ffffffffffffffffffffffffffffffffffffffff16815260200191505060405180910390f35b6104e2600480360360408110156104c257600080fd5b810190808035906020019092919080359060200190929190505050610f1c565b604051808273ffffffffffffffffffffffffffffffffffffffff1673ffffffffffffffffffffffffffffffffffffffff16815260200191505060405180910390f35b6105706004803603604081101561053a57600080fd5b8101908080359060200190929190803573ffffffffffffffffffffffffffffffffffffffff169060200190929190505050610f4d565b604051808215151515815260200191505060405180910390f35b6105b6600480360360208110156105a057600080fd5b8101908080359060200190929190505050610f7e565b6040518080602001828103825283818151815260200191508051906020019060200280838360005b838110156105f95780820151818401526020810190506105de565b505050509050019250505060405180910390f35b61061561101f565b6040518082815260200191505060405180910390f35b610633611026565b6040518082815260200191505060405180910390f35b610651611030565b6040518082815260200191505060405180910390f35b61066f61103a565b6040518082815260200191505060405180910390f35b61068d611073565b6040518082815260200191505060405180910390f35b6106cf600480360360208110156106b957600080fd5b81019080803590602001909291905050506110ac565b6040518082815260200191505060405180910390f35b6106ed6110d2565b6040518082815260200191505060405180910390f35b61072f6004803603602081101561071957600080fd5b81019080803590602001909291905050506110dc565b604051808215151515815260200191505060405180910390f35b6107956004803603604081101561075f57600080fd5b8101908080359060200190929190803573ffffffffffffffffffffffffffffffffffffffff169060200190929190505050611182565b005b6107c3600480360360208110156107ad57600080fd5b810190808035906020019092919050505061120b565b604051808215151515815260200191505060405180910390f35b6107e56112b1565b604051808273ffffffffffffffffffffffffffffffffffffffff1673ffffffffffffffffffffffffffffffffffffffff16815260200191505060405180910390f35b61082f6112db565b6040518082815260200191505060405180910390f35b60405180807f4f5241434c455f524f4c45000000000000000000000000000000000000000000815250600b019050604051809103902081565b60405180807f504f4f4c5f524547495354525900000000000000000000000000000000000000815250600d019050604051809103902081565b6000806000838152602001908152602001600020600301549050919050565b6000600654905090565b61090660008084815260200190815260200160002060030154610901611314565b610f4d565b61095b576040517f08c379a000000000000000000000000000000000000000000000000000000000815260040180806020018281038252602f815260200180611b74602f913960400191505060405180910390fd5b610965828261131c565b5050565b60006109aa60405180807f504f4f4c5f524547495354525900000000000000000000000000000000000000815250600d019050604051809103902033610f4d565b6109ff576040517f08c379a0000000000000000000000000000000000000000000000000000000008152600401808060200182810382526032815260200180611ba36032913960400191505060405180910390fd5b8160068190555060019050919050565b610a17611314565b73ffffffffffffffffffffffffffffffffffffffff168173ffffffffffffffffffffffffffffffffffffffff1614610a9a576040517f08c379a000000000000000000000000000000000000000000000000000000000815260040180806020018281038252602f815260200180611c05602f913960400191505060405180910390fd5b610aa48282611423565b5050565b60405180807f53555045525f41444d494e5f524f4c45000000000000000000000000000000008152506010019050604051809103902081565b60405180807f5445414d5f524f4c4500000000000000000000000000000000000000000000008152506009019050604051809103902081565b610b22611314565b73ffffffffffffffffffffffffffffffffffffffff16600260009054906101000a900473ffffffffffffffffffffffffffffffffffffffff1673ffffffffffffffffffffffffffffffffffffffff1614610be4576040517f08c379a00000000000000000000000000000000000000000000000000000000081526004018080602001828103825260208152602001807f4f776e61626c653a2063616c6c6572206973206e6f7420746865206f776e657281525060200191505060405180910390fd5b600260149054906101000a900460ff1615610c67576040517f08c379a000000000000000000000000000000000000000000000000000000000815260040180806020018281038252601e8152602001807f4d616e61676572526f6c653a20616c72656164792066696e616c697a6564000081525060200191505060405180910390fd5b6001600260146101000a81548160ff0219169083151502179055507f6823b073d48d6e3a7d385eeb601452d680e74bb46afe3255a7d778f3a9b1768160405160405180910390a1565b60405180807f524546455245525f524f4c450000000000000000000000000000000000000000815250600c019050604051809103902081565b6000610d2a60405180807f504f4f4c5f524547495354525900000000000000000000000000000000000000815250600d019050604051809103902033610f4d565b610d7f576040517f08c379a0000000000000000000000000000000000000000000000000000000008152600401808060200182810382526032815260200180611ba36032913960400191505060405180910390fd5b8160078190555060019050919050565b6000610d99611314565b73ffffffffffffffffffffffffffffffffffffffff16600260009054906101000a900473ffffffffffffffffffffffffffffffffffffffff1673ffffffffffffffffffffffffffffffffffffffff1614610e5b576040517f08c379a00000000000000000000000000000000000000000000000000000000081526004018080602001828103825260208152602001807f4f776e61626c653a2063616c6c6572206973206e6f7420746865206f776e657281525060200191505060405180910390fd5b600260149054906101000a900460ff1615610ede576040517f08c379a000000000000000000000000000000000000000000000000000000000815260040180806020018281038252601e8152602001807f4d616e61676572526f6c653a20616c72656164792066696e616c697a6564000081525060200191505060405180910390fd5b610ee88383611582565b6001905092915050565b6000600260009054906101000a900473ffffffffffffffffffffffffffffffffffffffff16905090565b6000610f458260008086815260200190815260200160002060000161159090919063ffffffff16565b905092915050565b6000610f76826000808681526020019081526020016000206000016115aa90919063ffffffff16565b905092915050565b60606001600083815260200190815260200160002080548060200260200160405190810160405280929190818152602001828054801561101357602002820191906000526020600020905b8160009054906101000a900473ffffffffffffffffffffffffffffffffffffffff1673ffffffffffffffffffffffffffffffffffffffff1681526020019060010190808311610fc9575b50505050509050919050565b6000801b81565b6000600754905090565b6000600854905090565b60405180807f535455525441505f5445414d5f524f4c450000000000000000000000000000008152506011019050604051809103902081565b60405180807f47454e4552414c5f504152544e45525f524f4c450000000000000000000000008152506014019050604051809103902081565b60006110cb6000808481526020019081526020016000206000016115da565b9050919050565b6000600554905090565b600061111d60405180807f504f4f4c5f524547495354525900000000000000000000000000000000000000815250600d019050604051809103902033610f4d565b611172576040517f08c379a0000000000000000000000000000000000000000000000000000000008152600401808060200182810382526032815260200180611ba36032913960400191505060405180910390fd5b8160058190555060019050919050565b6111a8600080848152602001908152602001600020600301546111a3611314565b610f4d565b6111fd576040517f08c379a0000000000000000000000000000000000000000000000000000000008152600401808060200182810382526030815260200180611bd56030913960400191505060405180910390fd5b6112078282611423565b5050565b600061124c60405180807f504f4f4c5f524547495354525900000000000000000000000000000000000000815250600d019050604051809103902033610f4d565b6112a1576040517f08c379a0000000000000000000000000000000000000000000000000000000008152600401808060200182810382526032815260200180611ba36032913960400191505060405180910390fd5b8160088190555060019050919050565b6000600360009054906101000a900473ffffffffffffffffffffffffffffffffffffffff16905090565b60405180807f4c494d495445445f504152544e45525f524f4c450000000000000000000000008152506014019050604051809103902081565b600033905090565b611343816000808581526020019081526020016000206000016115ef90919063ffffffff16565b1561141f5760016000838152602001908152602001600020819080600181540180825580915050600190039060005260206000200160009091909190916101000a81548173ffffffffffffffffffffffffffffffffffffffff021916908373ffffffffffffffffffffffffffffffffffffffff1602179055506113c4611314565b73ffffffffffffffffffffffffffffffffffffffff168173ffffffffffffffffffffffffffffffffffffffff16837f2f8788117e7eff1d82e926ec794901d17c78024a50270940304540a733656f0d60405160405180910390a45b5050565b61144a8160008085815260200190815260200160002060000161162090919063ffffffff16565b1561157e5760005b600160008481526020019081526020016000208054905081101561151a578173ffffffffffffffffffffffffffffffffffffffff166001600085815260200190815260200160002082815481106114a557fe5b9060005260206000200160009054906101000a900473ffffffffffffffffffffffffffffffffffffffff1673ffffffffffffffffffffffffffffffffffffffff16141561150d576115088160016000868152602001908152602001600020611651565b61151a565b8080600101915050611452565b50611523611314565b73ffffffffffffffffffffffffffffffffffffffff168173ffffffffffffffffffffffffffffffffffffffff16837ff6391f5c32d9c69d2a47ea670b442974b53935d1edc7fd64eb21e047a839171b60405160405180910390a45b5050565b61158c828261131c565b5050565b600061159f8360000183611745565b60001c905092915050565b60006115d2836000018373ffffffffffffffffffffffffffffffffffffffff1660001b6117c8565b905092915050565b60006115e8826000016117eb565b9050919050565b6000611618836000018373ffffffffffffffffffffffffffffffffffffffff1660001b846117fc565b905092915050565b6000611649836000018373ffffffffffffffffffffffffffffffffffffffff1660001b846118d2565b905092915050565b60008290505b60018280549050038110156117015781600182018154811061167557fe5b9060005260206000200160009054906101000a900473ffffffffffffffffffffffffffffffffffffffff168282815481106116ac57fe5b9060005260206000200160006101000a81548173ffffffffffffffffffffffffffffffffffffffff021916908373ffffffffffffffffffffffffffffffffffffffff1602179055508080600101915050611657565b508080548061170c57fe5b6001900381819060005260206000200160006101000a81549073ffffffffffffffffffffffffffffffffffffffff021916905590555050565b6000818360000180549050116117a6576040517f08c379a0000000000000000000000000000000000000000000000000000000008152600401808060200182810382526022815260200180611b526022913960400191505060405180910390fd5b8260000182815481106117b557fe5b9060005260206000200154905092915050565b600080836002016000848152602001908152602001600020541415905092915050565b600081600001805490509050919050565b600061180884846117c8565b6118c6578360000183908060018154018082558091505060019003906000526020600020016000909190919091505583600101829080600181540180825580915050600190039060005260206000200160009091909190916101000a81548173ffffffffffffffffffffffffffffffffffffffff021916908373ffffffffffffffffffffffffffffffffffffffff160217905550836000018054905084600201600085815260200190815260200160002081905550600190506118cb565b600090505b9392505050565b60008084600201600085815260200190815260200160002054905060008114611a50576000600182039050600060018760000180549050039050600087600001828154811061191d57fe5b906000526020600020015490508088600001848154811061193a57fe5b906000526020600020018190555060018301886002016000838152602001908152602001600020819055508760000180548061197257fe5b600190038181906000526020600020016000905590558760020160008881526020019081526020016000206000905560008090505b8860010180549050811015611a42578673ffffffffffffffffffffffffffffffffffffffff168960010182815481106119dc57fe5b9060005260206000200160009054906101000a900473ffffffffffffffffffffffffffffffffffffffff1673ffffffffffffffffffffffffffffffffffffffff161415611a3557611a30818a600101611a5d565b611a42565b80806001019150506119a7565b506001945050505050611a56565b60009150505b9392505050565b60008290505b6001828054905003811015611b0d57816001820181548110611a8157fe5b9060005260206000200160009054906101000a900473ffffffffffffffffffffffffffffffffffffffff16828281548110611ab857fe5b9060005260206000200160006101000a81548173ffffffffffffffffffffffffffffffffffffffff021916908373ffffffffffffffffffffffffffffffffffffffff1602179055508080600101915050611a63565b5080805480611b1857fe5b6001900381819060005260206000200160006101000a81549073ffffffffffffffffffffffffffffffffffffffff02191690559055505056fe456e756d657261626c655365743a20696e646578206f7574206f6620626f756e6473416363657373436f6e74726f6c3a2073656e646572206d75737420626520616e2061646d696e20746f206772616e74526f6c65733a2063616c6c657220646f6573206e6f7420686176652074686520706f6f6c20726567797374727920726f6c65416363657373436f6e74726f6c3a2073656e646572206d75737420626520616e2061646d696e20746f207265766f6b65416363657373436f6e74726f6c3a2063616e206f6e6c792072656e6f756e636520726f6c657320666f722073656c66a26469706673582212203eb486ede514c9c260d275f443b624513dce3cd11e1524acb7ee38119a0628ea64736f6c63430006000033416363657373436f6e74726f6c3a2073656e646572206d75737420626520616e2061646d696e20746f206772616e74456e756d657261626c655365743a20696e646578206f7574206f6620626f756e6473526f6c65733a2063616c6c657220646f6573206e6f742068617665207468652067656e6572616c20706172746e657220726f6c65416363657373436f6e74726f6c3a2073656e646572206d75737420626520616e2061646d696e20746f206772616e74506f6f6c52656769737472793a20706f6f6c207769746820746869732061646472657373206e6f7420657869737473506f6f6c52656769737472793a207468652073656e64657220646f6573206e6f742068617665207065726d697373696f6e20746f20757064617465416363657373436f6e74726f6c3a2073656e646572206d75737420626520616e2061646d696e20746f207265766f6b65506f6f6c52656769737472793a20706f6f6c20776974682074686973206164647265737320616c726561647920657869737473416363657373436f6e74726f6c3a2063616e206f6e6c792072656e6f756e636520726f6c657320666f722073656c66a26469706673582212204bb1a9689ed7a247e31c1e0288f19a742cf7af041997230633a0b11b00855e1764736f6c63430006000033",
  "source": "pragma solidity ^0.6.0;\n\nimport \"./interface/IPool.sol\";\n\nimport \"./access/Roles.sol\";\nimport \"./InvestmentPool.sol\";\n\nimport \"./utils/EnumerableSet.sol\";\n\ncontract PoolRegistry is Roles {\n    using EnumerableSet for EnumerableSet.AddressSet;\n\n    // Pool information\n    struct Pool {\n        address token;\n        uint256 locked;\n        uint256 rate;\n        uint256 interestFee;\n        uint256 anualPrecent;\n    }\n\n    // Collection of all pools\n    mapping(address => Pool) private _pools;\n    // Collection of all pool addresses\n    EnumerableSet.AddressSet private _addressesPools;\n\n    event CreatePool(address pool, address token, uint256 lock, uint256 rate, uint256 interestFee, uint256 anualPrecent);\n    event AddPool(address pool, address token, uint256 lock, uint256 rate, uint256 interestFee, uint256 anualPrecent);\n    event UpdatePool(address pool, uint256 lock, uint256 rate, uint256 interestFee, uint256 anualPrecent);\n\n    /**\n    * @dev Create new investment pool.\n    * @param token The address token contract for investment pool.\n    * @param locked The blocking period of assets.\n    * @param rate The address to query the wager of.\n    * @param interestFee The asset withdrawal commission.\n    * @param anualPrecent The annual percentage of tokens.\n    * @param superAdmin The An address that has privileges SUPER_ADMIN_ROLE.\n    * @param gPartner The An address that has privileges GENERAL_PARTNER_ROLE.\n    * @param lPartner The An address that has privileges LIMITED_PARTNER_ROLE.\n    * @param team The An address that has privileges TEAM_ROLE.\n    * @param sturtapTeam The An address that has privileges STURTAP_TEAM_ROLE.\n    * @param referer The An address that has privileges REFERER_ROLE.\n    * @return A boolean that indicates if the operation was successful.\n    */\n    function createPool(\n        address token,\n        uint256 locked,\n        uint256 rate,\n        uint256 interestFee,\n        uint256 anualPrecent,\n        address superAdmin,\n        address gPartner,\n        address lPartner,\n        address team,\n        address sturtapTeam,\n        address referer\n    ) public onlyGPartner returns (bool) {\n        InvestmentPool _poolContract = new InvestmentPool(\n            token,\n            locked,\n            rate,\n            interestFee,\n            anualPrecent,\n            superAdmin,\n            gPartner,\n            lPartner,\n            team,\n            sturtapTeam,\n            referer,\n            _msgSender()\n        );\n        address poolAddress = address(_poolContract);\n\n        _pools[poolAddress] = Pool(\n            token,\n            locked,\n            rate,\n            interestFee,\n            anualPrecent\n        );\n\n        _addressesPools.add(poolAddress);\n\n        emit CreatePool(poolAddress, token, locked, rate, interestFee, anualPrecent);\n        return true;\n    }\n    \n    /**\n    * @dev Add new smart contract investment pool.\n    * @param poolAddress The address investment pool.\n    * @return A boolean that indicates if the operation was successful.\n    */\n    function addPool(address poolAddress) public virtual returns (bool) {\n        require(poolAddress != address(0), \"PoolRegistry: pool zero address\");\n        require(!_addressesPools.contains(poolAddress), \"PoolRegistry: pool with this address already exists\");\n\n        IPool poolContract = IPool(poolAddress);\n\n        require(poolContract.hasRole(GENERAL_PARTNER_ROLE, msg.sender), \"PoolRegistry: the sender does not have permission to update\");\n\n        address _token = poolContract.token();\n        require(_token != address(0), \"PoolRegistry: token zero address\");\n\n        uint256 _locked = poolContract.locked();\n        uint256 _rate = poolContract.rate();\n        uint256 _interestFee = poolContract.interestFee();\n        uint256 _anualPrecent = poolContract.anualPrecent();\n        \n        _pools[poolAddress] = Pool(\n                _token,\n                poolContract.locked(),\n                poolContract.rate(),\n                poolContract.interestFee(),\n                poolContract.anualPrecent()\n            );\n\n        _addressesPools.add(poolAddress);\n\n        emit AddPool(poolAddress, _token, _locked, _rate, _interestFee, _anualPrecent);\n        return true;\n    }\n\n    /**\n    * @dev Update smart contract investment pool.\n    * @param pool The address investment pool.\n    * @param lock The blocking period of assets.\n    * @param rate The address to query the wager of.\n    * @param interestFee The asset withdrawal commission.\n    * @param anualPrecent The annual percentage of tokens.\n    * @return A boolean that indicates if the operation was successful.\n    */\n    function updatePool(address pool, uint256 lock, uint256 rate, uint256 interestFee, uint256 anualPrecent) public virtual returns (bool) {\n        require(pool != address(0), \"PoolRegistry: pool zero address\");\n        require(_addressesPools.contains(pool), \"PoolRegistry: pool with this address not exists\");\n\n        IPool poolContract = IPool(pool);\n        \n        require(poolContract.hasRole(GENERAL_PARTNER_ROLE, msg.sender), \"PoolRegistry: the sender does not have permission to update\");\n        \n        poolContract.setLock(lock);\n        poolContract.setRate(rate);\n        poolContract.setInterestFee(interestFee);\n        poolContract.setAnnualPrecent(anualPrecent);\n        \n        _pools[pool].locked = lock;\n        _pools[pool].rate = rate;\n        _pools[pool].interestFee = interestFee;\n        _pools[pool].anualPrecent = anualPrecent;\n        \n        emit UpdatePool(pool, lock, rate, interestFee, anualPrecent);\n        return true;\n    }\n\n    /**\n    * @param pool The address investment pool.\n    */\n    function getPollInfo(address pool) public view returns(address token, uint256 lock, uint256 rate, uint256 interestFee, uint256 anualPrecent) {\n        require(pool != address(0), \"PoolRegistry: pool zero address\");\n        require(_addressesPools.contains(pool), \"PoolRegistry: pool with this address not exists\");\n        \n        return (\n            _pools[pool].token,\n            _pools[pool].locked,\n            _pools[pool].rate,\n            _pools[pool].interestFee,\n            _pools[pool].anualPrecent\n            );\n    }\n    \n    /**\n    * @return the all investment pool addresses.\n    */\n    function getPools() public view returns (address[] memory) {\n        return _addressesPools.collection();\n    }\n}",
  "sourcePath": "/home/mitgen/Private Projects/DeFi/poolRegistry/contracts/PoolRegistry.sol",
  "compiler": {
    "name": "solc",
    "version": "0.6.0+commit.26b70077.Emscripten.clang"
  },
  "schemaVersion": "3.2.3",
  "updatedAt": "2020-12-07T17:56:45.953Z",
  "networkType": "ethereum",
  "devdoc": {
    "methods": {
      "addAdmin(bytes32,address)": {
        "details": "Create and ading new role.",
        "params": {
          "account": "account for adding to the role.",
          "role": "role account."
        }
      },
      "addPool(address)": {
        "details": "Add new smart contract investment pool.",
        "params": {
          "poolAddress": "The address investment pool."
        },
        "returns": {
          "_0": "A boolean that indicates if the operation was successful."
        }
      },
      "createPool(address,uint256,uint256,uint256,uint256,address,address,address,address,address,address)": {
        "details": "Create new investment pool.",
        "params": {
          "anualPrecent": "The annual percentage of tokens.",
          "gPartner": "The An address that has privileges GENERAL_PARTNER_ROLE.",
          "interestFee": "The asset withdrawal commission.",
          "lPartner": "The An address that has privileges LIMITED_PARTNER_ROLE.",
          "locked": "The blocking period of assets.",
          "rate": "The address to query the wager of.",
          "referer": "The An address that has privileges REFERER_ROLE.",
          "sturtapTeam": "The An address that has privileges STURTAP_TEAM_ROLE.",
          "superAdmin": "The An address that has privileges SUPER_ADMIN_ROLE.",
          "team": "The An address that has privileges TEAM_ROLE.",
          "token": "The address token contract for investment pool."
        },
        "returns": {
          "_0": "A boolean that indicates if the operation was successful."
        }
      },
      "finalize()": {
        "details": "Block adding admins."
      },
      "getMembersRole(bytes32)": {
        "details": "Returns the admin role that controls `role`. See {grantRole} and {revokeRole}.     * To change a role's admin, use {_setRoleAdmin}."
      },
      "getPollInfo(address)": {
        "params": {
          "pool": "The address investment pool."
        }
      },
      "getRoleAdmin(bytes32)": {
        "details": "Returns the admin role that controls `role`. See {grantRole} and {revokeRole}.     * To change a role's admin, use {_setRoleAdmin}."
      },
      "getRoleMember(bytes32,uint256)": {
        "details": "Returns one of the accounts that have `role`. `index` must be a value between 0 and {getRoleMemberCount}, non-inclusive.     * Role bearers are not sorted in any particular way, and their ordering may change at any point.     * WARNING: When using {getRoleMember} and {getRoleMemberCount}, make sure you perform all queries on the same block. See the following https://forum.openzeppelin.com/t/iterating-over-elements-on-enumerableset-in-openzeppelin-contracts/2296[forum post] for more information."
      },
      "getRoleMemberCount(bytes32)": {
        "details": "Returns the number of accounts that have `role`. Can be used together with {getRoleMember} to enumerate all bearers of a role."
      },
      "grantRole(bytes32,address)": {
        "details": "Grants `role` to `account`.     * If `account` had not been already granted `role`, emits a {RoleGranted} event.     * Requirements:     * - the caller must have ``role``'s admin role."
      },
      "hasRole(bytes32,address)": {
        "details": "Returns `true` if `account` has been granted `role`."
      },
      "owner()": {
        "details": "Returns the address of the current owner."
      },
      "renounceRole(bytes32,address)": {
        "details": "Revokes `role` from the calling account.     * Roles are often managed via {grantRole} and {revokeRole}: this function's purpose is to provide a mechanism for accounts to lose their privileges if they are compromised (such as when a trusted device is misplaced).     * If the calling account had been granted `role`, emits a {RoleRevoked} event.     * Requirements:     * - the caller must be `account`."
      },
      "revokeRole(bytes32,address)": {
        "details": "Revokes `role` from `account`.     * If `account` had been granted `role`, emits a {RoleRevoked} event.     * Requirements:     * - the caller must have ``role``'s admin role."
      },
      "updatePool(address,uint256,uint256,uint256,uint256)": {
        "details": "Update smart contract investment pool.",
        "params": {
          "anualPrecent": "The annual percentage of tokens.",
          "interestFee": "The asset withdrawal commission.",
          "lock": "The blocking period of assets.",
          "pool": "The address investment pool.",
          "rate": "The address to query the wager of."
        },
        "returns": {
          "_0": "A boolean that indicates if the operation was successful."
        }
      }
    }
  },
  "userdoc": {
    "methods": {}
  }
}