{
  "contractName": "IRoleModel",
  "abi": [
    {
      "constant": true,
      "inputs": [],
      "name": "ORACLE_ROLE",
      "outputs": [
        {
          "name": "",
          "type": "bytes32"
        }
      ],
      "payable": false,
      "stateMutability": "view",
      "type": "function"
    },
    {
      "constant": true,
      "inputs": [],
      "name": "TEAM_ROLE",
      "outputs": [
        {
          "name": "",
          "type": "bytes32"
        }
      ],
      "payable": false,
      "stateMutability": "view",
      "type": "function"
    },
    {
      "constant": true,
      "inputs": [],
      "name": "REFERER_ROLE",
      "outputs": [
        {
          "name": "",
          "type": "bytes32"
        }
      ],
      "payable": false,
      "stateMutability": "view",
      "type": "function"
    },
    {
      "constant": true,
      "inputs": [],
      "name": "STURTAP_TEAM_ROLE",
      "outputs": [
        {
          "name": "",
          "type": "bytes32"
        }
      ],
      "payable": false,
      "stateMutability": "view",
      "type": "function"
    }
  ],
  "bytecode": "0x608060405234801561001057600080fd5b50610243806100206000396000f300608060405260043610610062576000357c0100000000000000000000000000000000000000000000000000000000900463ffffffff16806307e2cea51461006757806349d5e6041461009a5780635ac8b005146100cd578063ba12d08714610100575b600080fd5b34801561007357600080fd5b5061007c610133565b60405180826000191660001916815260200191505060405180910390f35b3480156100a657600080fd5b506100af61016c565b60405180826000191660001916815260200191505060405180910390f35b3480156100d957600080fd5b506100e26101a5565b60405180826000191660001916815260200191505060405180910390f35b34801561010c57600080fd5b506101156101de565b60405180826000191660001916815260200191505060405180910390f35b60405180807f4f5241434c455f524f4c45000000000000000000000000000000000000000000815250600b019050604051809103902081565b60405180807f5445414d5f524f4c4500000000000000000000000000000000000000000000008152506009019050604051809103902081565b60405180807f524546455245525f524f4c450000000000000000000000000000000000000000815250600c019050604051809103902081565b60405180807f535455525441505f5445414d5f524f4c4500000000000000000000000000000081525060110190506040518091039020815600a165627a7a723058201ec7b8fb3b1541909004ba115b056f64180b0beab0b0690da75427e440f76c8d0029",
  "source": "pragma solidity ^0.4.25;\n\ncontract IRoleModel {\n\n  /**\n  * SUPER_ADMIN_ROLE - The Role controls adding a new wallet addresses to according roles arrays\n  */\n  bytes32 constant SUPER_ADMIN_ROLE = keccak256(\"SUPER_ADMIN_ROLE\");\n\n  /**\n  * GENERAL_PARTNER_ROLE - The Role controls the approval process to transfer money inside\n  *               investment pools and control Limited Partners adding, investment\n  *               pools adding\n  */\n  bytes32 constant GENERAL_PARTNER_ROLE = keccak256(\"GENERAL_PARTNER_ROLE\");\n\n  /**\n  * LIMITED_PARTNER_ROLE - The Role allows the wallet of LP to invest money in the\n  *               investment pool and withdraw money from there (access to limited pools)\n  */\n  bytes32 constant LIMITED_PARTNER_ROLE = keccak256(\"LIMITED_PARTNER_ROLE\");\n\n  /**\n  * TEAM_ROLE - Role that exposes access to wallets (the team member), were\n  *           distributed all fees, fines, and success premiums from investment pools\n  */\n  bytes32 public constant TEAM_ROLE = keccak256(\"TEAM_ROLE\");\n\n  /**\n  * STURTAP_TEAM_ROLE - Role that exposes access to wallets which can withdraw\n  *              investor’s money after convert to tokens/NFT assets (access tolimited pools)\n  */\n  bytes32 public constant STURTAP_TEAM_ROLE = keccak256(\"STURTAP_TEAM_ROLE\");\n\n  /**\n  * REFERER_ROLE - Registry of wallets, which connects LP with their Referrer to sent\n  *               there a part of the fees.\n  */\n  bytes32 public constant REFERER_ROLE = keccak256(\"REFERER_ROLE\");\n\n  /**\n  * ORACLE_ROLE - Registry of wallets, which connects LP with their Referrer to sent\n  *               there a part of the fees.\n  */\n  bytes32 public constant ORACLE_ROLE = keccak256(\"ORACLE_ROLE\");\n\n  // function getRole_() view internal returns(uint8);\n  // function getRole_(address _for) view internal returns(uint8);\n  // function getRoleAddress_(uint8 _for) view internal returns(address);\n}",
  "sourcePath": "/home/mitgen/Private Projects/American2/contracts/interface/IRoleModel.sol",
  "compiler": {
    "name": "solc",
    "version": "0.4.25+commit.59dbf8f1.Emscripten.clang"
  },
  "schemaVersion": "3.2.3",
  "updatedAt": "2020-12-03T19:38:19.718Z",
  "devdoc": {
    "methods": {}
  },
  "userdoc": {
    "methods": {}
  }
}