{
  "contractName": "TestKeysRoles",
  "abi": [
    {
      "constant": true,
      "inputs": [],
      "name": "ORACLE_ROLE",
      "outputs": [
        {
          "name": "",
          "type": "bytes32"
        }
      ],
      "payable": false,
      "stateMutability": "view",
      "type": "function"
    },
    {
      "constant": true,
      "inputs": [
        {
          "name": "role",
          "type": "bytes32"
        }
      ],
      "name": "getRoleAdmin",
      "outputs": [
        {
          "name": "",
          "type": "bytes32"
        }
      ],
      "payable": false,
      "stateMutability": "view",
      "type": "function"
    },
    {
      "constant": false,
      "inputs": [
        {
          "name": "role",
          "type": "bytes32"
        },
        {
          "name": "account",
          "type": "address"
        }
      ],
      "name": "grantRole",
      "outputs": [],
      "payable": false,
      "stateMutability": "nonpayable",
      "type": "function"
    },
    {
      "constant": false,
      "inputs": [
        {
          "name": "role",
          "type": "bytes32"
        },
        {
          "name": "account",
          "type": "address"
        }
      ],
      "name": "renounceRole",
      "outputs": [],
      "payable": false,
      "stateMutability": "nonpayable",
      "type": "function"
    },
    {
      "constant": true,
      "inputs": [],
      "name": "TEAM_ROLE",
      "outputs": [
        {
          "name": "",
          "type": "bytes32"
        }
      ],
      "payable": false,
      "stateMutability": "view",
      "type": "function"
    },
    {
      "constant": false,
      "inputs": [],
      "name": "finalize",
      "outputs": [],
      "payable": false,
      "stateMutability": "nonpayable",
      "type": "function"
    },
    {
      "constant": true,
      "inputs": [],
      "name": "REFERER_ROLE",
      "outputs": [
        {
          "name": "",
          "type": "bytes32"
        }
      ],
      "payable": false,
      "stateMutability": "view",
      "type": "function"
    },
    {
      "constant": false,
      "inputs": [
        {
          "name": "role",
          "type": "bytes32"
        },
        {
          "name": "account",
          "type": "address"
        }
      ],
      "name": "addAdmin",
      "outputs": [
        {
          "name": "",
          "type": "bool"
        }
      ],
      "payable": false,
      "stateMutability": "nonpayable",
      "type": "function"
    },
    {
      "constant": false,
      "inputs": [],
      "name": "renounceOwnership",
      "outputs": [],
      "payable": false,
      "stateMutability": "nonpayable",
      "type": "function"
    },
    {
      "constant": true,
      "inputs": [],
      "name": "owner",
      "outputs": [
        {
          "name": "",
          "type": "address"
        }
      ],
      "payable": false,
      "stateMutability": "view",
      "type": "function"
    },
    {
      "constant": true,
      "inputs": [],
      "name": "isOwner",
      "outputs": [
        {
          "name": "",
          "type": "bool"
        }
      ],
      "payable": false,
      "stateMutability": "view",
      "type": "function"
    },
    {
      "constant": true,
      "inputs": [
        {
          "name": "role",
          "type": "bytes32"
        },
        {
          "name": "index",
          "type": "uint256"
        }
      ],
      "name": "getRoleMember",
      "outputs": [
        {
          "name": "",
          "type": "address"
        }
      ],
      "payable": false,
      "stateMutability": "view",
      "type": "function"
    },
    {
      "constant": true,
      "inputs": [
        {
          "name": "role",
          "type": "bytes32"
        },
        {
          "name": "account",
          "type": "address"
        }
      ],
      "name": "hasRole",
      "outputs": [
        {
          "name": "",
          "type": "bool"
        }
      ],
      "payable": false,
      "stateMutability": "view",
      "type": "function"
    },
    {
      "constant": true,
      "inputs": [],
      "name": "DEFAULT_ADMIN_ROLE",
      "outputs": [
        {
          "name": "",
          "type": "bytes32"
        }
      ],
      "payable": false,
      "stateMutability": "view",
      "type": "function"
    },
    {
      "constant": true,
      "inputs": [],
      "name": "STURTAP_TEAM_ROLE",
      "outputs": [
        {
          "name": "",
          "type": "bytes32"
        }
      ],
      "payable": false,
      "stateMutability": "view",
      "type": "function"
    },
    {
      "constant": true,
      "inputs": [
        {
          "name": "role",
          "type": "bytes32"
        }
      ],
      "name": "getRoleMemberCount",
      "outputs": [
        {
          "name": "",
          "type": "uint256"
        }
      ],
      "payable": false,
      "stateMutability": "view",
      "type": "function"
    },
    {
      "constant": false,
      "inputs": [
        {
          "name": "role",
          "type": "bytes32"
        },
        {
          "name": "account",
          "type": "address"
        }
      ],
      "name": "revokeRole",
      "outputs": [],
      "payable": false,
      "stateMutability": "nonpayable",
      "type": "function"
    },
    {
      "constant": false,
      "inputs": [
        {
          "name": "newOwner",
          "type": "address"
        }
      ],
      "name": "transferOwnership",
      "outputs": [],
      "payable": false,
      "stateMutability": "nonpayable",
      "type": "function"
    },
    {
      "anonymous": false,
      "inputs": [],
      "name": "Finalized",
      "type": "event"
    },
    {
      "anonymous": false,
      "inputs": [
        {
          "indexed": true,
          "name": "previousOwner",
          "type": "address"
        },
        {
          "indexed": true,
          "name": "newOwner",
          "type": "address"
        }
      ],
      "name": "OwnershipTransferred",
      "type": "event"
    },
    {
      "anonymous": false,
      "inputs": [
        {
          "indexed": true,
          "name": "role",
          "type": "bytes32"
        },
        {
          "indexed": true,
          "name": "account",
          "type": "address"
        },
        {
          "indexed": true,
          "name": "sender",
          "type": "address"
        }
      ],
      "name": "RoleGranted",
      "type": "event"
    },
    {
      "anonymous": false,
      "inputs": [
        {
          "indexed": true,
          "name": "role",
          "type": "bytes32"
        },
        {
          "indexed": true,
          "name": "account",
          "type": "address"
        },
        {
          "indexed": true,
          "name": "sender",
          "type": "address"
        }
      ],
      "name": "RoleRevoked",
      "type": "event"
    },
    {
      "constant": false,
      "inputs": [],
      "name": "changeSuperAdmin",
      "outputs": [
        {
          "name": "",
          "type": "bool"
        }
      ],
      "payable": false,
      "stateMutability": "nonpayable",
      "type": "function"
    },
    {
      "constant": false,
      "inputs": [],
      "name": "changeGPartner",
      "outputs": [
        {
          "name": "",
          "type": "bool"
        }
      ],
      "payable": false,
      "stateMutability": "nonpayable",
      "type": "function"
    },
    {
      "constant": false,
      "inputs": [],
      "name": "changeLPartner",
      "outputs": [
        {
          "name": "",
          "type": "bool"
        }
      ],
      "payable": false,
      "stateMutability": "nonpayable",
      "type": "function"
    },
    {
      "constant": false,
      "inputs": [],
      "name": "changeTeam",
      "outputs": [
        {
          "name": "",
          "type": "bool"
        }
      ],
      "payable": false,
      "stateMutability": "nonpayable",
      "type": "function"
    },
    {
      "constant": false,
      "inputs": [],
      "name": "changeSturtapTeam",
      "outputs": [
        {
          "name": "",
          "type": "bool"
        }
      ],
      "payable": false,
      "stateMutability": "nonpayable",
      "type": "function"
    },
    {
      "constant": false,
      "inputs": [],
      "name": "changeRefererRole",
      "outputs": [
        {
          "name": "",
          "type": "bool"
        }
      ],
      "payable": false,
      "stateMutability": "nonpayable",
      "type": "function"
    },
    {
      "constant": false,
      "inputs": [],
      "name": "changeMultipleRole",
      "outputs": [
        {
          "name": "",
          "type": "bool"
        }
      ],
      "payable": false,
      "stateMutability": "nonpayable",
      "type": "function"
    },
    {
      "constant": true,
      "inputs": [],
      "name": "getSuperAdminValue",
      "outputs": [
        {
          "name": "",
          "type": "uint256"
        }
      ],
      "payable": false,
      "stateMutability": "view",
      "type": "function"
    },
    {
      "constant": true,
      "inputs": [],
      "name": "getGPartnerValue",
      "outputs": [
        {
          "name": "",
          "type": "uint256"
        }
      ],
      "payable": false,
      "stateMutability": "view",
      "type": "function"
    },
    {
      "constant": true,
      "inputs": [],
      "name": "getLPartnerValue",
      "outputs": [
        {
          "name": "",
          "type": "uint256"
        }
      ],
      "payable": false,
      "stateMutability": "view",
      "type": "function"
    },
    {
      "constant": true,
      "inputs": [],
      "name": "getTeamValue",
      "outputs": [
        {
          "name": "",
          "type": "uint256"
        }
      ],
      "payable": false,
      "stateMutability": "view",
      "type": "function"
    },
    {
      "constant": true,
      "inputs": [],
      "name": "getStartapTeamValue",
      "outputs": [
        {
          "name": "",
          "type": "uint256"
        }
      ],
      "payable": false,
      "stateMutability": "view",
      "type": "function"
    },
    {
      "constant": true,
      "inputs": [],
      "name": "getRefererValue",
      "outputs": [
        {
          "name": "",
          "type": "uint256"
        }
      ],
      "payable": false,
      "stateMutability": "view",
      "type": "function"
    },
    {
      "constant": true,
      "inputs": [],
      "name": "getMultipleRole",
      "outputs": [
        {
          "name": "",
          "type": "uint256"
        }
      ],
      "payable": false,
      "stateMutability": "view",
      "type": "function"
    }
  ],
  "bytecode": "0x60806040526000600160146101000a81548160ff021916908315150217905550600060025560006003556000600455600060055560006006556000600755600060085533600160006101000a81548173ffffffffffffffffffffffffffffffffffffffff021916908373ffffffffffffffffffffffffffffffffffffffff160217905550600160009054906101000a900473ffffffffffffffffffffffffffffffffffffffff1673ffffffffffffffffffffffffffffffffffffffff16600073ffffffffffffffffffffffffffffffffffffffff167f8be0079c531659141344cd1fd0a4f28419497f9722a3daafe3b4186f6b6457e060405160405180910390a36200018560405180807f47454e4552414c5f504152544e45525f524f4c450000000000000000000000008152506014019050604051809103902060405180807f53555045525f41444d494e5f524f4c45000000000000000000000000000000008152506010019050604051809103902062000424640100000000026401000000009004565b6200020a60405180807f4c494d495445445f504152544e45525f524f4c450000000000000000000000008152506014019050604051809103902060405180807f53555045525f41444d494e5f524f4c45000000000000000000000000000000008152506010019050604051809103902062000424640100000000026401000000009004565b6200028f60405180807f5445414d5f524f4c4500000000000000000000000000000000000000000000008152506009019050604051809103902060405180807f53555045525f41444d494e5f524f4c45000000000000000000000000000000008152506010019050604051809103902062000424640100000000026401000000009004565b6200031460405180807f535455525441505f5445414d5f524f4c450000000000000000000000000000008152506011019050604051809103902060405180807f53555045525f41444d494e5f524f4c45000000000000000000000000000000008152506010019050604051809103902062000424640100000000026401000000009004565b6200039960405180807f524546455245525f524f4c450000000000000000000000000000000000000000815250600c019050604051809103902060405180807f53555045525f41444d494e5f524f4c45000000000000000000000000000000008152506010019050604051809103902062000424640100000000026401000000009004565b6200041e60405180807f4f5241434c455f524f4c45000000000000000000000000000000000000000000815250600b019050604051809103902060405180807f53555045525f41444d494e5f524f4c45000000000000000000000000000000008152506010019050604051809103902062000424640100000000026401000000009004565b6200044e565b80600080846000191660001916815260200190815260200160002060020181600019169055505050565b6120ee806200045e6000396000f300608060405260043610610196576000357c0100000000000000000000000000000000000000000000000000000000900463ffffffff16806307e2cea51461019b578063122d39dd146101ce578063248a9ca3146101f957806325f0a3ec146102465780632f2ff15d1461027557806333e12dae146102c657806335abcc47146102f157806336568abe1461032057806349d5e604146103715780634bb278f3146103a45780635ac8b005146103bb5780636419bcdb146103ee5780636d818b5214610457578063715018a61461048657806379a2a18b1461049d57806381fa6c71146104cc5780638da5cb5b146104f75780638f32d59b1461054e5780639010d07c1461057d57806391d14854146105f857806399ed7cd9146106615780639a8b03d21461068c578063a217fddf146106bb578063abc6a23c146106ee578063b5e7480f14610719578063ba12d08714610744578063ca15c87314610777578063cfc0b80f146107bc578063d213f28e146107eb578063d547741f14610816578063e531af6014610867578063f2fde38b14610896575b600080fd5b3480156101a757600080fd5b506101b06108d9565b60405180826000191660001916815260200191505060405180910390f35b3480156101da57600080fd5b506101e3610912565b6040518082815260200191505060405180910390f35b34801561020557600080fd5b50610228600480360381019080803560001916906020019092919050505061091c565b60405180826000191660001916815260200191505060405180910390f35b34801561025257600080fd5b5061025b610943565b604051808215151515815260200191505060405180910390f35b34801561028157600080fd5b506102c46004803603810190808035600019169060200190929190803573ffffffffffffffffffffffffffffffffffffffff169060200190929190505050610a41565b005b3480156102d257600080fd5b506102db610b10565b6040518082815260200191505060405180910390f35b3480156102fd57600080fd5b50610306610b1a565b604051808215151515815260200191505060405180910390f35b34801561032c57600080fd5b5061036f6004803603810190808035600019169060200190929190803573ffffffffffffffffffffffffffffffffffffffff169060200190929190505050610c18565b005b34801561037d57600080fd5b50610386610cef565b60405180826000191660001916815260200191505060405180910390f35b3480156103b057600080fd5b506103b9610d28565b005b3480156103c757600080fd5b506103d0610e71565b60405180826000191660001916815260200191505060405180910390f35b3480156103fa57600080fd5b5061043d6004803603810190808035600019169060200190929190803573ffffffffffffffffffffffffffffffffffffffff169060200190929190505050610eaa565b604051808215151515815260200191505060405180910390f35b34801561046357600080fd5b5061046c610fc1565b604051808215151515815260200191505060405180910390f35b34801561049257600080fd5b5061049b6110bf565b005b3480156104a957600080fd5b506104b26111fc565b604051808215151515815260200191505060405180910390f35b3480156104d857600080fd5b506104e16113d3565b6040518082815260200191505060405180910390f35b34801561050357600080fd5b5061050c6113dd565b604051808273ffffffffffffffffffffffffffffffffffffffff1673ffffffffffffffffffffffffffffffffffffffff16815260200191505060405180910390f35b34801561055a57600080fd5b50610563611407565b604051808215151515815260200191505060405180910390f35b34801561058957600080fd5b506105b660048036038101908080356000191690602001909291908035906020019092919050505061145f565b604051808273ffffffffffffffffffffffffffffffffffffffff1673ffffffffffffffffffffffffffffffffffffffff16815260200191505060405180910390f35b34801561060457600080fd5b506106476004803603810190808035600019169060200190929190803573ffffffffffffffffffffffffffffffffffffffff169060200190929190505050611498565b604051808215151515815260200191505060405180910390f35b34801561066d57600080fd5b506106766114d1565b6040518082815260200191505060405180910390f35b34801561069857600080fd5b506106a16114db565b604051808215151515815260200191505060405180910390f35b3480156106c757600080fd5b506106d06115d9565b60405180826000191660001916815260200191505060405180910390f35b3480156106fa57600080fd5b506107036115e1565b6040518082815260200191505060405180910390f35b34801561072557600080fd5b5061072e6115eb565b6040518082815260200191505060405180910390f35b34801561075057600080fd5b506107596115f5565b60405180826000191660001916815260200191505060405180910390f35b34801561078357600080fd5b506107a6600480360381019080803560001916906020019092919050505061162e565b6040518082815260200191505060405180910390f35b3480156107c857600080fd5b506107d161165c565b604051808215151515815260200191505060405180910390f35b3480156107f757600080fd5b5061080061175a565b6040518082815260200191505060405180910390f35b34801561082257600080fd5b506108656004803603810190808035600019169060200190929190803573ffffffffffffffffffffffffffffffffffffffff169060200190929190505050611764565b005b34801561087357600080fd5b5061087c611833565b604051808215151515815260200191505060405180910390f35b3480156108a257600080fd5b506108d7600480360381019080803573ffffffffffffffffffffffffffffffffffffffff169060200190929190505050611931565b005b60405180807f4f5241434c455f524f4c45000000000000000000000000000000000000000000815250600b019050604051809103902081565b6000600454905090565b60008060008360001916600019168152602001908152602001600020600201549050919050565b600061098460405180807f535455525441505f5445414d5f524f4c450000000000000000000000000000008152506011019050604051809103902033611498565b1515610a1e576040517f08c379a00000000000000000000000000000000000000000000000000000000081526004018080602001828103825260318152602001807f526f6c65733a2063616c6c657220646f6573206e6f742068617665207468652081526020017f73747572746170207465616d20726f6c6500000000000000000000000000000081525060400191505060405180910390fd5b610a3460016006546119b990919063ffffffff16565b6006819055506001905090565b610a6860008084600019166000191681526020019081526020016000206002015433611498565b1515610b02576040517f08c379a000000000000000000000000000000000000000000000000000000000815260040180806020018281038252602f8152602001807f416363657373436f6e74726f6c3a2073656e646572206d75737420626520616e81526020017f2061646d696e20746f206772616e74000000000000000000000000000000000081525060400191505060405180910390fd5b610b0c8282611a43565b5050565b6000600254905090565b6000610b5b60405180807f5445414d5f524f4c4500000000000000000000000000000000000000000000008152506009019050604051809103902033611498565b1515610bf5576040517f08c379a00000000000000000000000000000000000000000000000000000000081526004018080602001828103825260298152602001807f526f6c65733a2063616c6c657220646f6573206e6f742068617665207468652081526020017f7465616d20726f6c65000000000000000000000000000000000000000000000081525060400191505060405180910390fd5b610c0b60016005546119b990919063ffffffff16565b6005819055506001905090565b3373ffffffffffffffffffffffffffffffffffffffff168173ffffffffffffffffffffffffffffffffffffffff16141515610ce1576040517f08c379a000000000000000000000000000000000000000000000000000000000815260040180806020018281038252602f8152602001807f416363657373436f6e74726f6c3a2063616e206f6e6c792072656e6f756e636581526020017f20726f6c657320666f722073656c66000000000000000000000000000000000081525060400191505060405180910390fd5b610ceb8282611adb565b5050565b60405180807f5445414d5f524f4c4500000000000000000000000000000000000000000000008152506009019050604051809103902081565b610d30611407565b1515610da4576040517f08c379a00000000000000000000000000000000000000000000000000000000081526004018080602001828103825260208152602001807f4f776e61626c653a2063616c6c6572206973206e6f7420746865206f776e657281525060200191505060405180910390fd5b600160149054906101000a900460ff16151515610e29576040517f08c379a000000000000000000000000000000000000000000000000000000000815260040180806020018281038252601e8152602001807f4d616e61676572526f6c653a20616c72656164792066696e616c697a6564000081525060200191505060405180910390fd5b60018060146101000a81548160ff0219169083151502179055507f6823b073d48d6e3a7d385eeb601452d680e74bb46afe3255a7d778f3a9b1768160405160405180910390a1565b60405180807f524546455245525f524f4c450000000000000000000000000000000000000000815250600c019050604051809103902081565b6000610eb4611407565b1515610f28576040517f08c379a00000000000000000000000000000000000000000000000000000000081526004018080602001828103825260208152602001807f4f776e61626c653a2063616c6c6572206973206e6f7420746865206f776e657281525060200191505060405180910390fd5b600160149054906101000a900460ff16151515610fad576040517f08c379a000000000000000000000000000000000000000000000000000000000815260040180806020018281038252601e8152602001807f4d616e61676572526f6c653a20616c72656164792066696e616c697a6564000081525060200191505060405180910390fd5b610fb78383611b73565b6001905092915050565b600061100260405180807f47454e4552414c5f504152544e45525f524f4c450000000000000000000000008152506014019050604051809103902033611498565b151561109c576040517f08c379a00000000000000000000000000000000000000000000000000000000081526004018080602001828103825260348152602001807f526f6c65733a2063616c6c657220646f6573206e6f742068617665207468652081526020017f67656e6572616c20706172746e657220726f6c6500000000000000000000000081525060400191505060405180910390fd5b6110b260016003546119b990919063ffffffff16565b6003819055506001905090565b6110c7611407565b151561113b576040517f08c379a00000000000000000000000000000000000000000000000000000000081526004018080602001828103825260208152602001807f4f776e61626c653a2063616c6c6572206973206e6f7420746865206f776e657281525060200191505060405180910390fd5b600073ffffffffffffffffffffffffffffffffffffffff16600160009054906101000a900473ffffffffffffffffffffffffffffffffffffffff1673ffffffffffffffffffffffffffffffffffffffff167f8be0079c531659141344cd1fd0a4f28419497f9722a3daafe3b4186f6b6457e060405160405180910390a36000600160006101000a81548173ffffffffffffffffffffffffffffffffffffffff021916908373ffffffffffffffffffffffffffffffffffffffff160217905550565b600061123d60405180807f53555045525f41444d494e5f524f4c45000000000000000000000000000000008152506010019050604051809103902033611498565b15156112d7576040517f08c379a00000000000000000000000000000000000000000000000000000000081526004018080602001828103825260358152602001807f526f6c65733a2063616c6c657220646f6573206e6f742068617665207468652081526020017f73757065722061646d696e20726f6c6520726f6c65000000000000000000000081525060400191505060405180910390fd5b61131660405180807f47454e4552414c5f504152544e45525f524f4c450000000000000000000000008152506014019050604051809103902033611498565b15156113b0576040517f08c379a00000000000000000000000000000000000000000000000000000000081526004018080602001828103825260348152602001807f526f6c65733a2063616c6c657220646f6573206e6f742068617665207468652081526020017f67656e6572616c20706172746e657220726f6c6500000000000000000000000081525060400191505060405180910390fd5b6113c660016008546119b990919063ffffffff16565b6008819055506001905090565b6000600554905090565b6000600160009054906101000a900473ffffffffffffffffffffffffffffffffffffffff16905090565b6000600160009054906101000a900473ffffffffffffffffffffffffffffffffffffffff1673ffffffffffffffffffffffffffffffffffffffff163373ffffffffffffffffffffffffffffffffffffffff1614905090565b6000611490826000808660001916600019168152602001908152602001600020600001611b8190919063ffffffff16565b905092915050565b60006114c9826000808660001916600019168152602001908152602001600020600001611b9c90919063ffffffff16565b905092915050565b6000600354905090565b600061151c60405180807f524546455245525f524f4c450000000000000000000000000000000000000000815250600c019050604051809103902033611498565b15156115b6576040517f08c379a000000000000000000000000000000000000000000000000000000000815260040180806020018281038252602c8152602001807f526f6c65733a2063616c6c657220646f6573206e6f742068617665207468652081526020017f7265666572657220726f6c65000000000000000000000000000000000000000081525060400191505060405180910390fd5b6115cc60016007546119b990919063ffffffff16565b6007819055506001905090565b600060010281565b6000600654905090565b6000600854905090565b60405180807f535455525441505f5445414d5f524f4c450000000000000000000000000000008152506011019050604051809103902081565b60006116556000808460001916600019168152602001908152602001600020600001611bcc565b9050919050565b600061169d60405180807f4c494d495445445f504152544e45525f524f4c450000000000000000000000008152506014019050604051809103902033611498565b1515611737576040517f08c379a00000000000000000000000000000000000000000000000000000000081526004018080602001828103825260348152602001807f526f6c65733a2063616c6c657220646f6573206e6f742068617665207468652081526020017f6c696d6974656420706172746e657220726f6c6500000000000000000000000081525060400191505060405180910390fd5b61174d60016004546119b990919063ffffffff16565b6004819055506001905090565b6000600754905090565b61178b60008084600019166000191681526020019081526020016000206002015433611498565b1515611825576040517f08c379a00000000000000000000000000000000000000000000000000000000081526004018080602001828103825260308152602001807f416363657373436f6e74726f6c3a2073656e646572206d75737420626520616e81526020017f2061646d696e20746f207265766f6b650000000000000000000000000000000081525060400191505060405180910390fd5b61182f8282611adb565b5050565b600061187460405180807f53555045525f41444d494e5f524f4c45000000000000000000000000000000008152506010019050604051809103902033611498565b151561190e576040517f08c379a00000000000000000000000000000000000000000000000000000000081526004018080602001828103825260358152602001807f526f6c65733a2063616c6c657220646f6573206e6f742068617665207468652081526020017f73757065722061646d696e20726f6c6520726f6c65000000000000000000000081525060400191505060405180910390fd5b61192460016002546119b990919063ffffffff16565b6002819055506001905090565b611939611407565b15156119ad576040517f08c379a00000000000000000000000000000000000000000000000000000000081526004018080602001828103825260208152602001807f4f776e61626c653a2063616c6c6572206973206e6f7420746865206f776e657281525060200191505060405180910390fd5b6119b681611be1565b50565b6000808284019050838110151515611a39576040517f08c379a000000000000000000000000000000000000000000000000000000000815260040180806020018281038252601b8152602001807f536166654d6174683a206164646974696f6e206f766572666c6f77000000000081525060200191505060405180910390fd5b8091505092915050565b611a72816000808560001916600019168152602001908152602001600020600001611d6c90919063ffffffff16565b15611ad7573373ffffffffffffffffffffffffffffffffffffffff168173ffffffffffffffffffffffffffffffffffffffff1683600019167f2f8788117e7eff1d82e926ec794901d17c78024a50270940304540a733656f0d60405160405180910390a45b5050565b611b0a816000808560001916600019168152602001908152602001600020600001611d9c90919063ffffffff16565b15611b6f573373ffffffffffffffffffffffffffffffffffffffff168173ffffffffffffffffffffffffffffffffffffffff1683600019167ff6391f5c32d9c69d2a47ea670b442974b53935d1edc7fd64eb21e047a839171b60405160405180910390a45b5050565b611b7d8282611a43565b5050565b6000611b908360000183611dcc565b60019004905092915050565b6000611bc4836000018373ffffffffffffffffffffffffffffffffffffffff16600102611e96565b905092915050565b6000611bda82600001611ec1565b9050919050565b600073ffffffffffffffffffffffffffffffffffffffff168173ffffffffffffffffffffffffffffffffffffffff1614151515611cac576040517f08c379a00000000000000000000000000000000000000000000000000000000081526004018080602001828103825260268152602001807f4f776e61626c653a206e6577206f776e657220697320746865207a65726f206181526020017f646472657373000000000000000000000000000000000000000000000000000081525060400191505060405180910390fd5b8073ffffffffffffffffffffffffffffffffffffffff16600160009054906101000a900473ffffffffffffffffffffffffffffffffffffffff1673ffffffffffffffffffffffffffffffffffffffff167f8be0079c531659141344cd1fd0a4f28419497f9722a3daafe3b4186f6b6457e060405160405180910390a380600160006101000a81548173ffffffffffffffffffffffffffffffffffffffff021916908373ffffffffffffffffffffffffffffffffffffffff16021790555050565b6000611d94836000018373ffffffffffffffffffffffffffffffffffffffff16600102611ed2565b905092915050565b6000611dc4836000018373ffffffffffffffffffffffffffffffffffffffff16600102611f55565b905092915050565b6000818360000180549050111515611e72576040517f08c379a00000000000000000000000000000000000000000000000000000000081526004018080602001828103825260228152602001807f456e756d657261626c655365743a20696e646578206f7574206f6620626f756e81526020017f647300000000000000000000000000000000000000000000000000000000000081525060400191505060405180910390fd5b8260000182815481101515611e8357fe5b9060005260206000200154905092915050565b6000808360010160008460001916600019168152602001908152602001600020541415905092915050565b600081600001805490509050919050565b6000611ede8383611e96565b1515611f4a5782600001829080600181540180825580915050906001820390600052602060002001600090919290919091509060001916905550826000018054905083600101600084600019166000191681526020019081526020016000208190555060019050611f4f565b600090505b92915050565b6000806000806000866001016000876000191660001916815260200190815260200160002054935060008414151561206257600184039250600187600001805490500391508660000182815481101515611fab57fe5b90600052602060002001549050808760000184815481101515611fca57fe5b90600052602060002001816000191690555060018301876001016000836000191660001916815260200190815260200160002081905550866000018281548110151561201257fe5b9060005260206000200160009055866000018054809190600190036120379190612071565b5086600101600087600019166000191681526020019081526020016000206000905560019450612067565b600094505b5050505092915050565b81548183558181111561209857818360005260206000209182019101612097919061209d565b5b505050565b6120bf91905b808211156120bb5760008160009055506001016120a3565b5090565b905600a165627a7a7230582025508deaf489c770c076d9a81eb278f9daea05d742aa10b037c3b5ac95ce32360029",
  "source": "pragma solidity ^0.4.25;\n\nimport \"./access/Roles.sol\";\nimport \"./math/SafeMath.sol\";\n\ncontract TestKeysRoles is Roles {\n    using SafeMath for uint256;\n\n    uint256 private _checkSuperAdminRole = 0;\n    uint256 private _checkGeneralPartnerRole = 0;\n    uint256 private _checkLimitedPartnerRole = 0;\n    uint256 private _checkTeamRole = 0;\n    uint256 private _checkStartupTeamRole = 0;\n    uint256 private _checkRefererRole = 0;\n    uint256 private _miltipleRole = 0;\n\n    function changeSuperAdmin() public onlyAdmin returns (bool) {\n        _checkSuperAdminRole = _checkSuperAdminRole.add(1);\n        return true;\n    }\n\n    function changeGPartner() public onlyGPartner returns (bool) {\n        _checkGeneralPartnerRole = _checkGeneralPartnerRole.add(1);\n        return true;\n    }\n\n    function changeLPartner() public onlyLPartner returns (bool) {\n        _checkLimitedPartnerRole = _checkLimitedPartnerRole.add(1);\n        return true;\n    }\n\n    function changeTeam() public onlyTeam returns (bool) {\n        _checkTeamRole = _checkTeamRole.add(1);\n        return true;\n    }\n\n    function changeSturtapTeam() public onlySturtapTeam returns (bool) {\n        _checkStartupTeamRole = _checkStartupTeamRole.add(1);\n        return true;\n    }\n\n    function changeRefererRole() public onlyReferer returns (bool) {\n        _checkRefererRole = _checkRefererRole.add(1);\n        return true;\n    }\n\n    function changeMultipleRole() public onlyAdmin onlyGPartner returns (bool) {\n        _miltipleRole = _miltipleRole.add(1);\n        return true;\n    }\n\n    /////////////////// GET VALUE CHANGES VARIABLES ////////////////////\n    function getSuperAdminValue() public view returns (uint256) {\n        return _checkSuperAdminRole;\n    }\n\n    function getGPartnerValue() public view returns (uint256) {\n        return _checkGeneralPartnerRole;\n    }\n\n    function getLPartnerValue() public view returns (uint256) {\n        return _checkLimitedPartnerRole;\n    }\n\n    function getTeamValue() public view returns (uint256) {\n        return _checkTeamRole;\n    }\n\n    function getStartapTeamValue() public view returns (uint256) {\n        return _checkStartupTeamRole;\n    }\n\n    function getRefererValue() public view returns (uint256) {\n        return _checkRefererRole;\n    }\n\n    function getMultipleRole() public view returns (uint256) {\n        return _miltipleRole;\n    }\n}\n",
  "sourcePath": "/home/mitgen/Private Projects/American2/contracts/TestKeysRoles.sol",
  "compiler": {
    "name": "solc",
    "version": "0.4.25+commit.59dbf8f1.Emscripten.clang"
  },
  "schemaVersion": "3.2.3",
  "updatedAt": "2020-12-03T19:38:19.707Z",
  "devdoc": {
    "methods": {
      "addAdmin(bytes32,address)": {
        "details": "Create and ading new role.",
        "params": {
          "account": "account for adding to the role.",
          "role": "role account."
        }
      },
      "finalize()": {
        "details": "Block adding admins."
      },
      "getRoleAdmin(bytes32)": {
        "details": "Returns the admin role that controls `role`. See {grantRole} and {revokeRole}.     * To change a role's admin, use {_setRoleAdmin}."
      },
      "getRoleMember(bytes32,uint256)": {
        "details": "Returns one of the accounts that have `role`. `index` must be a value between 0 and {getRoleMemberCount}, non-inclusive.     * Role bearers are not sorted in any particular way, and their ordering may change at any point.     * WARNING: When using {getRoleMember} and {getRoleMemberCount}, make sure you perform all queries on the same block. See the following https://forum.openzeppelin.com/t/iterating-over-elements-on-enumerableset-in-openzeppelin-contracts/2296[forum post] for more information."
      },
      "getRoleMemberCount(bytes32)": {
        "details": "Returns the number of accounts that have `role`. Can be used together with {getRoleMember} to enumerate all bearers of a role."
      },
      "grantRole(bytes32,address)": {
        "details": "Grants `role` to `account`.     * If `account` had not been already granted `role`, emits a {RoleGranted} event.     * Requirements:     * - the caller must have ``role``'s admin role."
      },
      "hasRole(bytes32,address)": {
        "details": "Returns `true` if `account` has been granted `role`."
      },
      "isOwner()": {
        "return": "true if `msg.sender` is the owner of the contract."
      },
      "owner()": {
        "return": "the address of the owner."
      },
      "renounceOwnership()": {
        "details": "Allows the current owner to relinquish control of the contract. It will not be possible to call the functions with the `onlyOwner` modifier anymore."
      },
      "renounceRole(bytes32,address)": {
        "details": "Revokes `role` from the calling account.     * Roles are often managed via {grantRole} and {revokeRole}: this function's purpose is to provide a mechanism for accounts to lose their privileges if they are compromised (such as when a trusted device is misplaced).     * If the calling account had been granted `role`, emits a {RoleRevoked} event.     * Requirements:     * - the caller must be `account`."
      },
      "revokeRole(bytes32,address)": {
        "details": "Revokes `role` from `account`.     * If `account` had been granted `role`, emits a {RoleRevoked} event.     * Requirements:     * - the caller must have ``role``'s admin role."
      },
      "transferOwnership(address)": {
        "details": "Allows the current owner to transfer control of the contract to a newOwner.",
        "params": {
          "newOwner": "The address to transfer ownership to."
        }
      }
    }
  },
  "userdoc": {
    "methods": {
      "getSuperAdminValue()": {
        "notice": "//////////////// GET VALUE CHANGES VARIABLES ////////////////////"
      },
      "renounceOwnership()": {
        "notice": "Renouncing ownership will leave the contract without an owner, thereby removing any functionality that is only available to the owner."
      }
    }
  }
}