{
  "contractName": "PoolRegistry",
  "abi": [
    {
      "anonymous": false,
      "inputs": [
        {
          "indexed": false,
          "internalType": "address",
          "name": "pool",
          "type": "address"
        },
        {
          "indexed": false,
          "internalType": "address",
          "name": "token",
          "type": "address"
        },
        {
          "indexed": false,
          "internalType": "uint256",
          "name": "lock",
          "type": "uint256"
        },
        {
          "indexed": false,
          "internalType": "uint256",
          "name": "rate",
          "type": "uint256"
        },
        {
          "indexed": false,
          "internalType": "uint256",
          "name": "interestFee",
          "type": "uint256"
        },
        {
          "indexed": false,
          "internalType": "uint256",
          "name": "anualPrecent",
          "type": "uint256"
        }
      ],
      "name": "AddPool",
      "type": "event"
    },
    {
      "anonymous": false,
      "inputs": [
        {
          "indexed": false,
          "internalType": "address",
          "name": "pool",
          "type": "address"
        },
        {
          "indexed": false,
          "internalType": "address",
          "name": "token",
          "type": "address"
        },
        {
          "indexed": false,
          "internalType": "uint256",
          "name": "lock",
          "type": "uint256"
        },
        {
          "indexed": false,
          "internalType": "uint256",
          "name": "rate",
          "type": "uint256"
        },
        {
          "indexed": false,
          "internalType": "uint256",
          "name": "interestFee",
          "type": "uint256"
        },
        {
          "indexed": false,
          "internalType": "uint256",
          "name": "anualPrecent",
          "type": "uint256"
        }
      ],
      "name": "CreatePool",
      "type": "event"
    },
    {
      "anonymous": false,
      "inputs": [],
      "name": "Finalized",
      "type": "event"
    },
    {
      "anonymous": false,
      "inputs": [
        {
          "indexed": true,
          "internalType": "address",
          "name": "previousOwner",
          "type": "address"
        },
        {
          "indexed": true,
          "internalType": "address",
          "name": "newOwner",
          "type": "address"
        }
      ],
      "name": "OwnershipTransferred",
      "type": "event"
    },
    {
      "anonymous": false,
      "inputs": [
        {
          "indexed": true,
          "internalType": "bytes32",
          "name": "role",
          "type": "bytes32"
        },
        {
          "indexed": true,
          "internalType": "address",
          "name": "account",
          "type": "address"
        },
        {
          "indexed": true,
          "internalType": "address",
          "name": "sender",
          "type": "address"
        }
      ],
      "name": "RoleGranted",
      "type": "event"
    },
    {
      "anonymous": false,
      "inputs": [
        {
          "indexed": true,
          "internalType": "bytes32",
          "name": "role",
          "type": "bytes32"
        },
        {
          "indexed": true,
          "internalType": "address",
          "name": "account",
          "type": "address"
        },
        {
          "indexed": true,
          "internalType": "address",
          "name": "sender",
          "type": "address"
        }
      ],
      "name": "RoleRevoked",
      "type": "event"
    },
    {
      "anonymous": false,
      "inputs": [
        {
          "indexed": false,
          "internalType": "address",
          "name": "pool",
          "type": "address"
        },
        {
          "indexed": false,
          "internalType": "uint256",
          "name": "lock",
          "type": "uint256"
        },
        {
          "indexed": false,
          "internalType": "uint256",
          "name": "rate",
          "type": "uint256"
        },
        {
          "indexed": false,
          "internalType": "uint256",
          "name": "interestFee",
          "type": "uint256"
        },
        {
          "indexed": false,
          "internalType": "uint256",
          "name": "anualPrecent",
          "type": "uint256"
        }
      ],
      "name": "UpdatePool",
      "type": "event"
    },
    {
      "inputs": [],
      "name": "DEFAULT_ADMIN_ROLE",
      "outputs": [
        {
          "internalType": "bytes32",
          "name": "",
          "type": "bytes32"
        }
      ],
      "stateMutability": "view",
      "type": "function"
    },
    {
      "inputs": [],
      "name": "GENERAL_PARTNER_ROLE",
      "outputs": [
        {
          "internalType": "bytes32",
          "name": "",
          "type": "bytes32"
        }
      ],
      "stateMutability": "view",
      "type": "function"
    },
    {
      "inputs": [],
      "name": "LIMITED_PARTNER_ROLE",
      "outputs": [
        {
          "internalType": "bytes32",
          "name": "",
          "type": "bytes32"
        }
      ],
      "stateMutability": "view",
      "type": "function"
    },
    {
      "inputs": [],
      "name": "ORACLE_ROLE",
      "outputs": [
        {
          "internalType": "bytes32",
          "name": "",
          "type": "bytes32"
        }
      ],
      "stateMutability": "view",
      "type": "function"
    },
    {
      "inputs": [],
      "name": "REFERER_ROLE",
      "outputs": [
        {
          "internalType": "bytes32",
          "name": "",
          "type": "bytes32"
        }
      ],
      "stateMutability": "view",
      "type": "function"
    },
    {
      "inputs": [],
      "name": "STURTAP_TEAM_ROLE",
      "outputs": [
        {
          "internalType": "bytes32",
          "name": "",
          "type": "bytes32"
        }
      ],
      "stateMutability": "view",
      "type": "function"
    },
    {
      "inputs": [],
      "name": "SUPER_ADMIN_ROLE",
      "outputs": [
        {
          "internalType": "bytes32",
          "name": "",
          "type": "bytes32"
        }
      ],
      "stateMutability": "view",
      "type": "function"
    },
    {
      "inputs": [],
      "name": "TEAM_ROLE",
      "outputs": [
        {
          "internalType": "bytes32",
          "name": "",
          "type": "bytes32"
        }
      ],
      "stateMutability": "view",
      "type": "function"
    },
    {
      "inputs": [
        {
          "internalType": "bytes32",
          "name": "role",
          "type": "bytes32"
        },
        {
          "internalType": "address",
          "name": "account",
          "type": "address"
        }
      ],
      "name": "addAdmin",
      "outputs": [
        {
          "internalType": "bool",
          "name": "",
          "type": "bool"
        }
      ],
      "stateMutability": "nonpayable",
      "type": "function"
    },
    {
      "inputs": [],
      "name": "finalize",
      "outputs": [],
      "stateMutability": "nonpayable",
      "type": "function"
    },
    {
      "inputs": [
        {
          "internalType": "bytes32",
          "name": "role",
          "type": "bytes32"
        }
      ],
      "name": "getMembersRole",
      "outputs": [
        {
          "internalType": "address[]",
          "name": "Accounts",
          "type": "address[]"
        }
      ],
      "stateMutability": "view",
      "type": "function"
    },
    {
      "inputs": [
        {
          "internalType": "bytes32",
          "name": "role",
          "type": "bytes32"
        }
      ],
      "name": "getRoleAdmin",
      "outputs": [
        {
          "internalType": "bytes32",
          "name": "",
          "type": "bytes32"
        }
      ],
      "stateMutability": "view",
      "type": "function"
    },
    {
      "inputs": [
        {
          "internalType": "bytes32",
          "name": "role",
          "type": "bytes32"
        },
        {
          "internalType": "uint256",
          "name": "index",
          "type": "uint256"
        }
      ],
      "name": "getRoleMember",
      "outputs": [
        {
          "internalType": "address",
          "name": "",
          "type": "address"
        }
      ],
      "stateMutability": "view",
      "type": "function"
    },
    {
      "inputs": [
        {
          "internalType": "bytes32",
          "name": "role",
          "type": "bytes32"
        }
      ],
      "name": "getRoleMemberCount",
      "outputs": [
        {
          "internalType": "uint256",
          "name": "",
          "type": "uint256"
        }
      ],
      "stateMutability": "view",
      "type": "function"
    },
    {
      "inputs": [
        {
          "internalType": "bytes32",
          "name": "role",
          "type": "bytes32"
        },
        {
          "internalType": "address",
          "name": "account",
          "type": "address"
        }
      ],
      "name": "grantRole",
      "outputs": [],
      "stateMutability": "nonpayable",
      "type": "function"
    },
    {
      "inputs": [
        {
          "internalType": "bytes32",
          "name": "role",
          "type": "bytes32"
        },
        {
          "internalType": "address",
          "name": "account",
          "type": "address"
        }
      ],
      "name": "hasRole",
      "outputs": [
        {
          "internalType": "bool",
          "name": "",
          "type": "bool"
        }
      ],
      "stateMutability": "view",
      "type": "function"
    },
    {
      "inputs": [],
      "name": "owner",
      "outputs": [
        {
          "internalType": "address",
          "name": "",
          "type": "address"
        }
      ],
      "stateMutability": "view",
      "type": "function"
    },
    {
      "inputs": [],
      "name": "renounceOwnership",
      "outputs": [],
      "stateMutability": "nonpayable",
      "type": "function"
    },
    {
      "inputs": [
        {
          "internalType": "bytes32",
          "name": "role",
          "type": "bytes32"
        },
        {
          "internalType": "address",
          "name": "account",
          "type": "address"
        }
      ],
      "name": "renounceRole",
      "outputs": [],
      "stateMutability": "nonpayable",
      "type": "function"
    },
    {
      "inputs": [
        {
          "internalType": "bytes32",
          "name": "role",
          "type": "bytes32"
        },
        {
          "internalType": "address",
          "name": "account",
          "type": "address"
        }
      ],
      "name": "revokeRole",
      "outputs": [],
      "stateMutability": "nonpayable",
      "type": "function"
    },
    {
      "inputs": [
        {
          "internalType": "address",
          "name": "newOwner",
          "type": "address"
        }
      ],
      "name": "transferOwnership",
      "outputs": [],
      "stateMutability": "nonpayable",
      "type": "function"
    },
    {
      "inputs": [
        {
          "internalType": "address",
          "name": "token",
          "type": "address"
        },
        {
          "internalType": "uint256",
          "name": "locked",
          "type": "uint256"
        },
        {
          "internalType": "uint256",
          "name": "rate",
          "type": "uint256"
        },
        {
          "internalType": "uint256",
          "name": "interestFee",
          "type": "uint256"
        },
        {
          "internalType": "uint256",
          "name": "anualPrecent",
          "type": "uint256"
        },
        {
          "internalType": "address",
          "name": "superAdmin",
          "type": "address"
        },
        {
          "internalType": "address",
          "name": "gPartner",
          "type": "address"
        },
        {
          "internalType": "address",
          "name": "lPartner",
          "type": "address"
        },
        {
          "internalType": "address",
          "name": "team",
          "type": "address"
        },
        {
          "internalType": "address",
          "name": "sturtapTeam",
          "type": "address"
        },
        {
          "internalType": "address",
          "name": "referer",
          "type": "address"
        }
      ],
      "name": "createPool",
      "outputs": [
        {
          "internalType": "bool",
          "name": "",
          "type": "bool"
        }
      ],
      "stateMutability": "nonpayable",
      "type": "function"
    },
    {
      "inputs": [
        {
          "internalType": "address",
          "name": "poolAddress",
          "type": "address"
        }
      ],
      "name": "addPool",
      "outputs": [
        {
          "internalType": "bool",
          "name": "",
          "type": "bool"
        }
      ],
      "stateMutability": "nonpayable",
      "type": "function"
    },
    {
      "inputs": [
        {
          "internalType": "address",
          "name": "pool",
          "type": "address"
        },
        {
          "internalType": "uint256",
          "name": "lock",
          "type": "uint256"
        },
        {
          "internalType": "uint256",
          "name": "rate",
          "type": "uint256"
        },
        {
          "internalType": "uint256",
          "name": "interestFee",
          "type": "uint256"
        },
        {
          "internalType": "uint256",
          "name": "anualPrecent",
          "type": "uint256"
        }
      ],
      "name": "updatePool",
      "outputs": [
        {
          "internalType": "bool",
          "name": "",
          "type": "bool"
        }
      ],
      "stateMutability": "nonpayable",
      "type": "function"
    },
    {
      "inputs": [
        {
          "internalType": "address",
          "name": "pool",
          "type": "address"
        }
      ],
      "name": "getPollInfo",
      "outputs": [
        {
          "internalType": "address",
          "name": "token",
          "type": "address"
        },
        {
          "internalType": "uint256",
          "name": "lock",
          "type": "uint256"
        },
        {
          "internalType": "uint256",
          "name": "rate",
          "type": "uint256"
        },
        {
          "internalType": "uint256",
          "name": "interestFee",
          "type": "uint256"
        },
        {
          "internalType": "uint256",
          "name": "anualPrecent",
          "type": "uint256"
        }
      ],
      "stateMutability": "view",
      "type": "function"
    },
    {
      "inputs": [],
      "name": "getPools",
      "outputs": [
        {
          "internalType": "address[]",
          "name": "",
          "type": "address[]"
        }
      ],
      "stateMutability": "view",
      "type": "function"
    }
  ],
  "bytecode": "0x60806040526000600260146101000a81548160ff021916908315150217905550600062000031620003be60201b60201c565b905080600260006101000a81548173ffffffffffffffffffffffffffffffffffffffff021916908373ffffffffffffffffffffffffffffffffffffffff1602179055508073ffffffffffffffffffffffffffffffffffffffff16600073ffffffffffffffffffffffffffffffffffffffff167f8be0079c531659141344cd1fd0a4f28419497f9722a3daafe3b4186f6b6457e060405160405180910390a3506200014c60405180807f47454e4552414c5f504152544e45525f524f4c450000000000000000000000008152506014019050604051809103902060405180807f53555045525f41444d494e5f524f4c450000000000000000000000000000000081525060100190506040518091039020620003c660201b60201c565b620001c860405180807f4c494d495445445f504152544e45525f524f4c450000000000000000000000008152506014019050604051809103902060405180807f53555045525f41444d494e5f524f4c450000000000000000000000000000000081525060100190506040518091039020620003c660201b60201c565b6200024460405180807f5445414d5f524f4c4500000000000000000000000000000000000000000000008152506009019050604051809103902060405180807f53555045525f41444d494e5f524f4c450000000000000000000000000000000081525060100190506040518091039020620003c660201b60201c565b620002c060405180807f535455525441505f5445414d5f524f4c450000000000000000000000000000008152506011019050604051809103902060405180807f53555045525f41444d494e5f524f4c450000000000000000000000000000000081525060100190506040518091039020620003c660201b60201c565b6200033c60405180807f524546455245525f524f4c450000000000000000000000000000000000000000815250600c019050604051809103902060405180807f53555045525f41444d494e5f524f4c450000000000000000000000000000000081525060100190506040518091039020620003c660201b60201c565b620003b860405180807f4f5241434c455f524f4c45000000000000000000000000000000000000000000815250600b019050604051809103902060405180807f53555045525f41444d494e5f524f4c450000000000000000000000000000000081525060100190506040518091039020620003c660201b60201c565b620003e4565b600033905090565b80600080848152602001908152602001600020600301819055505050565b6165b180620003f46000396000f3fe60806040523480156200001157600080fd5b5060043610620001b45760003560e01c80638da5cb5b11620000f3578063ba12d08711620000a5578063d547741f116200007b578063d547741f14620008d3578063d914cd4b1462000924578063f2fde38b1462000983578063fe070e9d14620009ca57620001b4565b8063ba12d087146200084e578063c1abd757146200086e578063ca15c873146200088e57620001b4565b80638da5cb5b146200052e5780639010d07c146200057a57806391d1485414620005f55780639cf6cc70146200065e578063a217fddf14620006e6578063b3fa9a6d146200070657620001b4565b806349d5e604116200016b5780635ac8b00511620001415780635ac8b00514620004365780636419bcdb1462000456578063673a2a1f14620004bf578063715018a6146200052257620001b4565b806349d5e60414620003675780634bb278f3146200038757806359bc2b30146200039357620001b4565b806307e2cea514620001b9578063248a9ca314620001d95780632f2ff15d146200021e57806336568abe146200026f57806339ec4d8e14620002c05780634460bdd61462000347575b600080fd5b620001c3620009ea565b6040518082815260200191505060405180910390f35b6200020860048036036020811015620001f157600080fd5b810190808035906020019092919050505062000a23565b6040518082815260200191505060405180910390f35b6200026d600480360360408110156200023657600080fd5b8101908080359060200190929190803573ffffffffffffffffffffffffffffffffffffffff16906020019092919050505062000a42565b005b620002be600480360360408110156200028757600080fd5b8101908080359060200190929190803573ffffffffffffffffffffffffffffffffffffffff16906020019092919050505062000ad3565b005b6200032d600480360360a0811015620002d857600080fd5b81019080803573ffffffffffffffffffffffffffffffffffffffff1690602001909291908035906020019092919080359060200190929190803590602001909291908035906020019092919050505062000b72565b604051808215151515815260200191505060405180910390f35b62000351620011cd565b6040518082815260200191505060405180910390f35b6200037162001206565b6040518082815260200191505060405180910390f35b620003916200123f565b005b620003d860048036036020811015620003ab57600080fd5b81019080803573ffffffffffffffffffffffffffffffffffffffff169060200190929190505050620013d9565b604051808673ffffffffffffffffffffffffffffffffffffffff1673ffffffffffffffffffffffffffffffffffffffff1681526020018581526020018481526020018381526020018281526020019550505050505060405180910390f35b6200044062001673565b6040518082815260200191505060405180910390f35b620004a5600480360360408110156200046e57600080fd5b8101908080359060200190929190803573ffffffffffffffffffffffffffffffffffffffff169060200190929190505050620016ac565b604051808215151515815260200191505060405180910390f35b620004c962001815565b6040518080602001828103825283818151815260200191508051906020019060200280838360005b838110156200050e578082015181840152602081019050620004f1565b505050509050019250505060405180910390f35b6200052c62001828565b005b62000538620019b6565b604051808273ffffffffffffffffffffffffffffffffffffffff1673ffffffffffffffffffffffffffffffffffffffff16815260200191505060405180910390f35b620005b3600480360360408110156200059257600080fd5b810190808035906020019092919080359060200190929190505050620019e0565b604051808273ffffffffffffffffffffffffffffffffffffffff1673ffffffffffffffffffffffffffffffffffffffff16815260200191505060405180910390f35b62000644600480360360408110156200060d57600080fd5b8101908080359060200190929190803573ffffffffffffffffffffffffffffffffffffffff16906020019092919050505062001a13565b604051808215151515815260200191505060405180910390f35b6200068d600480360360208110156200067657600080fd5b810190808035906020019092919050505062001a46565b6040518080602001828103825283818151815260200191508051906020019060200280838360005b83811015620006d2578082015181840152602081019050620006b5565b505050509050019250505060405180910390f35b620006f062001ae9565b6040518082815260200191505060405180910390f35b6200083460048036036101608110156200071f57600080fd5b81019080803573ffffffffffffffffffffffffffffffffffffffff16906020019092919080359060200190929190803590602001909291908035906020019092919080359060200190929190803573ffffffffffffffffffffffffffffffffffffffff169060200190929190803573ffffffffffffffffffffffffffffffffffffffff169060200190929190803573ffffffffffffffffffffffffffffffffffffffff169060200190929190803573ffffffffffffffffffffffffffffffffffffffff169060200190929190803573ffffffffffffffffffffffffffffffffffffffff169060200190929190803573ffffffffffffffffffffffffffffffffffffffff16906020019092919050505062001af0565b604051808215151515815260200191505060405180910390f35b6200085862001f1f565b6040518082815260200191505060405180910390f35b6200087862001f58565b6040518082815260200191505060405180910390f35b620008bd60048036036020811015620008a657600080fd5b810190808035906020019092919050505062001f91565b6040518082815260200191505060405180910390f35b6200092260048036036040811015620008eb57600080fd5b8101908080359060200190929190803573ffffffffffffffffffffffffffffffffffffffff16906020019092919050505062001fb9565b005b62000969600480360360208110156200093c57600080fd5b81019080803573ffffffffffffffffffffffffffffffffffffffff1690602001909291905050506200204a565b604051808215151515815260200191505060405180910390f35b620009c8600480360360208110156200099b57600080fd5b81019080803573ffffffffffffffffffffffffffffffffffffffff169060200190929190505050620029d4565b005b620009d462002aaf565b6040518082815260200191505060405180910390f35b60405180807f4f5241434c455f524f4c45000000000000000000000000000000000000000000815250600b019050604051809103902081565b6000806000838152602001908152602001600020600301549050919050565b62000a6c6000808481526020019081526020016000206003015462000a6662002ae8565b62001a13565b62000ac3576040517f08c379a000000000000000000000000000000000000000000000000000000000815260040180806020018281038252602f8152602001806200642b602f913960400191505060405180910390fd5b62000acf828262002af0565b5050565b62000add62002ae8565b73ffffffffffffffffffffffffffffffffffffffff168173ffffffffffffffffffffffffffffffffffffffff161462000b62576040517f08c379a000000000000000000000000000000000000000000000000000000000815260040180806020018281038252602f8152602001806200654d602f913960400191505060405180910390fd5b62000b6e828262002bfc565b5050565b60008073ffffffffffffffffffffffffffffffffffffffff168673ffffffffffffffffffffffffffffffffffffffff16141562000c17576040517f08c379a000000000000000000000000000000000000000000000000000000000815260040180806020018281038252601f8152602001807f506f6f6c52656769737472793a20706f6f6c207a65726f20616464726573730081525060200191505060405180910390fd5b62000c2d86600462002d6790919063ffffffff16565b62000c84576040517f08c379a000000000000000000000000000000000000000000000000000000000815260040180806020018281038252602f8152602001806200645a602f913960400191505060405180910390fd5b60008690508073ffffffffffffffffffffffffffffffffffffffff166391d1485460405180807f47454e4552414c5f504152544e45525f524f4c4500000000000000000000000081525060140190506040518091039020336040518363ffffffff1660e01b8152600401808381526020018273ffffffffffffffffffffffffffffffffffffffff1673ffffffffffffffffffffffffffffffffffffffff1681526020019250505060206040518083038186803b15801562000d4457600080fd5b505afa15801562000d59573d6000803e3d6000fd5b505050506040513d602081101562000d7057600080fd5b810190808051906020019092919050505062000dd8576040517f08c379a000000000000000000000000000000000000000000000000000000000815260040180806020018281038252603b81526020018062006489603b913960400191505060405180910390fd5b8073ffffffffffffffffffffffffffffffffffffffff1663d3e15747876040518263ffffffff1660e01b815260040180828152602001915050602060405180830381600087803b15801562000e2c57600080fd5b505af115801562000e41573d6000803e3d6000fd5b505050506040513d602081101562000e5857600080fd5b8101908080519060200190929190505050508073ffffffffffffffffffffffffffffffffffffffff166334fcf437866040518263ffffffff1660e01b815260040180828152602001915050602060405180830381600087803b15801562000ebe57600080fd5b505af115801562000ed3573d6000803e3d6000fd5b505050506040513d602081101562000eea57600080fd5b8101908080519060200190929190505050508073ffffffffffffffffffffffffffffffffffffffff16635b56d6f5856040518263ffffffff1660e01b815260040180828152602001915050602060405180830381600087803b15801562000f5057600080fd5b505af115801562000f65573d6000803e3d6000fd5b505050506040513d602081101562000f7c57600080fd5b8101908080519060200190929190505050508073ffffffffffffffffffffffffffffffffffffffff1663d92c848f846040518263ffffffff1660e01b815260040180828152602001915050602060405180830381600087803b15801562000fe257600080fd5b505af115801562000ff7573d6000803e3d6000fd5b505050506040513d60208110156200100e57600080fd5b81019080805190602001909291905050505085600360008973ffffffffffffffffffffffffffffffffffffffff1673ffffffffffffffffffffffffffffffffffffffff1681526020019081526020016000206001018190555084600360008973ffffffffffffffffffffffffffffffffffffffff1673ffffffffffffffffffffffffffffffffffffffff1681526020019081526020016000206002018190555083600360008973ffffffffffffffffffffffffffffffffffffffff1673ffffffffffffffffffffffffffffffffffffffff1681526020019081526020016000206003018190555082600360008973ffffffffffffffffffffffffffffffffffffffff1673ffffffffffffffffffffffffffffffffffffffff168152602001908152602001600020600401819055507fe9ca9c51fee70c832a9946778273f75eb689e6901a09ef2fa4821884318f1ea08787878787604051808673ffffffffffffffffffffffffffffffffffffffff1673ffffffffffffffffffffffffffffffffffffffff1681526020018581526020018481526020018381526020018281526020019550505050505060405180910390a1600191505095945050505050565b60405180807f53555045525f41444d494e5f524f4c45000000000000000000000000000000008152506010019050604051809103902081565b60405180807f5445414d5f524f4c4500000000000000000000000000000000000000000000008152506009019050604051809103902081565b6200124962002ae8565b73ffffffffffffffffffffffffffffffffffffffff16600260009054906101000a900473ffffffffffffffffffffffffffffffffffffffff1673ffffffffffffffffffffffffffffffffffffffff16146200130c576040517f08c379a00000000000000000000000000000000000000000000000000000000081526004018080602001828103825260208152602001807f4f776e61626c653a2063616c6c6572206973206e6f7420746865206f776e657281525060200191505060405180910390fd5b600260149054906101000a900460ff161562001390576040517f08c379a000000000000000000000000000000000000000000000000000000000815260040180806020018281038252601e8152602001807f4d616e61676572526f6c653a20616c72656164792066696e616c697a6564000081525060200191505060405180910390fd5b6001600260146101000a81548160ff0219169083151502179055507f6823b073d48d6e3a7d385eeb601452d680e74bb46afe3255a7d778f3a9b1768160405160405180910390a1565b60008060008060008073ffffffffffffffffffffffffffffffffffffffff168673ffffffffffffffffffffffffffffffffffffffff16141562001484576040517f08c379a000000000000000000000000000000000000000000000000000000000815260040180806020018281038252601f8152602001807f506f6f6c52656769737472793a20706f6f6c207a65726f20616464726573730081525060200191505060405180910390fd5b6200149a86600462002d6790919063ffffffff16565b620014f1576040517f08c379a000000000000000000000000000000000000000000000000000000000815260040180806020018281038252602f8152602001806200645a602f913960400191505060405180910390fd5b600360008773ffffffffffffffffffffffffffffffffffffffff1673ffffffffffffffffffffffffffffffffffffffff16815260200190815260200160002060000160009054906101000a900473ffffffffffffffffffffffffffffffffffffffff16600360008873ffffffffffffffffffffffffffffffffffffffff1673ffffffffffffffffffffffffffffffffffffffff16815260200190815260200160002060010154600360008973ffffffffffffffffffffffffffffffffffffffff1673ffffffffffffffffffffffffffffffffffffffff16815260200190815260200160002060020154600360008a73ffffffffffffffffffffffffffffffffffffffff1673ffffffffffffffffffffffffffffffffffffffff16815260200190815260200160002060030154600360008b73ffffffffffffffffffffffffffffffffffffffff1673ffffffffffffffffffffffffffffffffffffffff168152602001908152602001600020600401549450945094509450945091939590929450565b60405180807f524546455245525f524f4c450000000000000000000000000000000000000000815250600c019050604051809103902081565b6000620016b862002ae8565b73ffffffffffffffffffffffffffffffffffffffff16600260009054906101000a900473ffffffffffffffffffffffffffffffffffffffff1673ffffffffffffffffffffffffffffffffffffffff16146200177b576040517f08c379a00000000000000000000000000000000000000000000000000000000081526004018080602001828103825260208152602001807f4f776e61626c653a2063616c6c6572206973206e6f7420746865206f776e657281525060200191505060405180910390fd5b600260149054906101000a900460ff1615620017ff576040517f08c379a000000000000000000000000000000000000000000000000000000000815260040180806020018281038252601e8152602001807f4d616e61676572526f6c653a20616c72656164792066696e616c697a6564000081525060200191505060405180910390fd5b6200180b838362002d99565b6001905092915050565b606062001823600462002da9565b905090565b6200183262002ae8565b73ffffffffffffffffffffffffffffffffffffffff16600260009054906101000a900473ffffffffffffffffffffffffffffffffffffffff1673ffffffffffffffffffffffffffffffffffffffff1614620018f5576040517f08c379a00000000000000000000000000000000000000000000000000000000081526004018080602001828103825260208152602001807f4f776e61626c653a2063616c6c6572206973206e6f7420746865206f776e657281525060200191505060405180910390fd5b600073ffffffffffffffffffffffffffffffffffffffff16600260009054906101000a900473ffffffffffffffffffffffffffffffffffffffff1673ffffffffffffffffffffffffffffffffffffffff167f8be0079c531659141344cd1fd0a4f28419497f9722a3daafe3b4186f6b6457e060405160405180910390a36000600260006101000a81548173ffffffffffffffffffffffffffffffffffffffff021916908373ffffffffffffffffffffffffffffffffffffffff160217905550565b6000600260009054906101000a900473ffffffffffffffffffffffffffffffffffffffff16905090565b600062001a0b8260008086815260200190815260200160002060000162002dc090919063ffffffff16565b905092915050565b600062001a3e8260008086815260200190815260200160002060000162002d6790919063ffffffff16565b905092915050565b60606001600083815260200190815260200160002080548060200260200160405190810160405280929190818152602001828054801562001add57602002820191906000526020600020905b8160009054906101000a900473ffffffffffffffffffffffffffffffffffffffff1673ffffffffffffffffffffffffffffffffffffffff168152602001906001019080831162001a92575b50505050509050919050565b6000801b81565b600062001b3360405180807f47454e4552414c5f504152544e45525f524f4c45000000000000000000000000815250601401905060405180910390203362001a13565b62001b8a576040517f08c379a0000000000000000000000000000000000000000000000000000000008152600401808060200182810382526034815260200180620063f76034913960400191505060405180910390fd5b60008c8c8c8c8c8c8c8c8c8c8c60405162001ba59062003552565b808c73ffffffffffffffffffffffffffffffffffffffff1673ffffffffffffffffffffffffffffffffffffffff1681526020018b81526020018a81526020018981526020018881526020018773ffffffffffffffffffffffffffffffffffffffff1673ffffffffffffffffffffffffffffffffffffffff1681526020018673ffffffffffffffffffffffffffffffffffffffff1673ffffffffffffffffffffffffffffffffffffffff1681526020018573ffffffffffffffffffffffffffffffffffffffff1673ffffffffffffffffffffffffffffffffffffffff1681526020018473ffffffffffffffffffffffffffffffffffffffff1673ffffffffffffffffffffffffffffffffffffffff1681526020018373ffffffffffffffffffffffffffffffffffffffff1673ffffffffffffffffffffffffffffffffffffffff1681526020018273ffffffffffffffffffffffffffffffffffffffff1673ffffffffffffffffffffffffffffffffffffffff1681526020019b505050505050505050505050604051809103906000f08015801562001d46573d6000803e3d6000fd5b50905060008190506040518060a001604052808f73ffffffffffffffffffffffffffffffffffffffff1681526020018e81526020018d81526020018c81526020018b815250600360008373ffffffffffffffffffffffffffffffffffffffff1673ffffffffffffffffffffffffffffffffffffffff16815260200190815260200160002060008201518160000160006101000a81548173ffffffffffffffffffffffffffffffffffffffff021916908373ffffffffffffffffffffffffffffffffffffffff1602179055506020820151816001015560408201518160020155606082015181600301556080820151816004015590505062001e5281600462002ddc90919063ffffffff16565b507f4d4c389af1cd6ae306feab780df09ae81048118fed984b76fb6323e760b4aae3818f8f8f8f8f604051808773ffffffffffffffffffffffffffffffffffffffff1673ffffffffffffffffffffffffffffffffffffffff1681526020018673ffffffffffffffffffffffffffffffffffffffff1673ffffffffffffffffffffffffffffffffffffffff168152602001858152602001848152602001838152602001828152602001965050505050505060405180910390a16001925050509b9a5050505050505050505050565b60405180807f535455525441505f5445414d5f524f4c450000000000000000000000000000008152506011019050604051809103902081565b60405180807f47454e4552414c5f504152544e45525f524f4c450000000000000000000000008152506014019050604051809103902081565b600062001fb260008084815260200190815260200160002060000162002e0f565b9050919050565b62001fe36000808481526020019081526020016000206003015462001fdd62002ae8565b62001a13565b6200203a576040517f08c379a0000000000000000000000000000000000000000000000000000000008152600401808060200182810382526030815260200180620064ea6030913960400191505060405180910390fd5b62002046828262002bfc565b5050565b60008073ffffffffffffffffffffffffffffffffffffffff168273ffffffffffffffffffffffffffffffffffffffff161415620020ef576040517f08c379a000000000000000000000000000000000000000000000000000000000815260040180806020018281038252601f8152602001807f506f6f6c52656769737472793a20706f6f6c207a65726f20616464726573730081525060200191505060405180910390fd5b6200210582600462002d6790919063ffffffff16565b156200215d576040517f08c379a00000000000000000000000000000000000000000000000000000000081526004018080602001828103825260338152602001806200651a6033913960400191505060405180910390fd5b60008290508073ffffffffffffffffffffffffffffffffffffffff166391d1485460405180807f47454e4552414c5f504152544e45525f524f4c4500000000000000000000000081525060140190506040518091039020336040518363ffffffff1660e01b8152600401808381526020018273ffffffffffffffffffffffffffffffffffffffff1673ffffffffffffffffffffffffffffffffffffffff1681526020019250505060206040518083038186803b1580156200221d57600080fd5b505afa15801562002232573d6000803e3d6000fd5b505050506040513d60208110156200224957600080fd5b8101908080519060200190929190505050620022b1576040517f08c379a000000000000000000000000000000000000000000000000000000000815260040180806020018281038252603b81526020018062006489603b913960400191505060405180910390fd5b60008173ffffffffffffffffffffffffffffffffffffffff1663fc0c546a6040518163ffffffff1660e01b815260040160206040518083038186803b158015620022fa57600080fd5b505afa1580156200230f573d6000803e3d6000fd5b505050506040513d60208110156200232657600080fd5b81019080805190602001909291905050509050600073ffffffffffffffffffffffffffffffffffffffff168173ffffffffffffffffffffffffffffffffffffffff161415620023dd576040517f08c379a00000000000000000000000000000000000000000000000000000000081526004018080602001828103825260208152602001807f506f6f6c52656769737472793a20746f6b656e207a65726f206164647265737381525060200191505060405180910390fd5b60008273ffffffffffffffffffffffffffffffffffffffff1663cf3090126040518163ffffffff1660e01b815260040160206040518083038186803b1580156200242657600080fd5b505afa1580156200243b573d6000803e3d6000fd5b505050506040513d60208110156200245257600080fd5b8101908080519060200190929190505050905060008373ffffffffffffffffffffffffffffffffffffffff16632c4e722e6040518163ffffffff1660e01b815260040160206040518083038186803b158015620024ae57600080fd5b505afa158015620024c3573d6000803e3d6000fd5b505050506040513d6020811015620024da57600080fd5b8101908080519060200190929190505050905060008473ffffffffffffffffffffffffffffffffffffffff1663a75df4986040518163ffffffff1660e01b815260040160206040518083038186803b1580156200253657600080fd5b505afa1580156200254b573d6000803e3d6000fd5b505050506040513d60208110156200256257600080fd5b8101908080519060200190929190505050905060008573ffffffffffffffffffffffffffffffffffffffff1663a8a159c26040518163ffffffff1660e01b815260040160206040518083038186803b158015620025be57600080fd5b505afa158015620025d3573d6000803e3d6000fd5b505050506040513d6020811015620025ea57600080fd5b810190808051906020019092919050505090506040518060a001604052808673ffffffffffffffffffffffffffffffffffffffff1681526020018773ffffffffffffffffffffffffffffffffffffffff1663cf3090126040518163ffffffff1660e01b815260040160206040518083038186803b1580156200266b57600080fd5b505afa15801562002680573d6000803e3d6000fd5b505050506040513d60208110156200269757600080fd5b810190808051906020019092919050505081526020018773ffffffffffffffffffffffffffffffffffffffff16632c4e722e6040518163ffffffff1660e01b815260040160206040518083038186803b158015620026f457600080fd5b505afa15801562002709573d6000803e3d6000fd5b505050506040513d60208110156200272057600080fd5b810190808051906020019092919050505081526020018773ffffffffffffffffffffffffffffffffffffffff1663a75df4986040518163ffffffff1660e01b815260040160206040518083038186803b1580156200277d57600080fd5b505afa15801562002792573d6000803e3d6000fd5b505050506040513d6020811015620027a957600080fd5b810190808051906020019092919050505081526020018773ffffffffffffffffffffffffffffffffffffffff1663a8a159c26040518163ffffffff1660e01b815260040160206040518083038186803b1580156200280657600080fd5b505afa1580156200281b573d6000803e3d6000fd5b505050506040513d60208110156200283257600080fd5b8101908080519060200190929190505050815250600360008a73ffffffffffffffffffffffffffffffffffffffff1673ffffffffffffffffffffffffffffffffffffffff16815260200190815260200160002060008201518160000160006101000a81548173ffffffffffffffffffffffffffffffffffffffff021916908373ffffffffffffffffffffffffffffffffffffffff160217905550602082015181600101556040820151816002015560608201518160030155608082015181600401559050506200290d88600462002ddc90919063ffffffff16565b507f1a9e9cb7556ff82aa0fbaa3e41234bba6c1a5a738489e2fcffa91e42c3f5b871888686868686604051808773ffffffffffffffffffffffffffffffffffffffff1673ffffffffffffffffffffffffffffffffffffffff1681526020018673ffffffffffffffffffffffffffffffffffffffff1673ffffffffffffffffffffffffffffffffffffffff168152602001858152602001848152602001838152602001828152602001965050505050505060405180910390a160019650505050505050919050565b620029de62002ae8565b73ffffffffffffffffffffffffffffffffffffffff16600260009054906101000a900473ffffffffffffffffffffffffffffffffffffffff1673ffffffffffffffffffffffffffffffffffffffff161462002aa1576040517f08c379a00000000000000000000000000000000000000000000000000000000081526004018080602001828103825260208152602001807f4f776e61626c653a2063616c6c6572206973206e6f7420746865206f776e657281525060200191505060405180910390fd5b62002aac8162002e26565b50565b60405180807f4c494d495445445f504152544e45525f524f4c450000000000000000000000008152506014019050604051809103902081565b600033905090565b62002b198160008085815260200190815260200160002060000162002ddc90919063ffffffff16565b1562002bf85760016000838152602001908152602001600020819080600181540180825580915050600190039060005260206000200160009091909190916101000a81548173ffffffffffffffffffffffffffffffffffffffff021916908373ffffffffffffffffffffffffffffffffffffffff16021790555062002b9d62002ae8565b73ffffffffffffffffffffffffffffffffffffffff168173ffffffffffffffffffffffffffffffffffffffff16837f2f8788117e7eff1d82e926ec794901d17c78024a50270940304540a733656f0d60405160405180910390a45b5050565b62002c258160008085815260200190815260200160002060000162002f6e90919063ffffffff16565b1562002d635760005b600160008481526020019081526020016000208054905081101562002cfd578173ffffffffffffffffffffffffffffffffffffffff1660016000858152602001908152602001600020828154811062002c8357fe5b9060005260206000200160009054906101000a900473ffffffffffffffffffffffffffffffffffffffff1673ffffffffffffffffffffffffffffffffffffffff16141562002cef5762002ce9816001600086815260200190815260200160002062002fa1565b62002cfd565b808060010191505062002c2e565b5062002d0862002ae8565b73ffffffffffffffffffffffffffffffffffffffff168173ffffffffffffffffffffffffffffffffffffffff16837ff6391f5c32d9c69d2a47ea670b442974b53935d1edc7fd64eb21e047a839171b60405160405180910390a45b5050565b600062002d91836000018373ffffffffffffffffffffffffffffffffffffffff1660001b6200309a565b905092915050565b62002da5828262002af0565b5050565b606062002db982600001620030bd565b9050919050565b600062002dd1836000018362003151565b60001c905092915050565b600062002e07836000018373ffffffffffffffffffffffffffffffffffffffff1660001b84620031d7565b905092915050565b600062002e1f82600001620032b1565b9050919050565b600073ffffffffffffffffffffffffffffffffffffffff168173ffffffffffffffffffffffffffffffffffffffff16141562002eae576040517f08c379a0000000000000000000000000000000000000000000000000000000008152600401808060200182810382526026815260200180620064c46026913960400191505060405180910390fd5b8073ffffffffffffffffffffffffffffffffffffffff16600260009054906101000a900473ffffffffffffffffffffffffffffffffffffffff1673ffffffffffffffffffffffffffffffffffffffff167f8be0079c531659141344cd1fd0a4f28419497f9722a3daafe3b4186f6b6457e060405160405180910390a380600260006101000a81548173ffffffffffffffffffffffffffffffffffffffff021916908373ffffffffffffffffffffffffffffffffffffffff16021790555050565b600062002f99836000018373ffffffffffffffffffffffffffffffffffffffff1660001b84620032c2565b905092915050565b60008290505b6001828054905003811015620030555781600182018154811062002fc757fe5b9060005260206000200160009054906101000a900473ffffffffffffffffffffffffffffffffffffffff1682828154811062002fff57fe5b9060005260206000200160006101000a81548173ffffffffffffffffffffffffffffffffffffffff021916908373ffffffffffffffffffffffffffffffffffffffff160217905550808060010191505062002fa7565b50808054806200306157fe5b6001900381819060005260206000200160006101000a81549073ffffffffffffffffffffffffffffffffffffffff021916905590555050565b600080836002016000848152602001908152602001600020541415905092915050565b6060816001018054806020026020016040519081016040528092919081815260200182805480156200314557602002820191906000526020600020905b8160009054906101000a900473ffffffffffffffffffffffffffffffffffffffff1673ffffffffffffffffffffffffffffffffffffffff1681526020019060010190808311620030fa575b50505050509050919050565b600081836000018054905011620031b4576040517f08c379a0000000000000000000000000000000000000000000000000000000008152600401808060200182810382526022815260200180620063d56022913960400191505060405180910390fd5b826000018281548110620031c457fe5b9060005260206000200154905092915050565b6000620031e584846200309a565b620032a5578360000183908060018154018082558091505060019003906000526020600020016000909190919091505583600101829080600181540180825580915050600190039060005260206000200160009091909190916101000a81548173ffffffffffffffffffffffffffffffffffffffff021916908373ffffffffffffffffffffffffffffffffffffffff16021790555083600001805490508460020160008581526020019081526020016000208190555060019050620032aa565b600090505b9392505050565b600081600001805490509050919050565b600080846002016000858152602001908152602001600020549050600081146200344c57600060018203905060006001876000018054905003905060008760000182815481106200330f57fe5b90600052602060002001549050808860000184815481106200332d57fe5b90600052602060002001819055506001830188600201600083815260200190815260200160002081905550876000018054806200336657fe5b600190038181906000526020600020016000905590558760020160008881526020019081526020016000206000905560008090505b88600101805490508110156200343d578673ffffffffffffffffffffffffffffffffffffffff16896001018281548110620033d257fe5b9060005260206000200160009054906101000a900473ffffffffffffffffffffffffffffffffffffffff1673ffffffffffffffffffffffffffffffffffffffff1614156200342f5762003429818a60010162003459565b6200343d565b80806001019150506200339b565b50600194505050505062003452565b60009150505b9392505050565b60008290505b60018280549050038110156200350d578160018201815481106200347f57fe5b9060005260206000200160009054906101000a900473ffffffffffffffffffffffffffffffffffffffff16828281548110620034b757fe5b9060005260206000200160006101000a81548173ffffffffffffffffffffffffffffffffffffffff021916908373ffffffffffffffffffffffffffffffffffffffff16021790555080806001019150506200345f565b50808054806200351957fe5b6001900381819060005260206000200160006101000a81549073ffffffffffffffffffffffffffffffffffffffff021916905590555050565b612e7480620035618339019056fe60806040526000600260146101000a81548160ff021916908315150217905550600360009054906101000a900473ffffffffffffffffffffffffffffffffffffffff16600460006101000a81548173ffffffffffffffffffffffffffffffffffffffff021916908373ffffffffffffffffffffffffffffffffffffffff1602179055503480156200008f57600080fd5b5060405162002e7438038062002e748339818101604052610160811015620000b657600080fd5b81019080805190602001909291908051906020019092919080519060200190929190805190602001909291908051906020019092919080519060200190929190805190602001909291908051906020019092919080519060200190929190805190602001909291908051906020019092919050505060006200013d6200074460201b60201c565b905080600260006101000a81548173ffffffffffffffffffffffffffffffffffffffff021916908373ffffffffffffffffffffffffffffffffffffffff1602179055508073ffffffffffffffffffffffffffffffffffffffff16600073ffffffffffffffffffffffffffffffffffffffff167f8be0079c531659141344cd1fd0a4f28419497f9722a3daafe3b4186f6b6457e060405160405180910390a3506200025860405180807f47454e4552414c5f504152544e45525f524f4c450000000000000000000000008152506014019050604051809103902060405180807f53555045525f41444d494e5f524f4c4500000000000000000000000000000000815250601001905060405180910390206200074c60201b60201c565b620002d460405180807f4c494d495445445f504152544e45525f524f4c450000000000000000000000008152506014019050604051809103902060405180807f53555045525f41444d494e5f524f4c4500000000000000000000000000000000815250601001905060405180910390206200074c60201b60201c565b6200035060405180807f5445414d5f524f4c4500000000000000000000000000000000000000000000008152506009019050604051809103902060405180807f53555045525f41444d494e5f524f4c4500000000000000000000000000000000815250601001905060405180910390206200074c60201b60201c565b620003cc60405180807f535455525441505f5445414d5f524f4c450000000000000000000000000000008152506011019050604051809103902060405180807f53555045525f41444d494e5f524f4c4500000000000000000000000000000000815250601001905060405180910390206200074c60201b60201c565b6200044860405180807f524546455245525f524f4c450000000000000000000000000000000000000000815250600c019050604051809103902060405180807f53555045525f41444d494e5f524f4c4500000000000000000000000000000000815250601001905060405180910390206200074c60201b60201c565b620004c460405180807f4f5241434c455f524f4c45000000000000000000000000000000000000000000815250600b019050604051809103902060405180807f53555045525f41444d494e5f524f4c4500000000000000000000000000000000815250601001905060405180910390206200074c60201b60201c565b8a600360006101000a81548173ffffffffffffffffffffffffffffffffffffffff021916908373ffffffffffffffffffffffffffffffffffffffff160217905550896005819055508860068190555087600781905550866008819055506200056d60405180807f53555045525f41444d494e5f524f4c450000000000000000000000000000000081525060100190506040518091039020336200076a60201b62000d911760201c565b50620005ba60405180807f53555045525f41444d494e5f524f4c450000000000000000000000000000000081525060100190506040518091039020876200076a60201b62000d911760201c565b50620005d0620008df60201b62000b1c1760201c565b6200061760405180807f47454e4552414c5f504152544e45525f524f4c45000000000000000000000000815250601401905060405180910390208662000a7f60201b60201c565b6200065e60405180807f4c494d495445445f504152544e45525f524f4c45000000000000000000000000815250601401905060405180910390208562000a7f60201b60201c565b620006a560405180807f5445414d5f524f4c450000000000000000000000000000000000000000000000815250600901905060405180910390208462000a7f60201b60201c565b620006ec60405180807f535455525441505f5445414d5f524f4c45000000000000000000000000000000815250601101905060405180910390208362000a7f60201b60201c565b6200073360405180807f524546455245525f524f4c450000000000000000000000000000000000000000815250600c01905060405180910390208262000a7f60201b60201c565b505050505050505050505062000dfb565b600033905090565b80600080848152602001908152602001600020600301819055505050565b60006200077c6200074460201b60201c565b73ffffffffffffffffffffffffffffffffffffffff16600260009054906101000a900473ffffffffffffffffffffffffffffffffffffffff1673ffffffffffffffffffffffffffffffffffffffff16146200083f576040517f08c379a00000000000000000000000000000000000000000000000000000000081526004018080602001828103825260208152602001807f4f776e61626c653a2063616c6c6572206973206e6f7420746865206f776e657281525060200191505060405180910390fd5b600260149054906101000a900460ff1615620008c3576040517f08c379a000000000000000000000000000000000000000000000000000000000815260040180806020018281038252601e8152602001807f4d616e61676572526f6c653a20616c72656164792066696e616c697a6564000081525060200191505060405180910390fd5b620008d5838362000b2260201b60201c565b6001905092915050565b620008ef6200074460201b60201c565b73ffffffffffffffffffffffffffffffffffffffff16600260009054906101000a900473ffffffffffffffffffffffffffffffffffffffff1673ffffffffffffffffffffffffffffffffffffffff1614620009b2576040517f08c379a00000000000000000000000000000000000000000000000000000000081526004018080602001828103825260208152602001807f4f776e61626c653a2063616c6c6572206973206e6f7420746865206f776e657281525060200191505060405180910390fd5b600260149054906101000a900460ff161562000a36576040517f08c379a000000000000000000000000000000000000000000000000000000000815260040180806020018281038252601e8152602001807f4d616e61676572526f6c653a20616c72656164792066696e616c697a6564000081525060200191505060405180910390fd5b6001600260146101000a81548160ff0219169083151502179055507f6823b073d48d6e3a7d385eeb601452d680e74bb46afe3255a7d778f3a9b1768160405160405180910390a1565b62000ab56000808481526020019081526020016000206003015462000aa96200074460201b60201c565b62000b3860201b60201c565b62000b0c576040517f08c379a000000000000000000000000000000000000000000000000000000000815260040180806020018281038252602f81526020018062002e45602f913960400191505060405180910390fd5b62000b1e828262000b7060201b60201c565b5050565b62000b34828262000b7060201b60201c565b5050565b600062000b688260008086815260200190815260200160002060000162000c8760201b6200180d1790919060201c565b905092915050565b62000b9e8160008085815260200190815260200160002060000162000cbf60201b620019981790919060201c565b1562000c835760016000838152602001908152602001600020819080600181540180825580915050600190039060005260206000200160009091909190916101000a81548173ffffffffffffffffffffffffffffffffffffffff021916908373ffffffffffffffffffffffffffffffffffffffff16021790555062000c286200074460201b60201c565b73ffffffffffffffffffffffffffffffffffffffff168173ffffffffffffffffffffffffffffffffffffffff16837f2f8788117e7eff1d82e926ec794901d17c78024a50270940304540a733656f0d60405160405180910390a45b5050565b600062000cb7836000018373ffffffffffffffffffffffffffffffffffffffff1660001b62000cf860201b60201c565b905092915050565b600062000cf0836000018373ffffffffffffffffffffffffffffffffffffffff1660001b8462000d1b60201b60201c565b905092915050565b600080836002016000848152602001908152602001600020541415905092915050565b600062000d2f848462000cf860201b60201c565b62000def578360000183908060018154018082558091505060019003906000526020600020016000909190919091505583600101829080600181540180825580915050600190039060005260206000200160009091909190916101000a81548173ffffffffffffffffffffffffffffffffffffffff021916908373ffffffffffffffffffffffffffffffffffffffff1602179055508360000180549050846002016000858152602001908152602001600020819055506001905062000df4565b600090505b9392505050565b61203a8062000e0b6000396000f3fe608060405234801561001057600080fd5b50600436106101da5760003560e01c806391d1485411610104578063ca15c873116100a2578063d92c848f11610071578063d92c848f1461078e578063f2fde38b146107d4578063fc0c546a14610818578063fe070e9d14610862576101da565b8063ca15c8731461069a578063cf309012146106dc578063d3e15747146106fa578063d547741f14610740576101da565b8063a75df498116100de578063a75df49814610622578063a8a159c214610640578063ba12d0871461065e578063c1abd7571461067c576101da565b806391d148541461051b5780639cf6cc7014610581578063a217fddf14610604576101da565b806349d5e6041161017c5780636419bcdb1161014b5780636419bcdb146103e9578063715018a61461044f5780638da5cb5b146104595780639010d07c146104a3576101da565b806349d5e6041461035d5780634bb278f31461037b5780635ac8b005146103855780635b56d6f5146103a3576101da565b80632f2ff15d116101b85780632f2ff15d1461025d57806334fcf437146102ab57806336568abe146102f15780634460bdd61461033f576101da565b806307e2cea5146101df578063248a9ca3146101fd5780632c4e722e1461023f575b600080fd5b6101e7610880565b6040518082815260200191505060405180910390f35b6102296004803603602081101561021357600080fd5b81019080803590602001909291905050506108b9565b6040518082815260200191505060405180910390f35b6102476108d8565b6040518082815260200191505060405180910390f35b6102a96004803603604081101561027357600080fd5b8101908080359060200190929190803573ffffffffffffffffffffffffffffffffffffffff1690602001909291905050506108e2565b005b6102d7600480360360208110156102c157600080fd5b810190808035906020019092919050505061096b565b604051808215151515815260200191505060405180910390f35b61033d6004803603604081101561030757600080fd5b8101908080359060200190929190803573ffffffffffffffffffffffffffffffffffffffff169060200190929190505050610a11565b005b610347610aaa565b6040518082815260200191505060405180910390f35b610365610ae3565b6040518082815260200191505060405180910390f35b610383610b1c565b005b61038d610cb2565b6040518082815260200191505060405180910390f35b6103cf600480360360208110156103b957600080fd5b8101908080359060200190929190505050610ceb565b604051808215151515815260200191505060405180910390f35b610435600480360360408110156103ff57600080fd5b8101908080359060200190929190803573ffffffffffffffffffffffffffffffffffffffff169060200190929190505050610d91565b604051808215151515815260200191505060405180910390f35b610457610ef4565b005b61046161107f565b604051808273ffffffffffffffffffffffffffffffffffffffff1673ffffffffffffffffffffffffffffffffffffffff16815260200191505060405180910390f35b6104d9600480360360408110156104b957600080fd5b8101908080359060200190929190803590602001909291905050506110a9565b604051808273ffffffffffffffffffffffffffffffffffffffff1673ffffffffffffffffffffffffffffffffffffffff16815260200191505060405180910390f35b6105676004803603604081101561053157600080fd5b8101908080359060200190929190803573ffffffffffffffffffffffffffffffffffffffff1690602001909291905050506110da565b604051808215151515815260200191505060405180910390f35b6105ad6004803603602081101561059757600080fd5b810190808035906020019092919050505061110b565b6040518080602001828103825283818151815260200191508051906020019060200280838360005b838110156105f05780820151818401526020810190506105d5565b505050509050019250505060405180910390f35b61060c6111ac565b6040518082815260200191505060405180910390f35b61062a6111b3565b6040518082815260200191505060405180910390f35b6106486111bd565b6040518082815260200191505060405180910390f35b6106666111c7565b6040518082815260200191505060405180910390f35b610684611200565b6040518082815260200191505060405180910390f35b6106c6600480360360208110156106b057600080fd5b8101908080359060200190929190505050611239565b6040518082815260200191505060405180910390f35b6106e461125f565b6040518082815260200191505060405180910390f35b6107266004803603602081101561071057600080fd5b8101908080359060200190929190505050611269565b604051808215151515815260200191505060405180910390f35b61078c6004803603604081101561075657600080fd5b8101908080359060200190929190803573ffffffffffffffffffffffffffffffffffffffff16906020019092919050505061130f565b005b6107ba600480360360208110156107a457600080fd5b8101908080359060200190929190505050611398565b604051808215151515815260200191505060405180910390f35b610816600480360360208110156107ea57600080fd5b81019080803573ffffffffffffffffffffffffffffffffffffffff16906020019092919050505061143e565b005b610820611514565b604051808273ffffffffffffffffffffffffffffffffffffffff1673ffffffffffffffffffffffffffffffffffffffff16815260200191505060405180910390f35b61086a61153e565b6040518082815260200191505060405180910390f35b60405180807f4f5241434c455f524f4c45000000000000000000000000000000000000000000815250600b019050604051809103902081565b6000806000838152602001908152602001600020600301549050919050565b6000600654905090565b61090860008084815260200190815260200160002060030154610903611577565b6110da565b61095d576040517f08c379a000000000000000000000000000000000000000000000000000000000815260040180806020018281038252602f815260200180611f51602f913960400191505060405180910390fd5b610967828261157f565b5050565b60006109ac60405180807f47454e4552414c5f504152544e45525f524f4c4500000000000000000000000081525060140190506040518091039020336110da565b610a01576040517f08c379a0000000000000000000000000000000000000000000000000000000008152600401808060200182810382526034815260200180611f1d6034913960400191505060405180910390fd5b8160068190555060019050919050565b610a19611577565b73ffffffffffffffffffffffffffffffffffffffff168173ffffffffffffffffffffffffffffffffffffffff1614610a9c576040517f08c379a000000000000000000000000000000000000000000000000000000000815260040180806020018281038252602f815260200180611fd6602f913960400191505060405180910390fd5b610aa68282611686565b5050565b60405180807f53555045525f41444d494e5f524f4c45000000000000000000000000000000008152506010019050604051809103902081565b60405180807f5445414d5f524f4c4500000000000000000000000000000000000000000000008152506009019050604051809103902081565b610b24611577565b73ffffffffffffffffffffffffffffffffffffffff16600260009054906101000a900473ffffffffffffffffffffffffffffffffffffffff1673ffffffffffffffffffffffffffffffffffffffff1614610be6576040517f08c379a00000000000000000000000000000000000000000000000000000000081526004018080602001828103825260208152602001807f4f776e61626c653a2063616c6c6572206973206e6f7420746865206f776e657281525060200191505060405180910390fd5b600260149054906101000a900460ff1615610c69576040517f08c379a000000000000000000000000000000000000000000000000000000000815260040180806020018281038252601e8152602001807f4d616e61676572526f6c653a20616c72656164792066696e616c697a6564000081525060200191505060405180910390fd5b6001600260146101000a81548160ff0219169083151502179055507f6823b073d48d6e3a7d385eeb601452d680e74bb46afe3255a7d778f3a9b1768160405160405180910390a1565b60405180807f524546455245525f524f4c450000000000000000000000000000000000000000815250600c019050604051809103902081565b6000610d2c60405180807f47454e4552414c5f504152544e45525f524f4c4500000000000000000000000081525060140190506040518091039020336110da565b610d81576040517f08c379a0000000000000000000000000000000000000000000000000000000008152600401808060200182810382526034815260200180611f1d6034913960400191505060405180910390fd5b8160078190555060019050919050565b6000610d9b611577565b73ffffffffffffffffffffffffffffffffffffffff16600260009054906101000a900473ffffffffffffffffffffffffffffffffffffffff1673ffffffffffffffffffffffffffffffffffffffff1614610e5d576040517f08c379a00000000000000000000000000000000000000000000000000000000081526004018080602001828103825260208152602001807f4f776e61626c653a2063616c6c6572206973206e6f7420746865206f776e657281525060200191505060405180910390fd5b600260149054906101000a900460ff1615610ee0576040517f08c379a000000000000000000000000000000000000000000000000000000000815260040180806020018281038252601e8152602001807f4d616e61676572526f6c653a20616c72656164792066696e616c697a6564000081525060200191505060405180910390fd5b610eea83836117e5565b6001905092915050565b610efc611577565b73ffffffffffffffffffffffffffffffffffffffff16600260009054906101000a900473ffffffffffffffffffffffffffffffffffffffff1673ffffffffffffffffffffffffffffffffffffffff1614610fbe576040517f08c379a00000000000000000000000000000000000000000000000000000000081526004018080602001828103825260208152602001807f4f776e61626c653a2063616c6c6572206973206e6f7420746865206f776e657281525060200191505060405180910390fd5b600073ffffffffffffffffffffffffffffffffffffffff16600260009054906101000a900473ffffffffffffffffffffffffffffffffffffffff1673ffffffffffffffffffffffffffffffffffffffff167f8be0079c531659141344cd1fd0a4f28419497f9722a3daafe3b4186f6b6457e060405160405180910390a36000600260006101000a81548173ffffffffffffffffffffffffffffffffffffffff021916908373ffffffffffffffffffffffffffffffffffffffff160217905550565b6000600260009054906101000a900473ffffffffffffffffffffffffffffffffffffffff16905090565b60006110d2826000808681526020019081526020016000206000016117f390919063ffffffff16565b905092915050565b60006111038260008086815260200190815260200160002060000161180d90919063ffffffff16565b905092915050565b6060600160008381526020019081526020016000208054806020026020016040519081016040528092919081815260200182805480156111a057602002820191906000526020600020905b8160009054906101000a900473ffffffffffffffffffffffffffffffffffffffff1673ffffffffffffffffffffffffffffffffffffffff1681526020019060010190808311611156575b50505050509050919050565b6000801b81565b6000600754905090565b6000600854905090565b60405180807f535455525441505f5445414d5f524f4c450000000000000000000000000000008152506011019050604051809103902081565b60405180807f47454e4552414c5f504152544e45525f524f4c450000000000000000000000008152506014019050604051809103902081565b600061125860008084815260200190815260200160002060000161183d565b9050919050565b6000600554905090565b60006112aa60405180807f47454e4552414c5f504152544e45525f524f4c4500000000000000000000000081525060140190506040518091039020336110da565b6112ff576040517f08c379a0000000000000000000000000000000000000000000000000000000008152600401808060200182810382526034815260200180611f1d6034913960400191505060405180910390fd5b8160058190555060019050919050565b61133560008084815260200190815260200160002060030154611330611577565b6110da565b61138a576040517f08c379a0000000000000000000000000000000000000000000000000000000008152600401808060200182810382526030815260200180611fa66030913960400191505060405180910390fd5b6113948282611686565b5050565b60006113d960405180807f47454e4552414c5f504152544e45525f524f4c4500000000000000000000000081525060140190506040518091039020336110da565b61142e576040517f08c379a0000000000000000000000000000000000000000000000000000000008152600401808060200182810382526034815260200180611f1d6034913960400191505060405180910390fd5b8160088190555060019050919050565b611446611577565b73ffffffffffffffffffffffffffffffffffffffff16600260009054906101000a900473ffffffffffffffffffffffffffffffffffffffff1673ffffffffffffffffffffffffffffffffffffffff1614611508576040517f08c379a00000000000000000000000000000000000000000000000000000000081526004018080602001828103825260208152602001807f4f776e61626c653a2063616c6c6572206973206e6f7420746865206f776e657281525060200191505060405180910390fd5b61151181611852565b50565b6000600360009054906101000a900473ffffffffffffffffffffffffffffffffffffffff16905090565b60405180807f4c494d495445445f504152544e45525f524f4c450000000000000000000000008152506014019050604051809103902081565b600033905090565b6115a68160008085815260200190815260200160002060000161199890919063ffffffff16565b156116825760016000838152602001908152602001600020819080600181540180825580915050600190039060005260206000200160009091909190916101000a81548173ffffffffffffffffffffffffffffffffffffffff021916908373ffffffffffffffffffffffffffffffffffffffff160217905550611627611577565b73ffffffffffffffffffffffffffffffffffffffff168173ffffffffffffffffffffffffffffffffffffffff16837f2f8788117e7eff1d82e926ec794901d17c78024a50270940304540a733656f0d60405160405180910390a45b5050565b6116ad816000808581526020019081526020016000206000016119c990919063ffffffff16565b156117e15760005b600160008481526020019081526020016000208054905081101561177d578173ffffffffffffffffffffffffffffffffffffffff1660016000858152602001908152602001600020828154811061170857fe5b9060005260206000200160009054906101000a900473ffffffffffffffffffffffffffffffffffffffff1673ffffffffffffffffffffffffffffffffffffffff1614156117705761176b81600160008681526020019081526020016000206119fa565b61177d565b80806001019150506116b5565b50611786611577565b73ffffffffffffffffffffffffffffffffffffffff168173ffffffffffffffffffffffffffffffffffffffff16837ff6391f5c32d9c69d2a47ea670b442974b53935d1edc7fd64eb21e047a839171b60405160405180910390a45b5050565b6117ef828261157f565b5050565b60006118028360000183611aee565b60001c905092915050565b6000611835836000018373ffffffffffffffffffffffffffffffffffffffff1660001b611b71565b905092915050565b600061184b82600001611b94565b9050919050565b600073ffffffffffffffffffffffffffffffffffffffff168173ffffffffffffffffffffffffffffffffffffffff1614156118d8576040517f08c379a0000000000000000000000000000000000000000000000000000000008152600401808060200182810382526026815260200180611f806026913960400191505060405180910390fd5b8073ffffffffffffffffffffffffffffffffffffffff16600260009054906101000a900473ffffffffffffffffffffffffffffffffffffffff1673ffffffffffffffffffffffffffffffffffffffff167f8be0079c531659141344cd1fd0a4f28419497f9722a3daafe3b4186f6b6457e060405160405180910390a380600260006101000a81548173ffffffffffffffffffffffffffffffffffffffff021916908373ffffffffffffffffffffffffffffffffffffffff16021790555050565b60006119c1836000018373ffffffffffffffffffffffffffffffffffffffff1660001b84611ba5565b905092915050565b60006119f2836000018373ffffffffffffffffffffffffffffffffffffffff1660001b84611c7b565b905092915050565b60008290505b6001828054905003811015611aaa57816001820181548110611a1e57fe5b9060005260206000200160009054906101000a900473ffffffffffffffffffffffffffffffffffffffff16828281548110611a5557fe5b9060005260206000200160006101000a81548173ffffffffffffffffffffffffffffffffffffffff021916908373ffffffffffffffffffffffffffffffffffffffff1602179055508080600101915050611a00565b5080805480611ab557fe5b6001900381819060005260206000200160006101000a81549073ffffffffffffffffffffffffffffffffffffffff021916905590555050565b600081836000018054905011611b4f576040517f08c379a0000000000000000000000000000000000000000000000000000000008152600401808060200182810382526022815260200180611efb6022913960400191505060405180910390fd5b826000018281548110611b5e57fe5b9060005260206000200154905092915050565b600080836002016000848152602001908152602001600020541415905092915050565b600081600001805490509050919050565b6000611bb18484611b71565b611c6f578360000183908060018154018082558091505060019003906000526020600020016000909190919091505583600101829080600181540180825580915050600190039060005260206000200160009091909190916101000a81548173ffffffffffffffffffffffffffffffffffffffff021916908373ffffffffffffffffffffffffffffffffffffffff16021790555083600001805490508460020160008581526020019081526020016000208190555060019050611c74565b600090505b9392505050565b60008084600201600085815260200190815260200160002054905060008114611df95760006001820390506000600187600001805490500390506000876000018281548110611cc657fe5b9060005260206000200154905080886000018481548110611ce357fe5b9060005260206000200181905550600183018860020160008381526020019081526020016000208190555087600001805480611d1b57fe5b600190038181906000526020600020016000905590558760020160008881526020019081526020016000206000905560008090505b8860010180549050811015611deb578673ffffffffffffffffffffffffffffffffffffffff16896001018281548110611d8557fe5b9060005260206000200160009054906101000a900473ffffffffffffffffffffffffffffffffffffffff1673ffffffffffffffffffffffffffffffffffffffff161415611dde57611dd9818a600101611e06565b611deb565b8080600101915050611d50565b506001945050505050611dff565b60009150505b9392505050565b60008290505b6001828054905003811015611eb657816001820181548110611e2a57fe5b9060005260206000200160009054906101000a900473ffffffffffffffffffffffffffffffffffffffff16828281548110611e6157fe5b9060005260206000200160006101000a81548173ffffffffffffffffffffffffffffffffffffffff021916908373ffffffffffffffffffffffffffffffffffffffff1602179055508080600101915050611e0c565b5080805480611ec157fe5b6001900381819060005260206000200160006101000a81549073ffffffffffffffffffffffffffffffffffffffff02191690559055505056fe456e756d657261626c655365743a20696e646578206f7574206f6620626f756e6473526f6c65733a2063616c6c657220646f6573206e6f742068617665207468652067656e6572616c20706172746e657220726f6c65416363657373436f6e74726f6c3a2073656e646572206d75737420626520616e2061646d696e20746f206772616e744f776e61626c653a206e6577206f776e657220697320746865207a65726f2061646472657373416363657373436f6e74726f6c3a2073656e646572206d75737420626520616e2061646d696e20746f207265766f6b65416363657373436f6e74726f6c3a2063616e206f6e6c792072656e6f756e636520726f6c657320666f722073656c66a2646970667358221220badbeb7501db7ca00dbd808b698f7b49dd1fdd810c0e4854128ef134cb56821364736f6c63430006000033416363657373436f6e74726f6c3a2073656e646572206d75737420626520616e2061646d696e20746f206772616e74456e756d657261626c655365743a20696e646578206f7574206f6620626f756e6473526f6c65733a2063616c6c657220646f6573206e6f742068617665207468652067656e6572616c20706172746e657220726f6c65416363657373436f6e74726f6c3a2073656e646572206d75737420626520616e2061646d696e20746f206772616e74506f6f6c52656769737472793a20706f6f6c207769746820746869732061646472657373206e6f7420657869737473506f6f6c52656769737472793a207468652073656e64657220646f6573206e6f742068617665207065726d697373696f6e20746f207570646174654f776e61626c653a206e6577206f776e657220697320746865207a65726f2061646472657373416363657373436f6e74726f6c3a2073656e646572206d75737420626520616e2061646d696e20746f207265766f6b65506f6f6c52656769737472793a20706f6f6c20776974682074686973206164647265737320616c726561647920657869737473416363657373436f6e74726f6c3a2063616e206f6e6c792072656e6f756e636520726f6c657320666f722073656c66a2646970667358221220f1c63db6ea01baf21ef32fab6ec8a9178ab193838cf52a92f485a1380793814064736f6c63430006000033",
  "source": "pragma solidity ^0.6.0;\n\nimport \"./interface/IPool.sol\";\n\nimport \"./access/Roles.sol\";\nimport \"./InvestmentPool.sol\";\n\nimport \"./math/SafeMath.sol\";\nimport \"./utils/EnumerableSet.sol\";\n\ncontract PoolRegistry is Roles {\n    using SafeMath for uint256;\n    using EnumerableSet for EnumerableSet.AddressSet;\n\n    // Pool information\n    struct Pool {\n        address token;\n        uint256 locked;\n        uint256 rate;\n        uint256 interestFee;\n        uint256 anualPrecent;\n    }\n\n    // Collection of all pools\n    mapping(address => Pool) private _pools;\n    // Collection of all pool addresses\n    EnumerableSet.AddressSet private _addressesPools;\n\n    event CreatePool(address pool, address token, uint256 lock, uint256 rate, uint256 interestFee, uint256 anualPrecent);\n    event AddPool(address pool, address token, uint256 lock, uint256 rate, uint256 interestFee, uint256 anualPrecent);\n    event UpdatePool(address pool, uint256 lock, uint256 rate, uint256 interestFee, uint256 anualPrecent);\n\n    /**\n    * @dev Create new investment pool.\n    * @param token The address token contract for investment pool.\n    * @param locked The blocking period of assets.\n    * @param rate The address to query the wager of.\n    * @param interestFee The asset withdrawal commission.\n    * @param anualPrecent The annual percentage of tokens.\n    * @param superAdmin The An address that has privileges SUPER_ADMIN_ROLE.\n    * @param gPartner The An address that has privileges GENERAL_PARTNER_ROLE.\n    * @param lPartner The An address that has privileges LIMITED_PARTNER_ROLE.\n    * @param team The An address that has privileges TEAM_ROLE.\n    * @param sturtapTeam The An address that has privileges STURTAP_TEAM_ROLE.\n    * @param referer The An address that has privileges REFERER_ROLE.\n    * @return A boolean that indicates if the operation was successful.\n    */\n    function createPool(\n        address token,\n        uint256 locked,\n        uint256 rate,\n        uint256 interestFee,\n        uint256 anualPrecent,\n        address superAdmin,\n        address gPartner,\n        address lPartner,\n        address team,\n        address sturtapTeam,\n        address referer\n    ) public onlyGPartner returns (bool) {\n        InvestmentPool _poolContract = new InvestmentPool(\n            token,\n            locked,\n            rate,\n            interestFee,\n            anualPrecent,\n            superAdmin,\n            gPartner,\n            lPartner,\n            team,\n            sturtapTeam,\n            referer\n        );\n        address poolAddress = address(_poolContract);\n\n        _pools[poolAddress] = Pool(\n            token,\n            locked,\n            rate,\n            interestFee,\n            anualPrecent\n        );\n\n        _addressesPools.add(poolAddress);\n\n        emit CreatePool(poolAddress, token, locked, rate, interestFee, anualPrecent);\n        return true;\n    }\n    \n    /**\n    * @dev Add new smart contract investment pool.\n    * @param poolAddress The address investment pool.\n    * @return A boolean that indicates if the operation was successful.\n    */\n    function addPool(address poolAddress) public virtual returns (bool) {\n      require(poolAddress != address(0), \"PoolRegistry: pool zero address\");\n      require(!_addressesPools.contains(poolAddress), \"PoolRegistry: pool with this address already exists\");\n\n      IPool poolContract = IPool(poolAddress);\n\n      require(poolContract.hasRole(GENERAL_PARTNER_ROLE, msg.sender), \"PoolRegistry: the sender does not have permission to update\");\n\n      address _token = poolContract.token();\n      require(_token != address(0), \"PoolRegistry: token zero address\");\n\n      uint256 _locked = poolContract.locked();\n      uint256 _rate = poolContract.rate();\n      uint256 _interestFee = poolContract.interestFee();\n      uint256 _anualPrecent = poolContract.anualPrecent();\n      \n      _pools[poolAddress] = Pool(\n            _token,\n            poolContract.locked(),\n            poolContract.rate(),\n            poolContract.interestFee(),\n            poolContract.anualPrecent()\n          );\n      \n      _addressesPools.add(poolAddress);\n\n      emit AddPool(poolAddress, _token, _locked, _rate, _interestFee, _anualPrecent);\n      return true;\n    }\n\n    /**\n    * @dev Update smart contract investment pool.\n    * @param pool The address investment pool.\n    * @param lock The blocking period of assets.\n    * @param rate The address to query the wager of.\n    * @param interestFee The asset withdrawal commission.\n    * @param anualPrecent The annual percentage of tokens.\n    * @return A boolean that indicates if the operation was successful.\n    */\n    function updatePool(address pool, uint256 lock, uint256 rate, uint256 interestFee, uint256 anualPrecent) public virtual returns (bool) {\n        require(pool != address(0), \"PoolRegistry: pool zero address\");\n        require(_addressesPools.contains(pool), \"PoolRegistry: pool with this address not exists\");\n\n        IPool poolContract = IPool(pool);\n        \n        require(poolContract.hasRole(GENERAL_PARTNER_ROLE, msg.sender), \"PoolRegistry: the sender does not have permission to update\");\n        \n        poolContract.setLock(lock);\n        poolContract.setRate(rate);\n        poolContract.setInterestFee(interestFee);\n        poolContract.setAnnualPrecent(anualPrecent);\n        \n        _pools[pool].locked = lock;\n        _pools[pool].rate = rate;\n        _pools[pool].interestFee = interestFee;\n        _pools[pool].anualPrecent = anualPrecent;\n        \n        emit UpdatePool(pool, lock, rate, interestFee, anualPrecent);\n        return true;\n    }\n\n    /**\n    * @param pool The address investment pool.\n    */\n    function getPollInfo(address pool) public view returns(address token, uint256 lock, uint256 rate, uint256 interestFee, uint256 anualPrecent) {\n        require(pool != address(0), \"PoolRegistry: pool zero address\");\n        require(_addressesPools.contains(pool), \"PoolRegistry: pool with this address not exists\");\n        \n        return (\n            _pools[pool].token,\n            _pools[pool].locked,\n            _pools[pool].rate,\n            _pools[pool].interestFee,\n            _pools[pool].anualPrecent\n            );\n    }\n    \n    /**\n    * @return the all investment pool addresses.\n    */\n    function getPools() public view returns (address[] memory) {\n        return _addressesPools.collection();\n    }\n}",
  "sourcePath": "/home/mitgen/Private Projects/DeFi/poolRegistry/contracts/PoolRegistry.sol",
  "compiler": {
    "name": "solc",
    "version": "0.6.0+commit.26b70077.Emscripten.clang"
  },
  "schemaVersion": "3.2.3",
  "updatedAt": "2020-12-06T17:57:23.986Z",
  "devdoc": {
    "methods": {
      "addAdmin(bytes32,address)": {
        "details": "Create and ading new role.",
        "params": {
          "account": "account for adding to the role.",
          "role": "role account."
        }
      },
      "addPool(address)": {
        "details": "Add new smart contract investment pool.",
        "params": {
          "poolAddress": "The address investment pool."
        },
        "returns": {
          "_0": "A boolean that indicates if the operation was successful."
        }
      },
      "createPool(address,uint256,uint256,uint256,uint256,address,address,address,address,address,address)": {
        "details": "Create new investment pool.",
        "params": {
          "anualPrecent": "The annual percentage of tokens.",
          "gPartner": "The An address that has privileges GENERAL_PARTNER_ROLE.",
          "interestFee": "The asset withdrawal commission.",
          "lPartner": "The An address that has privileges LIMITED_PARTNER_ROLE.",
          "locked": "The blocking period of assets.",
          "rate": "The address to query the wager of.",
          "referer": "The An address that has privileges REFERER_ROLE.",
          "sturtapTeam": "The An address that has privileges STURTAP_TEAM_ROLE.",
          "superAdmin": "The An address that has privileges SUPER_ADMIN_ROLE.",
          "team": "The An address that has privileges TEAM_ROLE.",
          "token": "The address token contract for investment pool."
        },
        "returns": {
          "_0": "A boolean that indicates if the operation was successful."
        }
      },
      "finalize()": {
        "details": "Block adding admins."
      },
      "getMembersRole(bytes32)": {
        "details": "Returns the admin role that controls `role`. See {grantRole} and {revokeRole}.     * To change a role's admin, use {_setRoleAdmin}."
      },
      "getPollInfo(address)": {
        "params": {
          "pool": "The address investment pool."
        }
      },
      "getRoleAdmin(bytes32)": {
        "details": "Returns the admin role that controls `role`. See {grantRole} and {revokeRole}.     * To change a role's admin, use {_setRoleAdmin}."
      },
      "getRoleMember(bytes32,uint256)": {
        "details": "Returns one of the accounts that have `role`. `index` must be a value between 0 and {getRoleMemberCount}, non-inclusive.     * Role bearers are not sorted in any particular way, and their ordering may change at any point.     * WARNING: When using {getRoleMember} and {getRoleMemberCount}, make sure you perform all queries on the same block. See the following https://forum.openzeppelin.com/t/iterating-over-elements-on-enumerableset-in-openzeppelin-contracts/2296[forum post] for more information."
      },
      "getRoleMemberCount(bytes32)": {
        "details": "Returns the number of accounts that have `role`. Can be used together with {getRoleMember} to enumerate all bearers of a role."
      },
      "grantRole(bytes32,address)": {
        "details": "Grants `role` to `account`.     * If `account` had not been already granted `role`, emits a {RoleGranted} event.     * Requirements:     * - the caller must have ``role``'s admin role."
      },
      "hasRole(bytes32,address)": {
        "details": "Returns `true` if `account` has been granted `role`."
      },
      "owner()": {
        "details": "Returns the address of the current owner."
      },
      "renounceOwnership()": {
        "details": "Leaves the contract without owner. It will not be possible to call `onlyOwner` functions anymore. Can only be called by the current owner.     * NOTE: Renouncing ownership will leave the contract without an owner, thereby removing any functionality that is only available to the owner."
      },
      "renounceRole(bytes32,address)": {
        "details": "Revokes `role` from the calling account.     * Roles are often managed via {grantRole} and {revokeRole}: this function's purpose is to provide a mechanism for accounts to lose their privileges if they are compromised (such as when a trusted device is misplaced).     * If the calling account had been granted `role`, emits a {RoleRevoked} event.     * Requirements:     * - the caller must be `account`."
      },
      "revokeRole(bytes32,address)": {
        "details": "Revokes `role` from `account`.     * If `account` had been granted `role`, emits a {RoleRevoked} event.     * Requirements:     * - the caller must have ``role``'s admin role."
      },
      "transferOwnership(address)": {
        "details": "Transfers ownership of the contract to a new account (`newOwner`). Can only be called by the current owner."
      },
      "updatePool(address,uint256,uint256,uint256,uint256)": {
        "details": "Update smart contract investment pool.",
        "params": {
          "anualPrecent": "The annual percentage of tokens.",
          "interestFee": "The asset withdrawal commission.",
          "lock": "The blocking period of assets.",
          "pool": "The address investment pool.",
          "rate": "The address to query the wager of."
        },
        "returns": {
          "_0": "A boolean that indicates if the operation was successful."
        }
      }
    }
  },
  "userdoc": {
    "methods": {}
  }
}