{
  "contractName": "Roles",
  "abi": [
    {
      "constant": true,
      "inputs": [],
      "name": "ORACLE_ROLE",
      "outputs": [
        {
          "name": "",
          "type": "bytes32"
        }
      ],
      "payable": false,
      "stateMutability": "view",
      "type": "function"
    },
    {
      "constant": true,
      "inputs": [
        {
          "name": "role",
          "type": "bytes32"
        }
      ],
      "name": "getRoleAdmin",
      "outputs": [
        {
          "name": "",
          "type": "bytes32"
        }
      ],
      "payable": false,
      "stateMutability": "view",
      "type": "function"
    },
    {
      "constant": false,
      "inputs": [
        {
          "name": "role",
          "type": "bytes32"
        },
        {
          "name": "account",
          "type": "address"
        }
      ],
      "name": "grantRole",
      "outputs": [],
      "payable": false,
      "stateMutability": "nonpayable",
      "type": "function"
    },
    {
      "constant": false,
      "inputs": [
        {
          "name": "role",
          "type": "bytes32"
        },
        {
          "name": "account",
          "type": "address"
        }
      ],
      "name": "renounceRole",
      "outputs": [],
      "payable": false,
      "stateMutability": "nonpayable",
      "type": "function"
    },
    {
      "constant": true,
      "inputs": [],
      "name": "TEAM_ROLE",
      "outputs": [
        {
          "name": "",
          "type": "bytes32"
        }
      ],
      "payable": false,
      "stateMutability": "view",
      "type": "function"
    },
    {
      "constant": true,
      "inputs": [],
      "name": "REFERER_ROLE",
      "outputs": [
        {
          "name": "",
          "type": "bytes32"
        }
      ],
      "payable": false,
      "stateMutability": "view",
      "type": "function"
    },
    {
      "constant": false,
      "inputs": [],
      "name": "renounceOwnership",
      "outputs": [],
      "payable": false,
      "stateMutability": "nonpayable",
      "type": "function"
    },
    {
      "constant": true,
      "inputs": [],
      "name": "owner",
      "outputs": [
        {
          "name": "",
          "type": "address"
        }
      ],
      "payable": false,
      "stateMutability": "view",
      "type": "function"
    },
    {
      "constant": true,
      "inputs": [],
      "name": "isOwner",
      "outputs": [
        {
          "name": "",
          "type": "bool"
        }
      ],
      "payable": false,
      "stateMutability": "view",
      "type": "function"
    },
    {
      "constant": true,
      "inputs": [
        {
          "name": "role",
          "type": "bytes32"
        },
        {
          "name": "index",
          "type": "uint256"
        }
      ],
      "name": "getRoleMember",
      "outputs": [
        {
          "name": "",
          "type": "address"
        }
      ],
      "payable": false,
      "stateMutability": "view",
      "type": "function"
    },
    {
      "constant": true,
      "inputs": [
        {
          "name": "role",
          "type": "bytes32"
        },
        {
          "name": "account",
          "type": "address"
        }
      ],
      "name": "hasRole",
      "outputs": [
        {
          "name": "",
          "type": "bool"
        }
      ],
      "payable": false,
      "stateMutability": "view",
      "type": "function"
    },
    {
      "constant": true,
      "inputs": [],
      "name": "DEFAULT_ADMIN_ROLE",
      "outputs": [
        {
          "name": "",
          "type": "bytes32"
        }
      ],
      "payable": false,
      "stateMutability": "view",
      "type": "function"
    },
    {
      "constant": true,
      "inputs": [],
      "name": "STURTAP_TEAM_ROLE",
      "outputs": [
        {
          "name": "",
          "type": "bytes32"
        }
      ],
      "payable": false,
      "stateMutability": "view",
      "type": "function"
    },
    {
      "constant": true,
      "inputs": [
        {
          "name": "role",
          "type": "bytes32"
        }
      ],
      "name": "getRoleMemberCount",
      "outputs": [
        {
          "name": "",
          "type": "uint256"
        }
      ],
      "payable": false,
      "stateMutability": "view",
      "type": "function"
    },
    {
      "constant": false,
      "inputs": [
        {
          "name": "role",
          "type": "bytes32"
        },
        {
          "name": "account",
          "type": "address"
        }
      ],
      "name": "revokeRole",
      "outputs": [],
      "payable": false,
      "stateMutability": "nonpayable",
      "type": "function"
    },
    {
      "constant": false,
      "inputs": [
        {
          "name": "newOwner",
          "type": "address"
        }
      ],
      "name": "transferOwnership",
      "outputs": [],
      "payable": false,
      "stateMutability": "nonpayable",
      "type": "function"
    },
    {
      "inputs": [],
      "payable": false,
      "stateMutability": "nonpayable",
      "type": "constructor"
    },
    {
      "anonymous": false,
      "inputs": [],
      "name": "Finalized",
      "type": "event"
    },
    {
      "anonymous": false,
      "inputs": [
        {
          "indexed": true,
          "name": "previousOwner",
          "type": "address"
        },
        {
          "indexed": true,
          "name": "newOwner",
          "type": "address"
        }
      ],
      "name": "OwnershipTransferred",
      "type": "event"
    },
    {
      "anonymous": false,
      "inputs": [
        {
          "indexed": true,
          "name": "role",
          "type": "bytes32"
        },
        {
          "indexed": true,
          "name": "account",
          "type": "address"
        },
        {
          "indexed": true,
          "name": "sender",
          "type": "address"
        }
      ],
      "name": "RoleGranted",
      "type": "event"
    },
    {
      "anonymous": false,
      "inputs": [
        {
          "indexed": true,
          "name": "role",
          "type": "bytes32"
        },
        {
          "indexed": true,
          "name": "account",
          "type": "address"
        },
        {
          "indexed": true,
          "name": "sender",
          "type": "address"
        }
      ],
      "name": "RoleRevoked",
      "type": "event"
    },
    {
      "constant": false,
      "inputs": [
        {
          "name": "role",
          "type": "bytes32"
        },
        {
          "name": "account",
          "type": "address"
        }
      ],
      "name": "addAdmin",
      "outputs": [
        {
          "name": "",
          "type": "bool"
        }
      ],
      "payable": false,
      "stateMutability": "nonpayable",
      "type": "function"
    },
    {
      "constant": false,
      "inputs": [],
      "name": "finalize",
      "outputs": [],
      "payable": false,
      "stateMutability": "nonpayable",
      "type": "function"
    }
  ],
  "bytecode": "0x60806040526000600160146101000a81548160ff0219169083151502179055503480156200002c57600080fd5b5033600160006101000a81548173ffffffffffffffffffffffffffffffffffffffff021916908373ffffffffffffffffffffffffffffffffffffffff160217905550600160009054906101000a900473ffffffffffffffffffffffffffffffffffffffff1673ffffffffffffffffffffffffffffffffffffffff16600073ffffffffffffffffffffffffffffffffffffffff167f8be0079c531659141344cd1fd0a4f28419497f9722a3daafe3b4186f6b6457e060405160405180910390a36200017060405180807f47454e4552414c5f504152544e45525f524f4c450000000000000000000000008152506014019050604051809103902060405180807f53555045525f41444d494e5f524f4c4500000000000000000000000000000000815250601001905060405180910390206200040f640100000000026401000000009004565b620001f560405180807f4c494d495445445f504152544e45525f524f4c450000000000000000000000008152506014019050604051809103902060405180807f53555045525f41444d494e5f524f4c4500000000000000000000000000000000815250601001905060405180910390206200040f640100000000026401000000009004565b6200027a60405180807f5445414d5f524f4c4500000000000000000000000000000000000000000000008152506009019050604051809103902060405180807f53555045525f41444d494e5f524f4c4500000000000000000000000000000000815250601001905060405180910390206200040f640100000000026401000000009004565b620002ff60405180807f535455525441505f5445414d5f524f4c450000000000000000000000000000008152506011019050604051809103902060405180807f53555045525f41444d494e5f524f4c4500000000000000000000000000000000815250601001905060405180910390206200040f640100000000026401000000009004565b6200038460405180807f524546455245525f524f4c450000000000000000000000000000000000000000815250600c019050604051809103902060405180807f53555045525f41444d494e5f524f4c4500000000000000000000000000000000815250601001905060405180910390206200040f640100000000026401000000009004565b6200040960405180807f4f5241434c455f524f4c45000000000000000000000000000000000000000000815250600b019050604051809103902060405180807f53555045525f41444d494e5f524f4c4500000000000000000000000000000000815250601001905060405180910390206200040f640100000000026401000000009004565b62000439565b80600080846000191660001916815260200190815260200160002060020181600019169055505050565b61154380620004496000396000f3006080604052600436106100fc576000357c0100000000000000000000000000000000000000000000000000000000900463ffffffff16806307e2cea514610101578063248a9ca3146101345780632f2ff15d1461018157806336568abe146101d257806349d5e604146102235780634bb278f3146102565780635ac8b0051461026d5780636419bcdb146102a0578063715018a6146103095780638da5cb5b146103205780638f32d59b146103775780639010d07c146103a657806391d1485414610421578063a217fddf1461048a578063ba12d087146104bd578063ca15c873146104f0578063d547741f14610535578063f2fde38b14610586575b600080fd5b34801561010d57600080fd5b506101166105c9565b60405180826000191660001916815260200191505060405180910390f35b34801561014057600080fd5b506101636004803603810190808035600019169060200190929190505050610602565b60405180826000191660001916815260200191505060405180910390f35b34801561018d57600080fd5b506101d06004803603810190808035600019169060200190929190803573ffffffffffffffffffffffffffffffffffffffff169060200190929190505050610629565b005b3480156101de57600080fd5b506102216004803603810190808035600019169060200190929190803573ffffffffffffffffffffffffffffffffffffffff1690602001909291905050506106f8565b005b34801561022f57600080fd5b506102386107cf565b60405180826000191660001916815260200191505060405180910390f35b34801561026257600080fd5b5061026b610808565b005b34801561027957600080fd5b50610282610951565b60405180826000191660001916815260200191505060405180910390f35b3480156102ac57600080fd5b506102ef6004803603810190808035600019169060200190929190803573ffffffffffffffffffffffffffffffffffffffff16906020019092919050505061098a565b604051808215151515815260200191505060405180910390f35b34801561031557600080fd5b5061031e610aa1565b005b34801561032c57600080fd5b50610335610bde565b604051808273ffffffffffffffffffffffffffffffffffffffff1673ffffffffffffffffffffffffffffffffffffffff16815260200191505060405180910390f35b34801561038357600080fd5b5061038c610c08565b604051808215151515815260200191505060405180910390f35b3480156103b257600080fd5b506103df600480360381019080803560001916906020019092919080359060200190929190505050610c60565b604051808273ffffffffffffffffffffffffffffffffffffffff1673ffffffffffffffffffffffffffffffffffffffff16815260200191505060405180910390f35b34801561042d57600080fd5b506104706004803603810190808035600019169060200190929190803573ffffffffffffffffffffffffffffffffffffffff169060200190929190505050610c99565b604051808215151515815260200191505060405180910390f35b34801561049657600080fd5b5061049f610cd2565b60405180826000191660001916815260200191505060405180910390f35b3480156104c957600080fd5b506104d2610cda565b60405180826000191660001916815260200191505060405180910390f35b3480156104fc57600080fd5b5061051f6004803603810190808035600019169060200190929190505050610d13565b6040518082815260200191505060405180910390f35b34801561054157600080fd5b506105846004803603810190808035600019169060200190929190803573ffffffffffffffffffffffffffffffffffffffff169060200190929190505050610d41565b005b34801561059257600080fd5b506105c7600480360381019080803573ffffffffffffffffffffffffffffffffffffffff169060200190929190505050610e10565b005b60405180807f4f5241434c455f524f4c45000000000000000000000000000000000000000000815250600b019050604051809103902081565b60008060008360001916600019168152602001908152602001600020600201549050919050565b61065060008084600019166000191681526020019081526020016000206002015433610c99565b15156106ea576040517f08c379a000000000000000000000000000000000000000000000000000000000815260040180806020018281038252602f8152602001807f416363657373436f6e74726f6c3a2073656e646572206d75737420626520616e81526020017f2061646d696e20746f206772616e74000000000000000000000000000000000081525060400191505060405180910390fd5b6106f48282610e98565b5050565b3373ffffffffffffffffffffffffffffffffffffffff168173ffffffffffffffffffffffffffffffffffffffff161415156107c1576040517f08c379a000000000000000000000000000000000000000000000000000000000815260040180806020018281038252602f8152602001807f416363657373436f6e74726f6c3a2063616e206f6e6c792072656e6f756e636581526020017f20726f6c657320666f722073656c66000000000000000000000000000000000081525060400191505060405180910390fd5b6107cb8282610f30565b5050565b60405180807f5445414d5f524f4c4500000000000000000000000000000000000000000000008152506009019050604051809103902081565b610810610c08565b1515610884576040517f08c379a00000000000000000000000000000000000000000000000000000000081526004018080602001828103825260208152602001807f4f776e61626c653a2063616c6c6572206973206e6f7420746865206f776e657281525060200191505060405180910390fd5b600160149054906101000a900460ff16151515610909576040517f08c379a000000000000000000000000000000000000000000000000000000000815260040180806020018281038252601e8152602001807f4d616e61676572526f6c653a20616c72656164792066696e616c697a6564000081525060200191505060405180910390fd5b60018060146101000a81548160ff0219169083151502179055507f6823b073d48d6e3a7d385eeb601452d680e74bb46afe3255a7d778f3a9b1768160405160405180910390a1565b60405180807f524546455245525f524f4c450000000000000000000000000000000000000000815250600c019050604051809103902081565b6000610994610c08565b1515610a08576040517f08c379a00000000000000000000000000000000000000000000000000000000081526004018080602001828103825260208152602001807f4f776e61626c653a2063616c6c6572206973206e6f7420746865206f776e657281525060200191505060405180910390fd5b600160149054906101000a900460ff16151515610a8d576040517f08c379a000000000000000000000000000000000000000000000000000000000815260040180806020018281038252601e8152602001807f4d616e61676572526f6c653a20616c72656164792066696e616c697a6564000081525060200191505060405180910390fd5b610a978383610fc8565b6001905092915050565b610aa9610c08565b1515610b1d576040517f08c379a00000000000000000000000000000000000000000000000000000000081526004018080602001828103825260208152602001807f4f776e61626c653a2063616c6c6572206973206e6f7420746865206f776e657281525060200191505060405180910390fd5b600073ffffffffffffffffffffffffffffffffffffffff16600160009054906101000a900473ffffffffffffffffffffffffffffffffffffffff1673ffffffffffffffffffffffffffffffffffffffff167f8be0079c531659141344cd1fd0a4f28419497f9722a3daafe3b4186f6b6457e060405160405180910390a36000600160006101000a81548173ffffffffffffffffffffffffffffffffffffffff021916908373ffffffffffffffffffffffffffffffffffffffff160217905550565b6000600160009054906101000a900473ffffffffffffffffffffffffffffffffffffffff16905090565b6000600160009054906101000a900473ffffffffffffffffffffffffffffffffffffffff1673ffffffffffffffffffffffffffffffffffffffff163373ffffffffffffffffffffffffffffffffffffffff1614905090565b6000610c91826000808660001916600019168152602001908152602001600020600001610fd690919063ffffffff16565b905092915050565b6000610cca826000808660001916600019168152602001908152602001600020600001610ff190919063ffffffff16565b905092915050565b600060010281565b60405180807f535455525441505f5445414d5f524f4c450000000000000000000000000000008152506011019050604051809103902081565b6000610d3a6000808460001916600019168152602001908152602001600020600001611021565b9050919050565b610d6860008084600019166000191681526020019081526020016000206002015433610c99565b1515610e02576040517f08c379a00000000000000000000000000000000000000000000000000000000081526004018080602001828103825260308152602001807f416363657373436f6e74726f6c3a2073656e646572206d75737420626520616e81526020017f2061646d696e20746f207265766f6b650000000000000000000000000000000081525060400191505060405180910390fd5b610e0c8282610f30565b5050565b610e18610c08565b1515610e8c576040517f08c379a00000000000000000000000000000000000000000000000000000000081526004018080602001828103825260208152602001807f4f776e61626c653a2063616c6c6572206973206e6f7420746865206f776e657281525060200191505060405180910390fd5b610e9581611036565b50565b610ec78160008085600019166000191681526020019081526020016000206000016111c190919063ffffffff16565b15610f2c573373ffffffffffffffffffffffffffffffffffffffff168173ffffffffffffffffffffffffffffffffffffffff1683600019167f2f8788117e7eff1d82e926ec794901d17c78024a50270940304540a733656f0d60405160405180910390a45b5050565b610f5f8160008085600019166000191681526020019081526020016000206000016111f190919063ffffffff16565b15610fc4573373ffffffffffffffffffffffffffffffffffffffff168173ffffffffffffffffffffffffffffffffffffffff1683600019167ff6391f5c32d9c69d2a47ea670b442974b53935d1edc7fd64eb21e047a839171b60405160405180910390a45b5050565b610fd28282610e98565b5050565b6000610fe58360000183611221565b60019004905092915050565b6000611019836000018373ffffffffffffffffffffffffffffffffffffffff166001026112eb565b905092915050565b600061102f82600001611316565b9050919050565b600073ffffffffffffffffffffffffffffffffffffffff168173ffffffffffffffffffffffffffffffffffffffff1614151515611101576040517f08c379a00000000000000000000000000000000000000000000000000000000081526004018080602001828103825260268152602001807f4f776e61626c653a206e6577206f776e657220697320746865207a65726f206181526020017f646472657373000000000000000000000000000000000000000000000000000081525060400191505060405180910390fd5b8073ffffffffffffffffffffffffffffffffffffffff16600160009054906101000a900473ffffffffffffffffffffffffffffffffffffffff1673ffffffffffffffffffffffffffffffffffffffff167f8be0079c531659141344cd1fd0a4f28419497f9722a3daafe3b4186f6b6457e060405160405180910390a380600160006101000a81548173ffffffffffffffffffffffffffffffffffffffff021916908373ffffffffffffffffffffffffffffffffffffffff16021790555050565b60006111e9836000018373ffffffffffffffffffffffffffffffffffffffff16600102611327565b905092915050565b6000611219836000018373ffffffffffffffffffffffffffffffffffffffff166001026113aa565b905092915050565b60008183600001805490501115156112c7576040517f08c379a00000000000000000000000000000000000000000000000000000000081526004018080602001828103825260228152602001807f456e756d657261626c655365743a20696e646578206f7574206f6620626f756e81526020017f647300000000000000000000000000000000000000000000000000000000000081525060400191505060405180910390fd5b82600001828154811015156112d857fe5b9060005260206000200154905092915050565b6000808360010160008460001916600019168152602001908152602001600020541415905092915050565b600081600001805490509050919050565b600061133383836112eb565b151561139f57826000018290806001815401808255809150509060018203906000526020600020016000909192909190915090600019169055508260000180549050836001016000846000191660001916815260200190815260200160002081905550600190506113a4565b600090505b92915050565b600080600080600086600101600087600019166000191681526020019081526020016000205493506000841415156114b75760018403925060018760000180549050039150866000018281548110151561140057fe5b9060005260206000200154905080876000018481548110151561141f57fe5b90600052602060002001816000191690555060018301876001016000836000191660001916815260200190815260200160002081905550866000018281548110151561146757fe5b90600052602060002001600090558660000180548091906001900361148c91906114c6565b50866001016000876000191660001916815260200190815260200160002060009055600194506114bc565b600094505b5050505092915050565b8154818355818111156114ed578183600052602060002091820191016114ec91906114f2565b5b505050565b61151491905b808211156115105760008160009055506001016114f8565b5090565b905600a165627a7a723058208b3000368c062d0209cb8eaa5f9876eab9fc089082dbb4c4a421202153c5c0370029",
  "source": "pragma solidity ^0.4.25;\n\nimport \"./AccessControl.sol\";\nimport \"../ownership/Ownable.sol\";\nimport \"../interface/IRoleModel.sol\";\n\ncontract Roles is AccessControl, Ownable, IRoleModel {\n    bool private _finalized = false;\n    event Finalized();\n\n    modifier onlyAdmin() {\n        require(hasRole(SUPER_ADMIN_ROLE, msg.sender), \"Roles: caller does not have the super admin role role\");\n        _;\n    }\n\n    modifier onlyGPartner() {\n        require(hasRole(GENERAL_PARTNER_ROLE, msg.sender), \"Roles: caller does not have the general partner role\");\n        _;\n    }\n\n    modifier onlyLPartner() {\n        require(hasRole(LIMITED_PARTNER_ROLE, msg.sender), \"Roles: caller does not have the limited partner role\");\n        _;\n    }\n\n    modifier onlyTeam() {\n        require(hasRole(TEAM_ROLE, msg.sender), \"Roles: caller does not have the team role\");\n        _;\n    }\n\n    modifier onlySturtapTeam() {\n        require(hasRole(STURTAP_TEAM_ROLE, msg.sender), \"Roles: caller does not have the sturtap team role\");\n        _;\n    }\n\n    modifier onlyReferer() {\n        require(hasRole(REFERER_ROLE, msg.sender), \"Roles: caller does not have the referer role\");\n        _;\n    }\n\n    modifier onlyOracle() {\n        require(hasRole(ORACLE_ROLE, msg.sender), \"Roles: caller does not have the oracle role\");\n        _;\n    }\n\n    constructor () public {\n        _setRoleAdmin(GENERAL_PARTNER_ROLE, SUPER_ADMIN_ROLE);\n        _setRoleAdmin(LIMITED_PARTNER_ROLE, SUPER_ADMIN_ROLE);\n        _setRoleAdmin(TEAM_ROLE, SUPER_ADMIN_ROLE);\n        _setRoleAdmin(STURTAP_TEAM_ROLE, SUPER_ADMIN_ROLE);\n        _setRoleAdmin(REFERER_ROLE, SUPER_ADMIN_ROLE);\n        _setRoleAdmin(ORACLE_ROLE, SUPER_ADMIN_ROLE);\n    }\n\n    /**\n     * @dev Create and ading new role.\n     * @param role role account.\n     * @param account account for adding to the role.\n     */\n    function addAdmin(bytes32 role, address account) public onlyOwner returns (bool) {\n        require(!_finalized, \"ManagerRole: already finalized\");\n\n        _setupRole(role, account);\n        return true;\n    }\n\n    /**\n     * @dev Block adding admins.\n     */\n    function finalize() public onlyOwner {\n        require(!_finalized, \"ManagerRole: already finalized\");\n\n        _finalized = true;\n        emit Finalized();\n    }\n}",
  "sourcePath": "/home/mitgen/Private Projects/American/contracts/access/Roles.sol",
  "compiler": {
    "name": "solc",
    "version": "0.4.26+commit.4563c3fc.Emscripten.clang"
  },
  "schemaVersion": "3.2.3",
  "updatedAt": "2020-12-02T09:12:46.711Z",
  "devdoc": {
    "methods": {
      "addAdmin(bytes32,address)": {
        "details": "Create and ading new role.",
        "params": {
          "account": "account for adding to the role.",
          "role": "role account."
        }
      },
      "finalize()": {
        "details": "Block adding admins."
      },
      "getRoleAdmin(bytes32)": {
        "details": "Returns the admin role that controls `role`. See {grantRole} and {revokeRole}.     * To change a role's admin, use {_setRoleAdmin}."
      },
      "getRoleMember(bytes32,uint256)": {
        "details": "Returns one of the accounts that have `role`. `index` must be a value between 0 and {getRoleMemberCount}, non-inclusive.     * Role bearers are not sorted in any particular way, and their ordering may change at any point.     * WARNING: When using {getRoleMember} and {getRoleMemberCount}, make sure you perform all queries on the same block. See the following https://forum.openzeppelin.com/t/iterating-over-elements-on-enumerableset-in-openzeppelin-contracts/2296[forum post] for more information."
      },
      "getRoleMemberCount(bytes32)": {
        "details": "Returns the number of accounts that have `role`. Can be used together with {getRoleMember} to enumerate all bearers of a role."
      },
      "grantRole(bytes32,address)": {
        "details": "Grants `role` to `account`.     * If `account` had not been already granted `role`, emits a {RoleGranted} event.     * Requirements:     * - the caller must have ``role``'s admin role."
      },
      "hasRole(bytes32,address)": {
        "details": "Returns `true` if `account` has been granted `role`."
      },
      "isOwner()": {
        "return": "true if `msg.sender` is the owner of the contract."
      },
      "owner()": {
        "return": "the address of the owner."
      },
      "renounceOwnership()": {
        "details": "Allows the current owner to relinquish control of the contract. It will not be possible to call the functions with the `onlyOwner` modifier anymore."
      },
      "renounceRole(bytes32,address)": {
        "details": "Revokes `role` from the calling account.     * Roles are often managed via {grantRole} and {revokeRole}: this function's purpose is to provide a mechanism for accounts to lose their privileges if they are compromised (such as when a trusted device is misplaced).     * If the calling account had been granted `role`, emits a {RoleRevoked} event.     * Requirements:     * - the caller must be `account`."
      },
      "revokeRole(bytes32,address)": {
        "details": "Revokes `role` from `account`.     * If `account` had been granted `role`, emits a {RoleRevoked} event.     * Requirements:     * - the caller must have ``role``'s admin role."
      },
      "transferOwnership(address)": {
        "details": "Allows the current owner to transfer control of the contract to a newOwner.",
        "params": {
          "newOwner": "The address to transfer ownership to."
        }
      }
    }
  },
  "userdoc": {
    "methods": {
      "renounceOwnership()": {
        "notice": "Renouncing ownership will leave the contract without an owner, thereby removing any functionality that is only available to the owner."
      }
    }
  }
}