{
  "contractName": "InvestmentPool",
  "abi": [
    {
      "inputs": [
        {
          "internalType": "address",
          "name": "token",
          "type": "address"
        },
        {
          "internalType": "uint256",
          "name": "locked",
          "type": "uint256"
        },
        {
          "internalType": "uint256",
          "name": "rate",
          "type": "uint256"
        },
        {
          "internalType": "uint256",
          "name": "interestFee",
          "type": "uint256"
        },
        {
          "internalType": "uint256",
          "name": "anualPrecent",
          "type": "uint256"
        },
        {
          "internalType": "address",
          "name": "superAdmin",
          "type": "address"
        },
        {
          "internalType": "address",
          "name": "gPartner",
          "type": "address"
        },
        {
          "internalType": "address",
          "name": "lPartner",
          "type": "address"
        },
        {
          "internalType": "address",
          "name": "team",
          "type": "address"
        },
        {
          "internalType": "address",
          "name": "sturtapTeam",
          "type": "address"
        },
        {
          "internalType": "address",
          "name": "referer",
          "type": "address"
        },
        {
          "internalType": "address",
          "name": "poolRegistry",
          "type": "address"
        }
      ],
      "stateMutability": "nonpayable",
      "type": "constructor"
    },
    {
      "anonymous": false,
      "inputs": [],
      "name": "Finalized",
      "type": "event"
    },
    {
      "anonymous": false,
      "inputs": [
        {
          "indexed": true,
          "internalType": "address",
          "name": "previousOwner",
          "type": "address"
        },
        {
          "indexed": true,
          "internalType": "address",
          "name": "newOwner",
          "type": "address"
        }
      ],
      "name": "OwnershipTransferred",
      "type": "event"
    },
    {
      "anonymous": false,
      "inputs": [
        {
          "indexed": true,
          "internalType": "bytes32",
          "name": "role",
          "type": "bytes32"
        },
        {
          "indexed": true,
          "internalType": "address",
          "name": "account",
          "type": "address"
        },
        {
          "indexed": true,
          "internalType": "address",
          "name": "sender",
          "type": "address"
        }
      ],
      "name": "RoleGranted",
      "type": "event"
    },
    {
      "anonymous": false,
      "inputs": [
        {
          "indexed": true,
          "internalType": "bytes32",
          "name": "role",
          "type": "bytes32"
        },
        {
          "indexed": true,
          "internalType": "address",
          "name": "account",
          "type": "address"
        },
        {
          "indexed": true,
          "internalType": "address",
          "name": "sender",
          "type": "address"
        }
      ],
      "name": "RoleRevoked",
      "type": "event"
    },
    {
      "inputs": [],
      "name": "DEFAULT_ADMIN_ROLE",
      "outputs": [
        {
          "internalType": "bytes32",
          "name": "",
          "type": "bytes32"
        }
      ],
      "stateMutability": "view",
      "type": "function",
      "constant": true
    },
    {
      "inputs": [],
      "name": "GENERAL_PARTNER_ROLE",
      "outputs": [
        {
          "internalType": "bytes32",
          "name": "",
          "type": "bytes32"
        }
      ],
      "stateMutability": "view",
      "type": "function",
      "constant": true
    },
    {
      "inputs": [],
      "name": "LIMITED_PARTNER_ROLE",
      "outputs": [
        {
          "internalType": "bytes32",
          "name": "",
          "type": "bytes32"
        }
      ],
      "stateMutability": "view",
      "type": "function",
      "constant": true
    },
    {
      "inputs": [],
      "name": "ORACLE_ROLE",
      "outputs": [
        {
          "internalType": "bytes32",
          "name": "",
          "type": "bytes32"
        }
      ],
      "stateMutability": "view",
      "type": "function",
      "constant": true
    },
    {
      "inputs": [],
      "name": "POOL_REGISTRY",
      "outputs": [
        {
          "internalType": "bytes32",
          "name": "",
          "type": "bytes32"
        }
      ],
      "stateMutability": "view",
      "type": "function",
      "constant": true
    },
    {
      "inputs": [],
      "name": "REFERER_ROLE",
      "outputs": [
        {
          "internalType": "bytes32",
          "name": "",
          "type": "bytes32"
        }
      ],
      "stateMutability": "view",
      "type": "function",
      "constant": true
    },
    {
      "inputs": [],
      "name": "STURTAP_TEAM_ROLE",
      "outputs": [
        {
          "internalType": "bytes32",
          "name": "",
          "type": "bytes32"
        }
      ],
      "stateMutability": "view",
      "type": "function",
      "constant": true
    },
    {
      "inputs": [],
      "name": "SUPER_ADMIN_ROLE",
      "outputs": [
        {
          "internalType": "bytes32",
          "name": "",
          "type": "bytes32"
        }
      ],
      "stateMutability": "view",
      "type": "function",
      "constant": true
    },
    {
      "inputs": [],
      "name": "TEAM_ROLE",
      "outputs": [
        {
          "internalType": "bytes32",
          "name": "",
          "type": "bytes32"
        }
      ],
      "stateMutability": "view",
      "type": "function",
      "constant": true
    },
    {
      "inputs": [
        {
          "internalType": "bytes32",
          "name": "role",
          "type": "bytes32"
        },
        {
          "internalType": "address",
          "name": "account",
          "type": "address"
        }
      ],
      "name": "addAdmin",
      "outputs": [
        {
          "internalType": "bool",
          "name": "",
          "type": "bool"
        }
      ],
      "stateMutability": "nonpayable",
      "type": "function"
    },
    {
      "inputs": [],
      "name": "finalize",
      "outputs": [],
      "stateMutability": "nonpayable",
      "type": "function"
    },
    {
      "inputs": [
        {
          "internalType": "bytes32",
          "name": "role",
          "type": "bytes32"
        }
      ],
      "name": "getMembersRole",
      "outputs": [
        {
          "internalType": "address[]",
          "name": "Accounts",
          "type": "address[]"
        }
      ],
      "stateMutability": "view",
      "type": "function",
      "constant": true
    },
    {
      "inputs": [
        {
          "internalType": "bytes32",
          "name": "role",
          "type": "bytes32"
        }
      ],
      "name": "getRoleAdmin",
      "outputs": [
        {
          "internalType": "bytes32",
          "name": "",
          "type": "bytes32"
        }
      ],
      "stateMutability": "view",
      "type": "function",
      "constant": true
    },
    {
      "inputs": [
        {
          "internalType": "bytes32",
          "name": "role",
          "type": "bytes32"
        },
        {
          "internalType": "uint256",
          "name": "index",
          "type": "uint256"
        }
      ],
      "name": "getRoleMember",
      "outputs": [
        {
          "internalType": "address",
          "name": "",
          "type": "address"
        }
      ],
      "stateMutability": "view",
      "type": "function",
      "constant": true
    },
    {
      "inputs": [
        {
          "internalType": "bytes32",
          "name": "role",
          "type": "bytes32"
        }
      ],
      "name": "getRoleMemberCount",
      "outputs": [
        {
          "internalType": "uint256",
          "name": "",
          "type": "uint256"
        }
      ],
      "stateMutability": "view",
      "type": "function",
      "constant": true
    },
    {
      "inputs": [
        {
          "internalType": "bytes32",
          "name": "role",
          "type": "bytes32"
        },
        {
          "internalType": "address",
          "name": "account",
          "type": "address"
        }
      ],
      "name": "grantRole",
      "outputs": [],
      "stateMutability": "nonpayable",
      "type": "function"
    },
    {
      "inputs": [
        {
          "internalType": "bytes32",
          "name": "role",
          "type": "bytes32"
        },
        {
          "internalType": "address",
          "name": "account",
          "type": "address"
        }
      ],
      "name": "hasRole",
      "outputs": [
        {
          "internalType": "bool",
          "name": "",
          "type": "bool"
        }
      ],
      "stateMutability": "view",
      "type": "function",
      "constant": true
    },
    {
      "inputs": [],
      "name": "owner",
      "outputs": [
        {
          "internalType": "address",
          "name": "",
          "type": "address"
        }
      ],
      "stateMutability": "view",
      "type": "function",
      "constant": true
    },
    {
      "inputs": [
        {
          "internalType": "bytes32",
          "name": "role",
          "type": "bytes32"
        },
        {
          "internalType": "address",
          "name": "account",
          "type": "address"
        }
      ],
      "name": "renounceRole",
      "outputs": [],
      "stateMutability": "nonpayable",
      "type": "function"
    },
    {
      "inputs": [
        {
          "internalType": "bytes32",
          "name": "role",
          "type": "bytes32"
        },
        {
          "internalType": "address",
          "name": "account",
          "type": "address"
        }
      ],
      "name": "revokeRole",
      "outputs": [],
      "stateMutability": "nonpayable",
      "type": "function"
    },
    {
      "inputs": [],
      "name": "token",
      "outputs": [
        {
          "internalType": "address",
          "name": "",
          "type": "address"
        }
      ],
      "stateMutability": "view",
      "type": "function",
      "constant": true
    },
    {
      "inputs": [],
      "name": "locked",
      "outputs": [
        {
          "internalType": "uint256",
          "name": "",
          "type": "uint256"
        }
      ],
      "stateMutability": "view",
      "type": "function",
      "constant": true
    },
    {
      "inputs": [],
      "name": "rate",
      "outputs": [
        {
          "internalType": "uint256",
          "name": "",
          "type": "uint256"
        }
      ],
      "stateMutability": "view",
      "type": "function",
      "constant": true
    },
    {
      "inputs": [],
      "name": "interestFee",
      "outputs": [
        {
          "internalType": "uint256",
          "name": "",
          "type": "uint256"
        }
      ],
      "stateMutability": "view",
      "type": "function",
      "constant": true
    },
    {
      "inputs": [],
      "name": "anualPrecent",
      "outputs": [
        {
          "internalType": "uint256",
          "name": "",
          "type": "uint256"
        }
      ],
      "stateMutability": "view",
      "type": "function",
      "constant": true
    },
    {
      "inputs": [
        {
          "internalType": "uint256",
          "name": "lock",
          "type": "uint256"
        }
      ],
      "name": "setLock",
      "outputs": [
        {
          "internalType": "bool",
          "name": "",
          "type": "bool"
        }
      ],
      "stateMutability": "nonpayable",
      "type": "function"
    },
    {
      "inputs": [
        {
          "internalType": "uint256",
          "name": "rate",
          "type": "uint256"
        }
      ],
      "name": "setRate",
      "outputs": [
        {
          "internalType": "bool",
          "name": "",
          "type": "bool"
        }
      ],
      "stateMutability": "nonpayable",
      "type": "function"
    },
    {
      "inputs": [
        {
          "internalType": "uint256",
          "name": "fee",
          "type": "uint256"
        }
      ],
      "name": "setInterestFee",
      "outputs": [
        {
          "internalType": "bool",
          "name": "",
          "type": "bool"
        }
      ],
      "stateMutability": "nonpayable",
      "type": "function"
    },
    {
      "inputs": [
        {
          "internalType": "uint256",
          "name": "precent",
          "type": "uint256"
        }
      ],
      "name": "setAnnualPrecent",
      "outputs": [
        {
          "internalType": "bool",
          "name": "",
          "type": "bool"
        }
      ],
      "stateMutability": "nonpayable",
      "type": "function"
    }
  ],
  "bytecode": "0x60806040526000600260146101000a81548160ff021916908315150217905550600360009054906101000a900473ffffffffffffffffffffffffffffffffffffffff16600460006101000a81548173ffffffffffffffffffffffffffffffffffffffff021916908373ffffffffffffffffffffffffffffffffffffffff1602179055503480156200008f57600080fd5b5060405162002b7138038062002b718339818101604052610180811015620000b657600080fd5b810190808051906020019092919080519060200190929190805190602001909291908051906020019092919080519060200190929190805190602001909291908051906020019092919080519060200190929190805190602001909291908051906020019092919080519060200190929190805190602001909291905050506000620001476200081260201b60201c565b905080600260006101000a81548173ffffffffffffffffffffffffffffffffffffffff021916908373ffffffffffffffffffffffffffffffffffffffff1602179055508073ffffffffffffffffffffffffffffffffffffffff16600073ffffffffffffffffffffffffffffffffffffffff167f8be0079c531659141344cd1fd0a4f28419497f9722a3daafe3b4186f6b6457e060405160405180910390a3506200026260405180807f47454e4552414c5f504152544e45525f524f4c450000000000000000000000008152506014019050604051809103902060405180807f53555045525f41444d494e5f524f4c4500000000000000000000000000000000815250601001905060405180910390206200081a60201b60201c565b620002de60405180807f4c494d495445445f504152544e45525f524f4c450000000000000000000000008152506014019050604051809103902060405180807f53555045525f41444d494e5f524f4c4500000000000000000000000000000000815250601001905060405180910390206200081a60201b60201c565b6200035a60405180807f5445414d5f524f4c4500000000000000000000000000000000000000000000008152506009019050604051809103902060405180807f53555045525f41444d494e5f524f4c4500000000000000000000000000000000815250601001905060405180910390206200081a60201b60201c565b620003d660405180807f535455525441505f5445414d5f524f4c450000000000000000000000000000008152506011019050604051809103902060405180807f53555045525f41444d494e5f524f4c4500000000000000000000000000000000815250601001905060405180910390206200081a60201b60201c565b6200045260405180807f524546455245525f524f4c450000000000000000000000000000000000000000815250600c019050604051809103902060405180807f53555045525f41444d494e5f524f4c4500000000000000000000000000000000815250601001905060405180910390206200081a60201b60201c565b620004ce60405180807f4f5241434c455f524f4c45000000000000000000000000000000000000000000815250600b019050604051809103902060405180807f53555045525f41444d494e5f524f4c4500000000000000000000000000000000815250601001905060405180910390206200081a60201b60201c565b6200054a60405180807f504f4f4c5f524547495354525900000000000000000000000000000000000000815250600d019050604051809103902060405180807f53555045525f41444d494e5f524f4c4500000000000000000000000000000000815250601001905060405180910390206200081a60201b60201c565b8b600360006101000a81548173ffffffffffffffffffffffffffffffffffffffff021916908373ffffffffffffffffffffffffffffffffffffffff1602179055508a600581905550896006819055508860078190555087600881905550620005f360405180807f53555045525f41444d494e5f524f4c450000000000000000000000000000000081525060100190506040518091039020336200083860201b62000d8f1760201c565b506200064060405180807f53555045525f41444d494e5f524f4c450000000000000000000000000000000081525060100190506040518091039020886200083860201b62000d8f1760201c565b5062000656620009ad60201b62000b1a1760201c565b6200069d60405180807f47454e4552414c5f504152544e45525f524f4c45000000000000000000000000815250601401905060405180910390208762000b4d60201b60201c565b620006e460405180807f4c494d495445445f504152544e45525f524f4c45000000000000000000000000815250601401905060405180910390208662000b4d60201b60201c565b6200072b60405180807f5445414d5f524f4c450000000000000000000000000000000000000000000000815250600901905060405180910390208562000b4d60201b60201c565b6200077260405180807f535455525441505f5445414d5f524f4c45000000000000000000000000000000815250601101905060405180910390208462000b4d60201b60201c565b620007b960405180807f524546455245525f524f4c450000000000000000000000000000000000000000815250600c01905060405180910390208362000b4d60201b60201c565b6200080060405180807f504f4f4c5f524547495354525900000000000000000000000000000000000000815250600d01905060405180910390208262000b4d60201b60201c565b50505050505050505050505062000ec9565b600033905090565b80600080848152602001908152602001600020600301819055505050565b60006200084a6200081260201b60201c565b73ffffffffffffffffffffffffffffffffffffffff16600260009054906101000a900473ffffffffffffffffffffffffffffffffffffffff1673ffffffffffffffffffffffffffffffffffffffff16146200090d576040517f08c379a00000000000000000000000000000000000000000000000000000000081526004018080602001828103825260208152602001807f4f776e61626c653a2063616c6c6572206973206e6f7420746865206f776e657281525060200191505060405180910390fd5b600260149054906101000a900460ff161562000991576040517f08c379a000000000000000000000000000000000000000000000000000000000815260040180806020018281038252601e8152602001807f4d616e61676572526f6c653a20616c72656164792066696e616c697a6564000081525060200191505060405180910390fd5b620009a3838362000bf060201b60201c565b6001905092915050565b620009bd6200081260201b60201c565b73ffffffffffffffffffffffffffffffffffffffff16600260009054906101000a900473ffffffffffffffffffffffffffffffffffffffff1673ffffffffffffffffffffffffffffffffffffffff161462000a80576040517f08c379a00000000000000000000000000000000000000000000000000000000081526004018080602001828103825260208152602001807f4f776e61626c653a2063616c6c6572206973206e6f7420746865206f776e657281525060200191505060405180910390fd5b600260149054906101000a900460ff161562000b04576040517f08c379a000000000000000000000000000000000000000000000000000000000815260040180806020018281038252601e8152602001807f4d616e61676572526f6c653a20616c72656164792066696e616c697a6564000081525060200191505060405180910390fd5b6001600260146101000a81548160ff0219169083151502179055507f6823b073d48d6e3a7d385eeb601452d680e74bb46afe3255a7d778f3a9b1768160405160405180910390a1565b62000b836000808481526020019081526020016000206003015462000b776200081260201b60201c565b62000c0660201b60201c565b62000bda576040517f08c379a000000000000000000000000000000000000000000000000000000000815260040180806020018281038252602f81526020018062002b42602f913960400191505060405180910390fd5b62000bec828262000c3e60201b60201c565b5050565b62000c02828262000c3e60201b60201c565b5050565b600062000c368260008086815260200190815260200160002060000162000d5560201b620015aa1790919060201c565b905092915050565b62000c6c8160008085815260200190815260200160002060000162000d8d60201b620015ef1790919060201c565b1562000d515760016000838152602001908152602001600020819080600181540180825580915050600190039060005260206000200160009091909190916101000a81548173ffffffffffffffffffffffffffffffffffffffff021916908373ffffffffffffffffffffffffffffffffffffffff16021790555062000cf66200081260201b60201c565b73ffffffffffffffffffffffffffffffffffffffff168173ffffffffffffffffffffffffffffffffffffffff16837f2f8788117e7eff1d82e926ec794901d17c78024a50270940304540a733656f0d60405160405180910390a45b5050565b600062000d85836000018373ffffffffffffffffffffffffffffffffffffffff1660001b62000dc660201b60201c565b905092915050565b600062000dbe836000018373ffffffffffffffffffffffffffffffffffffffff1660001b8462000de960201b60201c565b905092915050565b600080836002016000848152602001908152602001600020541415905092915050565b600062000dfd848462000dc660201b60201c565b62000ebd578360000183908060018154018082558091505060019003906000526020600020016000909190919091505583600101829080600181540180825580915050600190039060005260206000200160009091909190916101000a81548173ffffffffffffffffffffffffffffffffffffffff021916908373ffffffffffffffffffffffffffffffffffffffff1602179055508360000180549050846002016000858152602001908152602001600020819055506001905062000ec2565b600090505b9392505050565b611c698062000ed96000396000f3fe608060405234801561001057600080fd5b50600436106101cf5760003560e01c80639010d07c11610104578063c1abd757116100a2578063d547741f11610071578063d547741f14610749578063d92c848f14610797578063fc0c546a146107dd578063fe070e9d14610827576101cf565b8063c1abd75714610685578063ca15c873146106a3578063cf309012146106e5578063d3e1574714610703576101cf565b8063a217fddf116100de578063a217fddf1461060d578063a75df4981461062b578063a8a159c214610649578063ba12d08714610667576101cf565b80639010d07c146104ac57806391d14854146105245780639cf6cc701461058a576101cf565b80634460bdd6116101715780635ac8b0051161014b5780635ac8b005146103985780635b56d6f5146103b65780636419bcdb146103fc5780638da5cb5b14610462576101cf565b80634460bdd61461035257806349d5e604146103705780634bb278f31461038e576101cf565b80632c4e722e116101ad5780632c4e722e146102525780632f2ff15d1461027057806334fcf437146102be57806336568abe14610304576101cf565b806307e2cea5146101d45780631cda4a8d146101f2578063248a9ca314610210575b600080fd5b6101dc610845565b6040518082815260200191505060405180910390f35b6101fa61087e565b6040518082815260200191505060405180910390f35b61023c6004803603602081101561022657600080fd5b81019080803590602001909291905050506108b7565b6040518082815260200191505060405180910390f35b61025a6108d6565b6040518082815260200191505060405180910390f35b6102bc6004803603604081101561028657600080fd5b8101908080359060200190929190803573ffffffffffffffffffffffffffffffffffffffff1690602001909291905050506108e0565b005b6102ea600480360360208110156102d457600080fd5b8101908080359060200190929190505050610969565b604051808215151515815260200191505060405180910390f35b6103506004803603604081101561031a57600080fd5b8101908080359060200190929190803573ffffffffffffffffffffffffffffffffffffffff169060200190929190505050610a0f565b005b61035a610aa8565b6040518082815260200191505060405180910390f35b610378610ae1565b6040518082815260200191505060405180910390f35b610396610b1a565b005b6103a0610cb0565b6040518082815260200191505060405180910390f35b6103e2600480360360208110156103cc57600080fd5b8101908080359060200190929190505050610ce9565b604051808215151515815260200191505060405180910390f35b6104486004803603604081101561041257600080fd5b8101908080359060200190929190803573ffffffffffffffffffffffffffffffffffffffff169060200190929190505050610d8f565b604051808215151515815260200191505060405180910390f35b61046a610ef2565b604051808273ffffffffffffffffffffffffffffffffffffffff1673ffffffffffffffffffffffffffffffffffffffff16815260200191505060405180910390f35b6104e2600480360360408110156104c257600080fd5b810190808035906020019092919080359060200190929190505050610f1c565b604051808273ffffffffffffffffffffffffffffffffffffffff1673ffffffffffffffffffffffffffffffffffffffff16815260200191505060405180910390f35b6105706004803603604081101561053a57600080fd5b8101908080359060200190929190803573ffffffffffffffffffffffffffffffffffffffff169060200190929190505050610f4d565b604051808215151515815260200191505060405180910390f35b6105b6600480360360208110156105a057600080fd5b8101908080359060200190929190505050610f7e565b6040518080602001828103825283818151815260200191508051906020019060200280838360005b838110156105f95780820151818401526020810190506105de565b505050509050019250505060405180910390f35b61061561101f565b6040518082815260200191505060405180910390f35b610633611026565b6040518082815260200191505060405180910390f35b610651611030565b6040518082815260200191505060405180910390f35b61066f61103a565b6040518082815260200191505060405180910390f35b61068d611073565b6040518082815260200191505060405180910390f35b6106cf600480360360208110156106b957600080fd5b81019080803590602001909291905050506110ac565b6040518082815260200191505060405180910390f35b6106ed6110d2565b6040518082815260200191505060405180910390f35b61072f6004803603602081101561071957600080fd5b81019080803590602001909291905050506110dc565b604051808215151515815260200191505060405180910390f35b6107956004803603604081101561075f57600080fd5b8101908080359060200190929190803573ffffffffffffffffffffffffffffffffffffffff169060200190929190505050611182565b005b6107c3600480360360208110156107ad57600080fd5b810190808035906020019092919050505061120b565b604051808215151515815260200191505060405180910390f35b6107e56112b1565b604051808273ffffffffffffffffffffffffffffffffffffffff1673ffffffffffffffffffffffffffffffffffffffff16815260200191505060405180910390f35b61082f6112db565b6040518082815260200191505060405180910390f35b60405180807f4f5241434c455f524f4c45000000000000000000000000000000000000000000815250600b019050604051809103902081565b60405180807f504f4f4c5f524547495354525900000000000000000000000000000000000000815250600d019050604051809103902081565b6000806000838152602001908152602001600020600301549050919050565b6000600654905090565b61090660008084815260200190815260200160002060030154610901611314565b610f4d565b61095b576040517f08c379a000000000000000000000000000000000000000000000000000000000815260040180806020018281038252602f815260200180611b74602f913960400191505060405180910390fd5b610965828261131c565b5050565b60006109aa60405180807f504f4f4c5f524547495354525900000000000000000000000000000000000000815250600d019050604051809103902033610f4d565b6109ff576040517f08c379a0000000000000000000000000000000000000000000000000000000008152600401808060200182810382526032815260200180611ba36032913960400191505060405180910390fd5b8160068190555060019050919050565b610a17611314565b73ffffffffffffffffffffffffffffffffffffffff168173ffffffffffffffffffffffffffffffffffffffff1614610a9a576040517f08c379a000000000000000000000000000000000000000000000000000000000815260040180806020018281038252602f815260200180611c05602f913960400191505060405180910390fd5b610aa48282611423565b5050565b60405180807f53555045525f41444d494e5f524f4c45000000000000000000000000000000008152506010019050604051809103902081565b60405180807f5445414d5f524f4c4500000000000000000000000000000000000000000000008152506009019050604051809103902081565b610b22611314565b73ffffffffffffffffffffffffffffffffffffffff16600260009054906101000a900473ffffffffffffffffffffffffffffffffffffffff1673ffffffffffffffffffffffffffffffffffffffff1614610be4576040517f08c379a00000000000000000000000000000000000000000000000000000000081526004018080602001828103825260208152602001807f4f776e61626c653a2063616c6c6572206973206e6f7420746865206f776e657281525060200191505060405180910390fd5b600260149054906101000a900460ff1615610c67576040517f08c379a000000000000000000000000000000000000000000000000000000000815260040180806020018281038252601e8152602001807f4d616e61676572526f6c653a20616c72656164792066696e616c697a6564000081525060200191505060405180910390fd5b6001600260146101000a81548160ff0219169083151502179055507f6823b073d48d6e3a7d385eeb601452d680e74bb46afe3255a7d778f3a9b1768160405160405180910390a1565b60405180807f524546455245525f524f4c450000000000000000000000000000000000000000815250600c019050604051809103902081565b6000610d2a60405180807f504f4f4c5f524547495354525900000000000000000000000000000000000000815250600d019050604051809103902033610f4d565b610d7f576040517f08c379a0000000000000000000000000000000000000000000000000000000008152600401808060200182810382526032815260200180611ba36032913960400191505060405180910390fd5b8160078190555060019050919050565b6000610d99611314565b73ffffffffffffffffffffffffffffffffffffffff16600260009054906101000a900473ffffffffffffffffffffffffffffffffffffffff1673ffffffffffffffffffffffffffffffffffffffff1614610e5b576040517f08c379a00000000000000000000000000000000000000000000000000000000081526004018080602001828103825260208152602001807f4f776e61626c653a2063616c6c6572206973206e6f7420746865206f776e657281525060200191505060405180910390fd5b600260149054906101000a900460ff1615610ede576040517f08c379a000000000000000000000000000000000000000000000000000000000815260040180806020018281038252601e8152602001807f4d616e61676572526f6c653a20616c72656164792066696e616c697a6564000081525060200191505060405180910390fd5b610ee88383611582565b6001905092915050565b6000600260009054906101000a900473ffffffffffffffffffffffffffffffffffffffff16905090565b6000610f458260008086815260200190815260200160002060000161159090919063ffffffff16565b905092915050565b6000610f76826000808681526020019081526020016000206000016115aa90919063ffffffff16565b905092915050565b60606001600083815260200190815260200160002080548060200260200160405190810160405280929190818152602001828054801561101357602002820191906000526020600020905b8160009054906101000a900473ffffffffffffffffffffffffffffffffffffffff1673ffffffffffffffffffffffffffffffffffffffff1681526020019060010190808311610fc9575b50505050509050919050565b6000801b81565b6000600754905090565b6000600854905090565b60405180807f535455525441505f5445414d5f524f4c450000000000000000000000000000008152506011019050604051809103902081565b60405180807f47454e4552414c5f504152544e45525f524f4c450000000000000000000000008152506014019050604051809103902081565b60006110cb6000808481526020019081526020016000206000016115da565b9050919050565b6000600554905090565b600061111d60405180807f504f4f4c5f524547495354525900000000000000000000000000000000000000815250600d019050604051809103902033610f4d565b611172576040517f08c379a0000000000000000000000000000000000000000000000000000000008152600401808060200182810382526032815260200180611ba36032913960400191505060405180910390fd5b8160058190555060019050919050565b6111a8600080848152602001908152602001600020600301546111a3611314565b610f4d565b6111fd576040517f08c379a0000000000000000000000000000000000000000000000000000000008152600401808060200182810382526030815260200180611bd56030913960400191505060405180910390fd5b6112078282611423565b5050565b600061124c60405180807f504f4f4c5f524547495354525900000000000000000000000000000000000000815250600d019050604051809103902033610f4d565b6112a1576040517f08c379a0000000000000000000000000000000000000000000000000000000008152600401808060200182810382526032815260200180611ba36032913960400191505060405180910390fd5b8160088190555060019050919050565b6000600360009054906101000a900473ffffffffffffffffffffffffffffffffffffffff16905090565b60405180807f4c494d495445445f504152544e45525f524f4c450000000000000000000000008152506014019050604051809103902081565b600033905090565b611343816000808581526020019081526020016000206000016115ef90919063ffffffff16565b1561141f5760016000838152602001908152602001600020819080600181540180825580915050600190039060005260206000200160009091909190916101000a81548173ffffffffffffffffffffffffffffffffffffffff021916908373ffffffffffffffffffffffffffffffffffffffff1602179055506113c4611314565b73ffffffffffffffffffffffffffffffffffffffff168173ffffffffffffffffffffffffffffffffffffffff16837f2f8788117e7eff1d82e926ec794901d17c78024a50270940304540a733656f0d60405160405180910390a45b5050565b61144a8160008085815260200190815260200160002060000161162090919063ffffffff16565b1561157e5760005b600160008481526020019081526020016000208054905081101561151a578173ffffffffffffffffffffffffffffffffffffffff166001600085815260200190815260200160002082815481106114a557fe5b9060005260206000200160009054906101000a900473ffffffffffffffffffffffffffffffffffffffff1673ffffffffffffffffffffffffffffffffffffffff16141561150d576115088160016000868152602001908152602001600020611651565b61151a565b8080600101915050611452565b50611523611314565b73ffffffffffffffffffffffffffffffffffffffff168173ffffffffffffffffffffffffffffffffffffffff16837ff6391f5c32d9c69d2a47ea670b442974b53935d1edc7fd64eb21e047a839171b60405160405180910390a45b5050565b61158c828261131c565b5050565b600061159f8360000183611745565b60001c905092915050565b60006115d2836000018373ffffffffffffffffffffffffffffffffffffffff1660001b6117c8565b905092915050565b60006115e8826000016117eb565b9050919050565b6000611618836000018373ffffffffffffffffffffffffffffffffffffffff1660001b846117fc565b905092915050565b6000611649836000018373ffffffffffffffffffffffffffffffffffffffff1660001b846118d2565b905092915050565b60008290505b60018280549050038110156117015781600182018154811061167557fe5b9060005260206000200160009054906101000a900473ffffffffffffffffffffffffffffffffffffffff168282815481106116ac57fe5b9060005260206000200160006101000a81548173ffffffffffffffffffffffffffffffffffffffff021916908373ffffffffffffffffffffffffffffffffffffffff1602179055508080600101915050611657565b508080548061170c57fe5b6001900381819060005260206000200160006101000a81549073ffffffffffffffffffffffffffffffffffffffff021916905590555050565b6000818360000180549050116117a6576040517f08c379a0000000000000000000000000000000000000000000000000000000008152600401808060200182810382526022815260200180611b526022913960400191505060405180910390fd5b8260000182815481106117b557fe5b9060005260206000200154905092915050565b600080836002016000848152602001908152602001600020541415905092915050565b600081600001805490509050919050565b600061180884846117c8565b6118c6578360000183908060018154018082558091505060019003906000526020600020016000909190919091505583600101829080600181540180825580915050600190039060005260206000200160009091909190916101000a81548173ffffffffffffffffffffffffffffffffffffffff021916908373ffffffffffffffffffffffffffffffffffffffff160217905550836000018054905084600201600085815260200190815260200160002081905550600190506118cb565b600090505b9392505050565b60008084600201600085815260200190815260200160002054905060008114611a50576000600182039050600060018760000180549050039050600087600001828154811061191d57fe5b906000526020600020015490508088600001848154811061193a57fe5b906000526020600020018190555060018301886002016000838152602001908152602001600020819055508760000180548061197257fe5b600190038181906000526020600020016000905590558760020160008881526020019081526020016000206000905560008090505b8860010180549050811015611a42578673ffffffffffffffffffffffffffffffffffffffff168960010182815481106119dc57fe5b9060005260206000200160009054906101000a900473ffffffffffffffffffffffffffffffffffffffff1673ffffffffffffffffffffffffffffffffffffffff161415611a3557611a30818a600101611a5d565b611a42565b80806001019150506119a7565b506001945050505050611a56565b60009150505b9392505050565b60008290505b6001828054905003811015611b0d57816001820181548110611a8157fe5b9060005260206000200160009054906101000a900473ffffffffffffffffffffffffffffffffffffffff16828281548110611ab857fe5b9060005260206000200160006101000a81548173ffffffffffffffffffffffffffffffffffffffff021916908373ffffffffffffffffffffffffffffffffffffffff1602179055508080600101915050611a63565b5080805480611b1857fe5b6001900381819060005260206000200160006101000a81549073ffffffffffffffffffffffffffffffffffffffff02191690559055505056fe456e756d657261626c655365743a20696e646578206f7574206f6620626f756e6473416363657373436f6e74726f6c3a2073656e646572206d75737420626520616e2061646d696e20746f206772616e74526f6c65733a2063616c6c657220646f6573206e6f7420686176652074686520706f6f6c20726567797374727920726f6c65416363657373436f6e74726f6c3a2073656e646572206d75737420626520616e2061646d696e20746f207265766f6b65416363657373436f6e74726f6c3a2063616e206f6e6c792072656e6f756e636520726f6c657320666f722073656c66a264697066735822122085cdcdfe1d11739e0f42b696965a616041b2f6b8bb9a125d2f45df05e86ab67f64736f6c63430006000033416363657373436f6e74726f6c3a2073656e646572206d75737420626520616e2061646d696e20746f206772616e74",
  "source": "pragma solidity ^0.6.0;\n\nimport \"./interface/IPool.sol\";\nimport \"./interface/IERC20.sol\";\n\nimport \"./access/Roles.sol\";\n\nimport \"./utils/EnumerableSet.sol\";\n\ncontract InvestmentPool is Roles {\n    // Address token contract ERC20\n    address private _token;\n    // Accessing contract methods\n    IERC20 _tokenContract = IERC20(_token);\n\n    uint256 private _locked;\n    uint256 private _rate;\n    uint256 private _interestFee;\n    uint256 private _anualPrecent;\n\n    constructor(\n        address token,\n        uint256 locked,\n        uint256 rate,\n        uint256 interestFee,\n        uint256 anualPrecent,\n        address superAdmin,\n        address gPartner,\n        address lPartner,\n        address team,\n        address sturtapTeam,\n        address referer,\n        address poolRegistry\n    ) public {\n        _token = token;\n        _locked = locked;\n        _rate = rate;\n        _interestFee = interestFee;\n        _anualPrecent = anualPrecent;\n\n        Roles.addAdmin(SUPER_ADMIN_ROLE, msg.sender);\n        Roles.addAdmin(SUPER_ADMIN_ROLE, superAdmin);\n        Roles.finalize();\n        grantRole(GENERAL_PARTNER_ROLE, gPartner);\n        grantRole(LIMITED_PARTNER_ROLE, lPartner);\n        grantRole(TEAM_ROLE, team);\n        grantRole(STURTAP_TEAM_ROLE, sturtapTeam);\n        grantRole(REFERER_ROLE, referer);\n        grantRole(POOL_REGISTRY, poolRegistry);\n    }\n\n    function token() public view returns (address) {\n        return _token;\n    }\n\n    function locked() public view returns (uint256) {\n        return _locked;\n    }\n\n    function rate() public view returns (uint256) {\n        return _rate;\n    }\n\n    function interestFee() public view returns (uint256) {\n        return _interestFee;\n    }\n\n    function anualPrecent() public view returns (uint256) {\n        return _anualPrecent;\n    }\n\n    function setLock(uint256 lock) public virtual onlyPoolRegistry returns (bool) {\n        _locked = lock;\n        return true;\n    }\n\n    function setRate(uint256 rate) public virtual onlyPoolRegistry returns (bool) {\n        _rate = rate;\n        return true;\n    }\n\n    function setInterestFee(uint256 fee) public virtual onlyPoolRegistry returns (bool){\n        _interestFee = fee;\n        return true;\n    }\n\n    function setAnnualPrecent(uint256 precent) public virtual onlyPoolRegistry returns (bool){\n        _anualPrecent = precent;\n        return true;\n    }\n}\n",
  "sourcePath": "/home/mitgen/Private Projects/DeFi/investmentPool/contracts/InvestmentPool.sol",
  "compiler": {
    "name": "solc",
    "version": "0.6.0+commit.26b70077.Emscripten.clang"
  },
  "schemaVersion": "3.2.3",
  "updatedAt": "2020-12-07T18:19:59.922Z",
  "networkType": "ethereum",
  "devdoc": {
    "methods": {
      "addAdmin(bytes32,address)": {
        "details": "Create and ading new role.",
        "params": {
          "account": "account for adding to the role.",
          "role": "role account."
        }
      },
      "finalize()": {
        "details": "Block adding admins."
      },
      "getMembersRole(bytes32)": {
        "details": "Returns the admin role that controls `role`. See {grantRole} and {revokeRole}.     * To change a role's admin, use {_setRoleAdmin}."
      },
      "getRoleAdmin(bytes32)": {
        "details": "Returns the admin role that controls `role`. See {grantRole} and {revokeRole}.     * To change a role's admin, use {_setRoleAdmin}."
      },
      "getRoleMember(bytes32,uint256)": {
        "details": "Returns one of the accounts that have `role`. `index` must be a value between 0 and {getRoleMemberCount}, non-inclusive.     * Role bearers are not sorted in any particular way, and their ordering may change at any point.     * WARNING: When using {getRoleMember} and {getRoleMemberCount}, make sure you perform all queries on the same block. See the following https://forum.openzeppelin.com/t/iterating-over-elements-on-enumerableset-in-openzeppelin-contracts/2296[forum post] for more information."
      },
      "getRoleMemberCount(bytes32)": {
        "details": "Returns the number of accounts that have `role`. Can be used together with {getRoleMember} to enumerate all bearers of a role."
      },
      "grantRole(bytes32,address)": {
        "details": "Grants `role` to `account`.     * If `account` had not been already granted `role`, emits a {RoleGranted} event.     * Requirements:     * - the caller must have ``role``'s admin role."
      },
      "hasRole(bytes32,address)": {
        "details": "Returns `true` if `account` has been granted `role`."
      },
      "owner()": {
        "details": "Returns the address of the current owner."
      },
      "renounceRole(bytes32,address)": {
        "details": "Revokes `role` from the calling account.     * Roles are often managed via {grantRole} and {revokeRole}: this function's purpose is to provide a mechanism for accounts to lose their privileges if they are compromised (such as when a trusted device is misplaced).     * If the calling account had been granted `role`, emits a {RoleRevoked} event.     * Requirements:     * - the caller must be `account`."
      },
      "revokeRole(bytes32,address)": {
        "details": "Revokes `role` from `account`.     * If `account` had been granted `role`, emits a {RoleRevoked} event.     * Requirements:     * - the caller must have ``role``'s admin role."
      }
    }
  },
  "userdoc": {
    "methods": {}
  }
}