{
  "contractName": "Roles",
  "abi": [
    {
      "inputs": [],
      "stateMutability": "nonpayable",
      "type": "constructor"
    },
    {
      "anonymous": false,
      "inputs": [],
      "name": "Finalized",
      "type": "event"
    },
    {
      "anonymous": false,
      "inputs": [
        {
          "indexed": true,
          "internalType": "address",
          "name": "previousOwner",
          "type": "address"
        },
        {
          "indexed": true,
          "internalType": "address",
          "name": "newOwner",
          "type": "address"
        }
      ],
      "name": "OwnershipTransferred",
      "type": "event"
    },
    {
      "anonymous": false,
      "inputs": [
        {
          "indexed": true,
          "internalType": "bytes32",
          "name": "role",
          "type": "bytes32"
        },
        {
          "indexed": true,
          "internalType": "address",
          "name": "account",
          "type": "address"
        },
        {
          "indexed": true,
          "internalType": "address",
          "name": "sender",
          "type": "address"
        }
      ],
      "name": "RoleGranted",
      "type": "event"
    },
    {
      "anonymous": false,
      "inputs": [
        {
          "indexed": true,
          "internalType": "bytes32",
          "name": "role",
          "type": "bytes32"
        },
        {
          "indexed": true,
          "internalType": "address",
          "name": "account",
          "type": "address"
        },
        {
          "indexed": true,
          "internalType": "address",
          "name": "sender",
          "type": "address"
        }
      ],
      "name": "RoleRevoked",
      "type": "event"
    },
    {
      "inputs": [],
      "name": "DEFAULT_ADMIN_ROLE",
      "outputs": [
        {
          "internalType": "bytes32",
          "name": "",
          "type": "bytes32"
        }
      ],
      "stateMutability": "view",
      "type": "function"
    },
    {
      "inputs": [],
      "name": "GENERAL_PARTNER_ROLE",
      "outputs": [
        {
          "internalType": "bytes32",
          "name": "",
          "type": "bytes32"
        }
      ],
      "stateMutability": "view",
      "type": "function"
    },
    {
      "inputs": [],
      "name": "LIMITED_PARTNER_ROLE",
      "outputs": [
        {
          "internalType": "bytes32",
          "name": "",
          "type": "bytes32"
        }
      ],
      "stateMutability": "view",
      "type": "function"
    },
    {
      "inputs": [],
      "name": "ORACLE_ROLE",
      "outputs": [
        {
          "internalType": "bytes32",
          "name": "",
          "type": "bytes32"
        }
      ],
      "stateMutability": "view",
      "type": "function"
    },
    {
      "inputs": [],
      "name": "POOL_REGISTRY",
      "outputs": [
        {
          "internalType": "bytes32",
          "name": "",
          "type": "bytes32"
        }
      ],
      "stateMutability": "view",
      "type": "function"
    },
    {
      "inputs": [],
      "name": "REFERER_ROLE",
      "outputs": [
        {
          "internalType": "bytes32",
          "name": "",
          "type": "bytes32"
        }
      ],
      "stateMutability": "view",
      "type": "function"
    },
    {
      "inputs": [],
      "name": "STURTAP_TEAM_ROLE",
      "outputs": [
        {
          "internalType": "bytes32",
          "name": "",
          "type": "bytes32"
        }
      ],
      "stateMutability": "view",
      "type": "function"
    },
    {
      "inputs": [],
      "name": "SUPER_ADMIN_ROLE",
      "outputs": [
        {
          "internalType": "bytes32",
          "name": "",
          "type": "bytes32"
        }
      ],
      "stateMutability": "view",
      "type": "function"
    },
    {
      "inputs": [],
      "name": "TEAM_ROLE",
      "outputs": [
        {
          "internalType": "bytes32",
          "name": "",
          "type": "bytes32"
        }
      ],
      "stateMutability": "view",
      "type": "function"
    },
    {
      "inputs": [
        {
          "internalType": "bytes32",
          "name": "role",
          "type": "bytes32"
        }
      ],
      "name": "getMembersRole",
      "outputs": [
        {
          "internalType": "address[]",
          "name": "Accounts",
          "type": "address[]"
        }
      ],
      "stateMutability": "view",
      "type": "function"
    },
    {
      "inputs": [
        {
          "internalType": "bytes32",
          "name": "role",
          "type": "bytes32"
        }
      ],
      "name": "getRoleAdmin",
      "outputs": [
        {
          "internalType": "bytes32",
          "name": "",
          "type": "bytes32"
        }
      ],
      "stateMutability": "view",
      "type": "function"
    },
    {
      "inputs": [
        {
          "internalType": "bytes32",
          "name": "role",
          "type": "bytes32"
        },
        {
          "internalType": "uint256",
          "name": "index",
          "type": "uint256"
        }
      ],
      "name": "getRoleMember",
      "outputs": [
        {
          "internalType": "address",
          "name": "",
          "type": "address"
        }
      ],
      "stateMutability": "view",
      "type": "function"
    },
    {
      "inputs": [
        {
          "internalType": "bytes32",
          "name": "role",
          "type": "bytes32"
        }
      ],
      "name": "getRoleMemberCount",
      "outputs": [
        {
          "internalType": "uint256",
          "name": "",
          "type": "uint256"
        }
      ],
      "stateMutability": "view",
      "type": "function"
    },
    {
      "inputs": [
        {
          "internalType": "bytes32",
          "name": "role",
          "type": "bytes32"
        },
        {
          "internalType": "address",
          "name": "account",
          "type": "address"
        }
      ],
      "name": "grantRole",
      "outputs": [],
      "stateMutability": "nonpayable",
      "type": "function"
    },
    {
      "inputs": [
        {
          "internalType": "bytes32",
          "name": "role",
          "type": "bytes32"
        },
        {
          "internalType": "address",
          "name": "account",
          "type": "address"
        }
      ],
      "name": "hasRole",
      "outputs": [
        {
          "internalType": "bool",
          "name": "",
          "type": "bool"
        }
      ],
      "stateMutability": "view",
      "type": "function"
    },
    {
      "inputs": [],
      "name": "owner",
      "outputs": [
        {
          "internalType": "address",
          "name": "",
          "type": "address"
        }
      ],
      "stateMutability": "view",
      "type": "function"
    },
    {
      "inputs": [
        {
          "internalType": "bytes32",
          "name": "role",
          "type": "bytes32"
        },
        {
          "internalType": "address",
          "name": "account",
          "type": "address"
        }
      ],
      "name": "renounceRole",
      "outputs": [],
      "stateMutability": "nonpayable",
      "type": "function"
    },
    {
      "inputs": [
        {
          "internalType": "bytes32",
          "name": "role",
          "type": "bytes32"
        },
        {
          "internalType": "address",
          "name": "account",
          "type": "address"
        }
      ],
      "name": "revokeRole",
      "outputs": [],
      "stateMutability": "nonpayable",
      "type": "function"
    },
    {
      "inputs": [
        {
          "internalType": "bytes32",
          "name": "role",
          "type": "bytes32"
        },
        {
          "internalType": "address",
          "name": "account",
          "type": "address"
        }
      ],
      "name": "addAdmin",
      "outputs": [
        {
          "internalType": "bool",
          "name": "",
          "type": "bool"
        }
      ],
      "stateMutability": "nonpayable",
      "type": "function"
    },
    {
      "inputs": [],
      "name": "finalize",
      "outputs": [],
      "stateMutability": "nonpayable",
      "type": "function"
    }
  ],
  "bytecode": "0x60806040526000600260146101000a81548160ff0219169083151502179055503480156200002c57600080fd5b5060006200003f6200044860201b60201c565b905080600260006101000a81548173ffffffffffffffffffffffffffffffffffffffff021916908373ffffffffffffffffffffffffffffffffffffffff1602179055508073ffffffffffffffffffffffffffffffffffffffff16600073ffffffffffffffffffffffffffffffffffffffff167f8be0079c531659141344cd1fd0a4f28419497f9722a3daafe3b4186f6b6457e060405160405180910390a3506200015a60405180807f47454e4552414c5f504152544e45525f524f4c450000000000000000000000008152506014019050604051809103902060405180807f53555045525f41444d494e5f524f4c4500000000000000000000000000000000815250601001905060405180910390206200045060201b60201c565b620001d660405180807f4c494d495445445f504152544e45525f524f4c450000000000000000000000008152506014019050604051809103902060405180807f53555045525f41444d494e5f524f4c4500000000000000000000000000000000815250601001905060405180910390206200045060201b60201c565b6200025260405180807f5445414d5f524f4c4500000000000000000000000000000000000000000000008152506009019050604051809103902060405180807f53555045525f41444d494e5f524f4c4500000000000000000000000000000000815250601001905060405180910390206200045060201b60201c565b620002ce60405180807f535455525441505f5445414d5f524f4c450000000000000000000000000000008152506011019050604051809103902060405180807f53555045525f41444d494e5f524f4c4500000000000000000000000000000000815250601001905060405180910390206200045060201b60201c565b6200034a60405180807f524546455245525f524f4c450000000000000000000000000000000000000000815250600c019050604051809103902060405180807f53555045525f41444d494e5f524f4c4500000000000000000000000000000000815250601001905060405180910390206200045060201b60201c565b620003c660405180807f4f5241434c455f524f4c45000000000000000000000000000000000000000000815250600b019050604051809103902060405180807f53555045525f41444d494e5f524f4c4500000000000000000000000000000000815250601001905060405180910390206200045060201b60201c565b6200044260405180807f504f4f4c5f524547495354525900000000000000000000000000000000000000815250600d019050604051809103902060405180807f53555045525f41444d494e5f524f4c4500000000000000000000000000000000815250601001905060405180910390206200045060201b60201c565b6200046e565b600033905090565b80600080848152602001908152602001600020600301819055505050565b6116d0806200047e6000396000f3fe608060405234801561001057600080fd5b506004361061012c5760003560e01c80638da5cb5b116100ad578063ba12d08711610071578063ba12d087146104de578063c1abd757146104fc578063ca15c8731461051a578063d547741f1461055c578063fe070e9d146105aa5761012c565b80638da5cb5b146103155780639010d07c1461035f57806391d14854146103d75780639cf6cc701461043d578063a217fddf146104c05761012c565b80634460bdd6116100f45780634460bdd61461024b57806349d5e604146102695780634bb278f3146102875780635ac8b005146102915780636419bcdb146102af5761012c565b806307e2cea5146101315780631cda4a8d1461014f578063248a9ca31461016d5780632f2ff15d146101af57806336568abe146101fd575b600080fd5b6101396105c8565b6040518082815260200191505060405180910390f35b610157610601565b6040518082815260200191505060405180910390f35b6101996004803603602081101561018357600080fd5b810190808035906020019092919050505061063a565b6040518082815260200191505060405180910390f35b6101fb600480360360408110156101c557600080fd5b8101908080359060200190929190803573ffffffffffffffffffffffffffffffffffffffff169060200190929190505050610659565b005b6102496004803603604081101561021357600080fd5b8101908080359060200190929190803573ffffffffffffffffffffffffffffffffffffffff1690602001909291905050506106e2565b005b61025361077b565b6040518082815260200191505060405180910390f35b6102716107b4565b6040518082815260200191505060405180910390f35b61028f6107ed565b005b610299610983565b6040518082815260200191505060405180910390f35b6102fb600480360360408110156102c557600080fd5b8101908080359060200190929190803573ffffffffffffffffffffffffffffffffffffffff1690602001909291905050506109bc565b604051808215151515815260200191505060405180910390f35b61031d610b1f565b604051808273ffffffffffffffffffffffffffffffffffffffff1673ffffffffffffffffffffffffffffffffffffffff16815260200191505060405180910390f35b6103956004803603604081101561037557600080fd5b810190808035906020019092919080359060200190929190505050610b49565b604051808273ffffffffffffffffffffffffffffffffffffffff1673ffffffffffffffffffffffffffffffffffffffff16815260200191505060405180910390f35b610423600480360360408110156103ed57600080fd5b8101908080359060200190929190803573ffffffffffffffffffffffffffffffffffffffff169060200190929190505050610b7a565b604051808215151515815260200191505060405180910390f35b6104696004803603602081101561045357600080fd5b8101908080359060200190929190505050610bab565b6040518080602001828103825283818151815260200191508051906020019060200280838360005b838110156104ac578082015181840152602081019050610491565b505050509050019250505060405180910390f35b6104c8610c4c565b6040518082815260200191505060405180910390f35b6104e6610c53565b6040518082815260200191505060405180910390f35b610504610c8c565b6040518082815260200191505060405180910390f35b6105466004803603602081101561053057600080fd5b8101908080359060200190929190505050610cc5565b6040518082815260200191505060405180910390f35b6105a86004803603604081101561057257600080fd5b8101908080359060200190929190803573ffffffffffffffffffffffffffffffffffffffff169060200190929190505050610ceb565b005b6105b2610d74565b6040518082815260200191505060405180910390f35b60405180807f4f5241434c455f524f4c45000000000000000000000000000000000000000000815250600b019050604051809103902081565b60405180807f504f4f4c5f524547495354525900000000000000000000000000000000000000815250600d019050604051809103902081565b6000806000838152602001908152602001600020600301549050919050565b61067f6000808481526020019081526020016000206003015461067a610dad565b610b7a565b6106d4576040517f08c379a000000000000000000000000000000000000000000000000000000000815260040180806020018281038252602f81526020018061160d602f913960400191505060405180910390fd5b6106de8282610db5565b5050565b6106ea610dad565b73ffffffffffffffffffffffffffffffffffffffff168173ffffffffffffffffffffffffffffffffffffffff161461076d576040517f08c379a000000000000000000000000000000000000000000000000000000000815260040180806020018281038252602f81526020018061166c602f913960400191505060405180910390fd5b6107778282610ebc565b5050565b60405180807f53555045525f41444d494e5f524f4c45000000000000000000000000000000008152506010019050604051809103902081565b60405180807f5445414d5f524f4c4500000000000000000000000000000000000000000000008152506009019050604051809103902081565b6107f5610dad565b73ffffffffffffffffffffffffffffffffffffffff16600260009054906101000a900473ffffffffffffffffffffffffffffffffffffffff1673ffffffffffffffffffffffffffffffffffffffff16146108b7576040517f08c379a00000000000000000000000000000000000000000000000000000000081526004018080602001828103825260208152602001807f4f776e61626c653a2063616c6c6572206973206e6f7420746865206f776e657281525060200191505060405180910390fd5b600260149054906101000a900460ff161561093a576040517f08c379a000000000000000000000000000000000000000000000000000000000815260040180806020018281038252601e8152602001807f4d616e61676572526f6c653a20616c72656164792066696e616c697a6564000081525060200191505060405180910390fd5b6001600260146101000a81548160ff0219169083151502179055507f6823b073d48d6e3a7d385eeb601452d680e74bb46afe3255a7d778f3a9b1768160405160405180910390a1565b60405180807f524546455245525f524f4c450000000000000000000000000000000000000000815250600c019050604051809103902081565b60006109c6610dad565b73ffffffffffffffffffffffffffffffffffffffff16600260009054906101000a900473ffffffffffffffffffffffffffffffffffffffff1673ffffffffffffffffffffffffffffffffffffffff1614610a88576040517f08c379a00000000000000000000000000000000000000000000000000000000081526004018080602001828103825260208152602001807f4f776e61626c653a2063616c6c6572206973206e6f7420746865206f776e657281525060200191505060405180910390fd5b600260149054906101000a900460ff1615610b0b576040517f08c379a000000000000000000000000000000000000000000000000000000000815260040180806020018281038252601e8152602001807f4d616e61676572526f6c653a20616c72656164792066696e616c697a6564000081525060200191505060405180910390fd5b610b15838361101b565b6001905092915050565b6000600260009054906101000a900473ffffffffffffffffffffffffffffffffffffffff16905090565b6000610b728260008086815260200190815260200160002060000161102990919063ffffffff16565b905092915050565b6000610ba38260008086815260200190815260200160002060000161104390919063ffffffff16565b905092915050565b606060016000838152602001908152602001600020805480602002602001604051908101604052809291908181526020018280548015610c4057602002820191906000526020600020905b8160009054906101000a900473ffffffffffffffffffffffffffffffffffffffff1673ffffffffffffffffffffffffffffffffffffffff1681526020019060010190808311610bf6575b50505050509050919050565b6000801b81565b60405180807f535455525441505f5445414d5f524f4c450000000000000000000000000000008152506011019050604051809103902081565b60405180807f47454e4552414c5f504152544e45525f524f4c450000000000000000000000008152506014019050604051809103902081565b6000610ce4600080848152602001908152602001600020600001611073565b9050919050565b610d1160008084815260200190815260200160002060030154610d0c610dad565b610b7a565b610d66576040517f08c379a000000000000000000000000000000000000000000000000000000000815260040180806020018281038252603081526020018061163c6030913960400191505060405180910390fd5b610d708282610ebc565b5050565b60405180807f4c494d495445445f504152544e45525f524f4c450000000000000000000000008152506014019050604051809103902081565b600033905090565b610ddc8160008085815260200190815260200160002060000161108890919063ffffffff16565b15610eb85760016000838152602001908152602001600020819080600181540180825580915050600190039060005260206000200160009091909190916101000a81548173ffffffffffffffffffffffffffffffffffffffff021916908373ffffffffffffffffffffffffffffffffffffffff160217905550610e5d610dad565b73ffffffffffffffffffffffffffffffffffffffff168173ffffffffffffffffffffffffffffffffffffffff16837f2f8788117e7eff1d82e926ec794901d17c78024a50270940304540a733656f0d60405160405180910390a45b5050565b610ee3816000808581526020019081526020016000206000016110b990919063ffffffff16565b156110175760005b6001600084815260200190815260200160002080549050811015610fb3578173ffffffffffffffffffffffffffffffffffffffff16600160008581526020019081526020016000208281548110610f3e57fe5b9060005260206000200160009054906101000a900473ffffffffffffffffffffffffffffffffffffffff1673ffffffffffffffffffffffffffffffffffffffff161415610fa657610fa181600160008681526020019081526020016000206110ea565b610fb3565b8080600101915050610eeb565b50610fbc610dad565b73ffffffffffffffffffffffffffffffffffffffff168173ffffffffffffffffffffffffffffffffffffffff16837ff6391f5c32d9c69d2a47ea670b442974b53935d1edc7fd64eb21e047a839171b60405160405180910390a45b5050565b6110258282610db5565b5050565b600061103883600001836111de565b60001c905092915050565b600061106b836000018373ffffffffffffffffffffffffffffffffffffffff1660001b611261565b905092915050565b600061108182600001611284565b9050919050565b60006110b1836000018373ffffffffffffffffffffffffffffffffffffffff1660001b84611295565b905092915050565b60006110e2836000018373ffffffffffffffffffffffffffffffffffffffff1660001b8461136b565b905092915050565b60008290505b600182805490500381101561119a5781600182018154811061110e57fe5b9060005260206000200160009054906101000a900473ffffffffffffffffffffffffffffffffffffffff1682828154811061114557fe5b9060005260206000200160006101000a81548173ffffffffffffffffffffffffffffffffffffffff021916908373ffffffffffffffffffffffffffffffffffffffff16021790555080806001019150506110f0565b50808054806111a557fe5b6001900381819060005260206000200160006101000a81549073ffffffffffffffffffffffffffffffffffffffff021916905590555050565b60008183600001805490501161123f576040517f08c379a00000000000000000000000000000000000000000000000000000000081526004018080602001828103825260228152602001806115eb6022913960400191505060405180910390fd5b82600001828154811061124e57fe5b9060005260206000200154905092915050565b600080836002016000848152602001908152602001600020541415905092915050565b600081600001805490509050919050565b60006112a18484611261565b61135f578360000183908060018154018082558091505060019003906000526020600020016000909190919091505583600101829080600181540180825580915050600190039060005260206000200160009091909190916101000a81548173ffffffffffffffffffffffffffffffffffffffff021916908373ffffffffffffffffffffffffffffffffffffffff16021790555083600001805490508460020160008581526020019081526020016000208190555060019050611364565b600090505b9392505050565b600080846002016000858152602001908152602001600020549050600081146114e957600060018203905060006001876000018054905003905060008760000182815481106113b657fe5b90600052602060002001549050808860000184815481106113d357fe5b906000526020600020018190555060018301886002016000838152602001908152602001600020819055508760000180548061140b57fe5b600190038181906000526020600020016000905590558760020160008881526020019081526020016000206000905560008090505b88600101805490508110156114db578673ffffffffffffffffffffffffffffffffffffffff1689600101828154811061147557fe5b9060005260206000200160009054906101000a900473ffffffffffffffffffffffffffffffffffffffff1673ffffffffffffffffffffffffffffffffffffffff1614156114ce576114c9818a6001016114f6565b6114db565b8080600101915050611440565b5060019450505050506114ef565b60009150505b9392505050565b60008290505b60018280549050038110156115a65781600182018154811061151a57fe5b9060005260206000200160009054906101000a900473ffffffffffffffffffffffffffffffffffffffff1682828154811061155157fe5b9060005260206000200160006101000a81548173ffffffffffffffffffffffffffffffffffffffff021916908373ffffffffffffffffffffffffffffffffffffffff16021790555080806001019150506114fc565b50808054806115b157fe5b6001900381819060005260206000200160006101000a81549073ffffffffffffffffffffffffffffffffffffffff02191690559055505056fe456e756d657261626c655365743a20696e646578206f7574206f6620626f756e6473416363657373436f6e74726f6c3a2073656e646572206d75737420626520616e2061646d696e20746f206772616e74416363657373436f6e74726f6c3a2073656e646572206d75737420626520616e2061646d696e20746f207265766f6b65416363657373436f6e74726f6c3a2063616e206f6e6c792072656e6f756e636520726f6c657320666f722073656c66a2646970667358221220c93082483f2c8d282c3d0cab7cb118e8b73a39946685536b5b5e97870a9a877b64736f6c63430006000033",
  "source": "pragma solidity ^0.6.0;\n\nimport \"./AccessControl.sol\";\nimport \"../ownership/Ownable.sol\";\nimport \"../interface/IRoleModel.sol\";\n\ncontract Roles is AccessControl, Ownable, IRoleModel {\n    bool private _finalized = false;\n    event Finalized();\n\n    modifier onlyAdmin() {\n        require(hasRole(SUPER_ADMIN_ROLE, msg.sender), \"Roles: caller does not have the super admin role role\");\n        _;\n    }\n\n    modifier onlyGPartner() {\n        require(hasRole(GENERAL_PARTNER_ROLE, msg.sender), \"Roles: caller does not have the general partner role\");\n        _;\n    }\n\n    modifier onlyLPartner() {\n        require(hasRole(LIMITED_PARTNER_ROLE, msg.sender), \"Roles: caller does not have the limited partner role\");\n        _;\n    }\n\n    modifier onlyTeam() {\n        require(hasRole(TEAM_ROLE, msg.sender), \"Roles: caller does not have the team role\");\n        _;\n    }\n\n    modifier onlySturtapTeam() {\n        require(hasRole(STURTAP_TEAM_ROLE, msg.sender), \"Roles: caller does not have the sturtap team role\");\n        _;\n    }\n\n    modifier onlyReferer() {\n        require(hasRole(REFERER_ROLE, msg.sender), \"Roles: caller does not have the referer role\");\n        _;\n    }\n\n    modifier onlyOracle() {\n        require(hasRole(ORACLE_ROLE, msg.sender), \"Roles: caller does not have the oracle role\");\n        _;\n    }\n\n    modifier onlyPoolRegistry() {\n        require(hasRole(POOL_REGISTRY, msg.sender), \"Roles: caller does not have the pool regystry role\");\n        _;\n    }\n\n    constructor () public {\n        _setRoleAdmin(GENERAL_PARTNER_ROLE, SUPER_ADMIN_ROLE);\n        _setRoleAdmin(LIMITED_PARTNER_ROLE, SUPER_ADMIN_ROLE);\n        _setRoleAdmin(TEAM_ROLE, SUPER_ADMIN_ROLE);\n        _setRoleAdmin(STURTAP_TEAM_ROLE, SUPER_ADMIN_ROLE);\n        _setRoleAdmin(REFERER_ROLE, SUPER_ADMIN_ROLE);\n        _setRoleAdmin(ORACLE_ROLE, SUPER_ADMIN_ROLE);\n        _setRoleAdmin(POOL_REGISTRY, SUPER_ADMIN_ROLE);\n    }\n\n    /**\n     * @dev Create and ading new role.\n     * @param role role account.\n     * @param account account for adding to the role.\n     */\n    function addAdmin(bytes32 role, address account) public virtual onlyOwner returns (bool) {\n        require(!_finalized, \"ManagerRole: already finalized\");\n\n        _setupRole(role, account);\n        return true;\n    }\n\n    /**\n     * @dev Block adding admins.\n     */\n    function finalize() public virtual onlyOwner {\n        require(!_finalized, \"ManagerRole: already finalized\");\n\n        _finalized = true;\n        emit Finalized();\n    }\n}",
  "sourcePath": "/home/mitgen/Private Projects/DeFi/investmentPool/contracts/access/Roles.sol",
  "compiler": {
    "name": "solc",
    "version": "0.6.0+commit.26b70077.Emscripten.clang"
  },
  "schemaVersion": "3.2.3",
  "updatedAt": "2020-12-07T18:18:15.944Z",
  "devdoc": {
    "methods": {
      "addAdmin(bytes32,address)": {
        "details": "Create and ading new role.",
        "params": {
          "account": "account for adding to the role.",
          "role": "role account."
        }
      },
      "finalize()": {
        "details": "Block adding admins."
      },
      "getMembersRole(bytes32)": {
        "details": "Returns the admin role that controls `role`. See {grantRole} and {revokeRole}.     * To change a role's admin, use {_setRoleAdmin}."
      },
      "getRoleAdmin(bytes32)": {
        "details": "Returns the admin role that controls `role`. See {grantRole} and {revokeRole}.     * To change a role's admin, use {_setRoleAdmin}."
      },
      "getRoleMember(bytes32,uint256)": {
        "details": "Returns one of the accounts that have `role`. `index` must be a value between 0 and {getRoleMemberCount}, non-inclusive.     * Role bearers are not sorted in any particular way, and their ordering may change at any point.     * WARNING: When using {getRoleMember} and {getRoleMemberCount}, make sure you perform all queries on the same block. See the following https://forum.openzeppelin.com/t/iterating-over-elements-on-enumerableset-in-openzeppelin-contracts/2296[forum post] for more information."
      },
      "getRoleMemberCount(bytes32)": {
        "details": "Returns the number of accounts that have `role`. Can be used together with {getRoleMember} to enumerate all bearers of a role."
      },
      "grantRole(bytes32,address)": {
        "details": "Grants `role` to `account`.     * If `account` had not been already granted `role`, emits a {RoleGranted} event.     * Requirements:     * - the caller must have ``role``'s admin role."
      },
      "hasRole(bytes32,address)": {
        "details": "Returns `true` if `account` has been granted `role`."
      },
      "owner()": {
        "details": "Returns the address of the current owner."
      },
      "renounceRole(bytes32,address)": {
        "details": "Revokes `role` from the calling account.     * Roles are often managed via {grantRole} and {revokeRole}: this function's purpose is to provide a mechanism for accounts to lose their privileges if they are compromised (such as when a trusted device is misplaced).     * If the calling account had been granted `role`, emits a {RoleRevoked} event.     * Requirements:     * - the caller must be `account`."
      },
      "revokeRole(bytes32,address)": {
        "details": "Revokes `role` from `account`.     * If `account` had been granted `role`, emits a {RoleRevoked} event.     * Requirements:     * - the caller must have ``role``'s admin role."
      }
    }
  },
  "userdoc": {
    "methods": {}
  }
}