{
  "contractName": "InvestmentPool",
  "abi": [
    {
      "inputs": [
        {
          "internalType": "address",
          "name": "token",
          "type": "address"
        },
        {
          "internalType": "uint256",
          "name": "locked",
          "type": "uint256"
        },
        {
          "internalType": "uint256",
          "name": "rate",
          "type": "uint256"
        },
        {
          "internalType": "uint256",
          "name": "interestFee",
          "type": "uint256"
        },
        {
          "internalType": "uint256",
          "name": "anualPrecent",
          "type": "uint256"
        },
        {
          "internalType": "address",
          "name": "superAdmin",
          "type": "address"
        },
        {
          "internalType": "address",
          "name": "gPartner",
          "type": "address"
        },
        {
          "internalType": "address",
          "name": "lPartner",
          "type": "address"
        },
        {
          "internalType": "address",
          "name": "team",
          "type": "address"
        },
        {
          "internalType": "address",
          "name": "sturtapTeam",
          "type": "address"
        },
        {
          "internalType": "address",
          "name": "referer",
          "type": "address"
        }
      ],
      "stateMutability": "nonpayable",
      "type": "constructor"
    },
    {
      "anonymous": false,
      "inputs": [],
      "name": "Finalized",
      "type": "event"
    },
    {
      "anonymous": false,
      "inputs": [
        {
          "indexed": true,
          "internalType": "address",
          "name": "previousOwner",
          "type": "address"
        },
        {
          "indexed": true,
          "internalType": "address",
          "name": "newOwner",
          "type": "address"
        }
      ],
      "name": "OwnershipTransferred",
      "type": "event"
    },
    {
      "anonymous": false,
      "inputs": [
        {
          "indexed": true,
          "internalType": "bytes32",
          "name": "role",
          "type": "bytes32"
        },
        {
          "indexed": true,
          "internalType": "address",
          "name": "account",
          "type": "address"
        },
        {
          "indexed": true,
          "internalType": "address",
          "name": "sender",
          "type": "address"
        }
      ],
      "name": "RoleGranted",
      "type": "event"
    },
    {
      "anonymous": false,
      "inputs": [
        {
          "indexed": true,
          "internalType": "bytes32",
          "name": "role",
          "type": "bytes32"
        },
        {
          "indexed": true,
          "internalType": "address",
          "name": "account",
          "type": "address"
        },
        {
          "indexed": true,
          "internalType": "address",
          "name": "sender",
          "type": "address"
        }
      ],
      "name": "RoleRevoked",
      "type": "event"
    },
    {
      "inputs": [],
      "name": "DEFAULT_ADMIN_ROLE",
      "outputs": [
        {
          "internalType": "bytes32",
          "name": "",
          "type": "bytes32"
        }
      ],
      "stateMutability": "view",
      "type": "function",
      "constant": true
    },
    {
      "inputs": [],
      "name": "GENERAL_PARTNER_ROLE",
      "outputs": [
        {
          "internalType": "bytes32",
          "name": "",
          "type": "bytes32"
        }
      ],
      "stateMutability": "view",
      "type": "function",
      "constant": true
    },
    {
      "inputs": [],
      "name": "LIMITED_PARTNER_ROLE",
      "outputs": [
        {
          "internalType": "bytes32",
          "name": "",
          "type": "bytes32"
        }
      ],
      "stateMutability": "view",
      "type": "function",
      "constant": true
    },
    {
      "inputs": [],
      "name": "ORACLE_ROLE",
      "outputs": [
        {
          "internalType": "bytes32",
          "name": "",
          "type": "bytes32"
        }
      ],
      "stateMutability": "view",
      "type": "function",
      "constant": true
    },
    {
      "inputs": [],
      "name": "REFERER_ROLE",
      "outputs": [
        {
          "internalType": "bytes32",
          "name": "",
          "type": "bytes32"
        }
      ],
      "stateMutability": "view",
      "type": "function",
      "constant": true
    },
    {
      "inputs": [],
      "name": "STURTAP_TEAM_ROLE",
      "outputs": [
        {
          "internalType": "bytes32",
          "name": "",
          "type": "bytes32"
        }
      ],
      "stateMutability": "view",
      "type": "function",
      "constant": true
    },
    {
      "inputs": [],
      "name": "SUPER_ADMIN_ROLE",
      "outputs": [
        {
          "internalType": "bytes32",
          "name": "",
          "type": "bytes32"
        }
      ],
      "stateMutability": "view",
      "type": "function",
      "constant": true
    },
    {
      "inputs": [],
      "name": "TEAM_ROLE",
      "outputs": [
        {
          "internalType": "bytes32",
          "name": "",
          "type": "bytes32"
        }
      ],
      "stateMutability": "view",
      "type": "function",
      "constant": true
    },
    {
      "inputs": [
        {
          "internalType": "bytes32",
          "name": "role",
          "type": "bytes32"
        },
        {
          "internalType": "address",
          "name": "account",
          "type": "address"
        }
      ],
      "name": "addAdmin",
      "outputs": [
        {
          "internalType": "bool",
          "name": "",
          "type": "bool"
        }
      ],
      "stateMutability": "nonpayable",
      "type": "function"
    },
    {
      "inputs": [],
      "name": "finalize",
      "outputs": [],
      "stateMutability": "nonpayable",
      "type": "function"
    },
    {
      "inputs": [
        {
          "internalType": "bytes32",
          "name": "role",
          "type": "bytes32"
        }
      ],
      "name": "getMembersRole",
      "outputs": [
        {
          "internalType": "address[]",
          "name": "Accounts",
          "type": "address[]"
        }
      ],
      "stateMutability": "view",
      "type": "function",
      "constant": true
    },
    {
      "inputs": [
        {
          "internalType": "bytes32",
          "name": "role",
          "type": "bytes32"
        }
      ],
      "name": "getRoleAdmin",
      "outputs": [
        {
          "internalType": "bytes32",
          "name": "",
          "type": "bytes32"
        }
      ],
      "stateMutability": "view",
      "type": "function",
      "constant": true
    },
    {
      "inputs": [
        {
          "internalType": "bytes32",
          "name": "role",
          "type": "bytes32"
        },
        {
          "internalType": "uint256",
          "name": "index",
          "type": "uint256"
        }
      ],
      "name": "getRoleMember",
      "outputs": [
        {
          "internalType": "address",
          "name": "",
          "type": "address"
        }
      ],
      "stateMutability": "view",
      "type": "function",
      "constant": true
    },
    {
      "inputs": [
        {
          "internalType": "bytes32",
          "name": "role",
          "type": "bytes32"
        }
      ],
      "name": "getRoleMemberCount",
      "outputs": [
        {
          "internalType": "uint256",
          "name": "",
          "type": "uint256"
        }
      ],
      "stateMutability": "view",
      "type": "function",
      "constant": true
    },
    {
      "inputs": [
        {
          "internalType": "bytes32",
          "name": "role",
          "type": "bytes32"
        },
        {
          "internalType": "address",
          "name": "account",
          "type": "address"
        }
      ],
      "name": "grantRole",
      "outputs": [],
      "stateMutability": "nonpayable",
      "type": "function"
    },
    {
      "inputs": [
        {
          "internalType": "bytes32",
          "name": "role",
          "type": "bytes32"
        },
        {
          "internalType": "address",
          "name": "account",
          "type": "address"
        }
      ],
      "name": "hasRole",
      "outputs": [
        {
          "internalType": "bool",
          "name": "",
          "type": "bool"
        }
      ],
      "stateMutability": "view",
      "type": "function",
      "constant": true
    },
    {
      "inputs": [],
      "name": "owner",
      "outputs": [
        {
          "internalType": "address",
          "name": "",
          "type": "address"
        }
      ],
      "stateMutability": "view",
      "type": "function",
      "constant": true
    },
    {
      "inputs": [],
      "name": "renounceOwnership",
      "outputs": [],
      "stateMutability": "nonpayable",
      "type": "function"
    },
    {
      "inputs": [
        {
          "internalType": "bytes32",
          "name": "role",
          "type": "bytes32"
        },
        {
          "internalType": "address",
          "name": "account",
          "type": "address"
        }
      ],
      "name": "renounceRole",
      "outputs": [],
      "stateMutability": "nonpayable",
      "type": "function"
    },
    {
      "inputs": [
        {
          "internalType": "bytes32",
          "name": "role",
          "type": "bytes32"
        },
        {
          "internalType": "address",
          "name": "account",
          "type": "address"
        }
      ],
      "name": "revokeRole",
      "outputs": [],
      "stateMutability": "nonpayable",
      "type": "function"
    },
    {
      "inputs": [
        {
          "internalType": "address",
          "name": "newOwner",
          "type": "address"
        }
      ],
      "name": "transferOwnership",
      "outputs": [],
      "stateMutability": "nonpayable",
      "type": "function"
    },
    {
      "inputs": [],
      "name": "token",
      "outputs": [
        {
          "internalType": "address",
          "name": "",
          "type": "address"
        }
      ],
      "stateMutability": "view",
      "type": "function",
      "constant": true
    },
    {
      "inputs": [],
      "name": "locked",
      "outputs": [
        {
          "internalType": "uint256",
          "name": "",
          "type": "uint256"
        }
      ],
      "stateMutability": "view",
      "type": "function",
      "constant": true
    },
    {
      "inputs": [],
      "name": "rate",
      "outputs": [
        {
          "internalType": "uint256",
          "name": "",
          "type": "uint256"
        }
      ],
      "stateMutability": "view",
      "type": "function",
      "constant": true
    },
    {
      "inputs": [],
      "name": "interestFee",
      "outputs": [
        {
          "internalType": "uint256",
          "name": "",
          "type": "uint256"
        }
      ],
      "stateMutability": "view",
      "type": "function",
      "constant": true
    },
    {
      "inputs": [],
      "name": "anualPrecent",
      "outputs": [
        {
          "internalType": "uint256",
          "name": "",
          "type": "uint256"
        }
      ],
      "stateMutability": "view",
      "type": "function",
      "constant": true
    },
    {
      "inputs": [
        {
          "internalType": "uint256",
          "name": "lock",
          "type": "uint256"
        }
      ],
      "name": "setLock",
      "outputs": [
        {
          "internalType": "bool",
          "name": "",
          "type": "bool"
        }
      ],
      "stateMutability": "nonpayable",
      "type": "function"
    },
    {
      "inputs": [
        {
          "internalType": "uint256",
          "name": "rate",
          "type": "uint256"
        }
      ],
      "name": "setRate",
      "outputs": [
        {
          "internalType": "bool",
          "name": "",
          "type": "bool"
        }
      ],
      "stateMutability": "nonpayable",
      "type": "function"
    },
    {
      "inputs": [
        {
          "internalType": "uint256",
          "name": "fee",
          "type": "uint256"
        }
      ],
      "name": "setInterestFee",
      "outputs": [
        {
          "internalType": "bool",
          "name": "",
          "type": "bool"
        }
      ],
      "stateMutability": "nonpayable",
      "type": "function"
    },
    {
      "inputs": [
        {
          "internalType": "uint256",
          "name": "precent",
          "type": "uint256"
        }
      ],
      "name": "setAnnualPrecent",
      "outputs": [
        {
          "internalType": "bool",
          "name": "",
          "type": "bool"
        }
      ],
      "stateMutability": "nonpayable",
      "type": "function"
    }
  ],
  "bytecode": "0x60806040526000600260146101000a81548160ff0219169083151502179055503480156200002c57600080fd5b5060405162002e1138038062002e1183398181016040526101608110156200005357600080fd5b8101908080519060200190929190805190602001909291908051906020019092919080519060200190929190805190602001909291908051906020019092919080519060200190929190805190602001909291908051906020019092919080519060200190929190805190602001909291905050506000620000da620006e160201b60201c565b905080600260006101000a81548173ffffffffffffffffffffffffffffffffffffffff021916908373ffffffffffffffffffffffffffffffffffffffff1602179055508073ffffffffffffffffffffffffffffffffffffffff16600073ffffffffffffffffffffffffffffffffffffffff167f8be0079c531659141344cd1fd0a4f28419497f9722a3daafe3b4186f6b6457e060405160405180910390a350620001f560405180807f47454e4552414c5f504152544e45525f524f4c450000000000000000000000008152506014019050604051809103902060405180807f53555045525f41444d494e5f524f4c450000000000000000000000000000000081525060100190506040518091039020620006e960201b60201c565b6200027160405180807f4c494d495445445f504152544e45525f524f4c450000000000000000000000008152506014019050604051809103902060405180807f53555045525f41444d494e5f524f4c450000000000000000000000000000000081525060100190506040518091039020620006e960201b60201c565b620002ed60405180807f5445414d5f524f4c4500000000000000000000000000000000000000000000008152506009019050604051809103902060405180807f53555045525f41444d494e5f524f4c450000000000000000000000000000000081525060100190506040518091039020620006e960201b60201c565b6200036960405180807f535455525441505f5445414d5f524f4c450000000000000000000000000000008152506011019050604051809103902060405180807f53555045525f41444d494e5f524f4c450000000000000000000000000000000081525060100190506040518091039020620006e960201b60201c565b620003e560405180807f524546455245525f524f4c450000000000000000000000000000000000000000815250600c019050604051809103902060405180807f53555045525f41444d494e5f524f4c450000000000000000000000000000000081525060100190506040518091039020620006e960201b60201c565b6200046160405180807f4f5241434c455f524f4c45000000000000000000000000000000000000000000815250600b019050604051809103902060405180807f53555045525f41444d494e5f524f4c450000000000000000000000000000000081525060100190506040518091039020620006e960201b60201c565b8a600360006101000a81548173ffffffffffffffffffffffffffffffffffffffff021916908373ffffffffffffffffffffffffffffffffffffffff160217905550896004819055508860058190555087600681905550866007819055506200050a60405180807f53555045525f41444d494e5f524f4c450000000000000000000000000000000081525060100190506040518091039020336200070760201b62000d911760201c565b506200055760405180807f53555045525f41444d494e5f524f4c450000000000000000000000000000000081525060100190506040518091039020876200070760201b62000d911760201c565b506200056d6200087c60201b62000b1c1760201c565b620005b460405180807f47454e4552414c5f504152544e45525f524f4c45000000000000000000000000815250601401905060405180910390208662000a1c60201b60201c565b620005fb60405180807f4c494d495445445f504152544e45525f524f4c45000000000000000000000000815250601401905060405180910390208562000a1c60201b60201c565b6200064260405180807f5445414d5f524f4c450000000000000000000000000000000000000000000000815250600901905060405180910390208462000a1c60201b60201c565b6200068960405180807f535455525441505f5445414d5f524f4c45000000000000000000000000000000815250601101905060405180910390208362000a1c60201b60201c565b620006d060405180807f524546455245525f524f4c450000000000000000000000000000000000000000815250600c01905060405180910390208262000a1c60201b60201c565b505050505050505050505062000d98565b600033905090565b80600080848152602001908152602001600020600301819055505050565b600062000719620006e160201b60201c565b73ffffffffffffffffffffffffffffffffffffffff16600260009054906101000a900473ffffffffffffffffffffffffffffffffffffffff1673ffffffffffffffffffffffffffffffffffffffff1614620007dc576040517f08c379a00000000000000000000000000000000000000000000000000000000081526004018080602001828103825260208152602001807f4f776e61626c653a2063616c6c6572206973206e6f7420746865206f776e657281525060200191505060405180910390fd5b600260149054906101000a900460ff161562000860576040517f08c379a000000000000000000000000000000000000000000000000000000000815260040180806020018281038252601e8152602001807f4d616e61676572526f6c653a20616c72656164792066696e616c697a6564000081525060200191505060405180910390fd5b62000872838362000abf60201b60201c565b6001905092915050565b6200088c620006e160201b60201c565b73ffffffffffffffffffffffffffffffffffffffff16600260009054906101000a900473ffffffffffffffffffffffffffffffffffffffff1673ffffffffffffffffffffffffffffffffffffffff16146200094f576040517f08c379a00000000000000000000000000000000000000000000000000000000081526004018080602001828103825260208152602001807f4f776e61626c653a2063616c6c6572206973206e6f7420746865206f776e657281525060200191505060405180910390fd5b600260149054906101000a900460ff1615620009d3576040517f08c379a000000000000000000000000000000000000000000000000000000000815260040180806020018281038252601e8152602001807f4d616e61676572526f6c653a20616c72656164792066696e616c697a6564000081525060200191505060405180910390fd5b6001600260146101000a81548160ff0219169083151502179055507f6823b073d48d6e3a7d385eeb601452d680e74bb46afe3255a7d778f3a9b1768160405160405180910390a1565b62000a526000808481526020019081526020016000206003015462000a46620006e160201b60201c565b62000ad560201b60201c565b62000aa9576040517f08c379a000000000000000000000000000000000000000000000000000000000815260040180806020018281038252602f81526020018062002de2602f913960400191505060405180910390fd5b62000abb828262000b0d60201b60201c565b5050565b62000ad1828262000b0d60201b60201c565b5050565b600062000b058260008086815260200190815260200160002060000162000c2460201b6200180d1790919060201c565b905092915050565b62000b3b8160008085815260200190815260200160002060000162000c5c60201b620019981790919060201c565b1562000c205760016000838152602001908152602001600020819080600181540180825580915050600190039060005260206000200160009091909190916101000a81548173ffffffffffffffffffffffffffffffffffffffff021916908373ffffffffffffffffffffffffffffffffffffffff16021790555062000bc5620006e160201b60201c565b73ffffffffffffffffffffffffffffffffffffffff168173ffffffffffffffffffffffffffffffffffffffff16837f2f8788117e7eff1d82e926ec794901d17c78024a50270940304540a733656f0d60405160405180910390a45b5050565b600062000c54836000018373ffffffffffffffffffffffffffffffffffffffff1660001b62000c9560201b60201c565b905092915050565b600062000c8d836000018373ffffffffffffffffffffffffffffffffffffffff1660001b8462000cb860201b60201c565b905092915050565b600080836002016000848152602001908152602001600020541415905092915050565b600062000ccc848462000c9560201b60201c565b62000d8c578360000183908060018154018082558091505060019003906000526020600020016000909190919091505583600101829080600181540180825580915050600190039060005260206000200160009091909190916101000a81548173ffffffffffffffffffffffffffffffffffffffff021916908373ffffffffffffffffffffffffffffffffffffffff1602179055508360000180549050846002016000858152602001908152602001600020819055506001905062000d91565b600090505b9392505050565b61203a8062000da86000396000f3fe608060405234801561001057600080fd5b50600436106101da5760003560e01c806391d1485411610104578063ca15c873116100a2578063d92c848f11610071578063d92c848f1461078e578063f2fde38b146107d4578063fc0c546a14610818578063fe070e9d14610862576101da565b8063ca15c8731461069a578063cf309012146106dc578063d3e15747146106fa578063d547741f14610740576101da565b8063a75df498116100de578063a75df49814610622578063a8a159c214610640578063ba12d0871461065e578063c1abd7571461067c576101da565b806391d148541461051b5780639cf6cc7014610581578063a217fddf14610604576101da565b806349d5e6041161017c5780636419bcdb1161014b5780636419bcdb146103e9578063715018a61461044f5780638da5cb5b146104595780639010d07c146104a3576101da565b806349d5e6041461035d5780634bb278f31461037b5780635ac8b005146103855780635b56d6f5146103a3576101da565b80632f2ff15d116101b85780632f2ff15d1461025d57806334fcf437146102ab57806336568abe146102f15780634460bdd61461033f576101da565b806307e2cea5146101df578063248a9ca3146101fd5780632c4e722e1461023f575b600080fd5b6101e7610880565b6040518082815260200191505060405180910390f35b6102296004803603602081101561021357600080fd5b81019080803590602001909291905050506108b9565b6040518082815260200191505060405180910390f35b6102476108d8565b6040518082815260200191505060405180910390f35b6102a96004803603604081101561027357600080fd5b8101908080359060200190929190803573ffffffffffffffffffffffffffffffffffffffff1690602001909291905050506108e2565b005b6102d7600480360360208110156102c157600080fd5b810190808035906020019092919050505061096b565b604051808215151515815260200191505060405180910390f35b61033d6004803603604081101561030757600080fd5b8101908080359060200190929190803573ffffffffffffffffffffffffffffffffffffffff169060200190929190505050610a11565b005b610347610aaa565b6040518082815260200191505060405180910390f35b610365610ae3565b6040518082815260200191505060405180910390f35b610383610b1c565b005b61038d610cb2565b6040518082815260200191505060405180910390f35b6103cf600480360360208110156103b957600080fd5b8101908080359060200190929190505050610ceb565b604051808215151515815260200191505060405180910390f35b610435600480360360408110156103ff57600080fd5b8101908080359060200190929190803573ffffffffffffffffffffffffffffffffffffffff169060200190929190505050610d91565b604051808215151515815260200191505060405180910390f35b610457610ef4565b005b61046161107f565b604051808273ffffffffffffffffffffffffffffffffffffffff1673ffffffffffffffffffffffffffffffffffffffff16815260200191505060405180910390f35b6104d9600480360360408110156104b957600080fd5b8101908080359060200190929190803590602001909291905050506110a9565b604051808273ffffffffffffffffffffffffffffffffffffffff1673ffffffffffffffffffffffffffffffffffffffff16815260200191505060405180910390f35b6105676004803603604081101561053157600080fd5b8101908080359060200190929190803573ffffffffffffffffffffffffffffffffffffffff1690602001909291905050506110da565b604051808215151515815260200191505060405180910390f35b6105ad6004803603602081101561059757600080fd5b810190808035906020019092919050505061110b565b6040518080602001828103825283818151815260200191508051906020019060200280838360005b838110156105f05780820151818401526020810190506105d5565b505050509050019250505060405180910390f35b61060c6111ac565b6040518082815260200191505060405180910390f35b61062a6111b3565b6040518082815260200191505060405180910390f35b6106486111bd565b6040518082815260200191505060405180910390f35b6106666111c7565b6040518082815260200191505060405180910390f35b610684611200565b6040518082815260200191505060405180910390f35b6106c6600480360360208110156106b057600080fd5b8101908080359060200190929190505050611239565b6040518082815260200191505060405180910390f35b6106e461125f565b6040518082815260200191505060405180910390f35b6107266004803603602081101561071057600080fd5b8101908080359060200190929190505050611269565b604051808215151515815260200191505060405180910390f35b61078c6004803603604081101561075657600080fd5b8101908080359060200190929190803573ffffffffffffffffffffffffffffffffffffffff16906020019092919050505061130f565b005b6107ba600480360360208110156107a457600080fd5b8101908080359060200190929190505050611398565b604051808215151515815260200191505060405180910390f35b610816600480360360208110156107ea57600080fd5b81019080803573ffffffffffffffffffffffffffffffffffffffff16906020019092919050505061143e565b005b610820611514565b604051808273ffffffffffffffffffffffffffffffffffffffff1673ffffffffffffffffffffffffffffffffffffffff16815260200191505060405180910390f35b61086a61153e565b6040518082815260200191505060405180910390f35b60405180807f4f5241434c455f524f4c45000000000000000000000000000000000000000000815250600b019050604051809103902081565b6000806000838152602001908152602001600020600301549050919050565b6000600554905090565b61090860008084815260200190815260200160002060030154610903611577565b6110da565b61095d576040517f08c379a000000000000000000000000000000000000000000000000000000000815260040180806020018281038252602f815260200180611f51602f913960400191505060405180910390fd5b610967828261157f565b5050565b60006109ac60405180807f47454e4552414c5f504152544e45525f524f4c4500000000000000000000000081525060140190506040518091039020336110da565b610a01576040517f08c379a0000000000000000000000000000000000000000000000000000000008152600401808060200182810382526034815260200180611f1d6034913960400191505060405180910390fd5b8160058190555060019050919050565b610a19611577565b73ffffffffffffffffffffffffffffffffffffffff168173ffffffffffffffffffffffffffffffffffffffff1614610a9c576040517f08c379a000000000000000000000000000000000000000000000000000000000815260040180806020018281038252602f815260200180611fd6602f913960400191505060405180910390fd5b610aa68282611686565b5050565b60405180807f53555045525f41444d494e5f524f4c45000000000000000000000000000000008152506010019050604051809103902081565b60405180807f5445414d5f524f4c4500000000000000000000000000000000000000000000008152506009019050604051809103902081565b610b24611577565b73ffffffffffffffffffffffffffffffffffffffff16600260009054906101000a900473ffffffffffffffffffffffffffffffffffffffff1673ffffffffffffffffffffffffffffffffffffffff1614610be6576040517f08c379a00000000000000000000000000000000000000000000000000000000081526004018080602001828103825260208152602001807f4f776e61626c653a2063616c6c6572206973206e6f7420746865206f776e657281525060200191505060405180910390fd5b600260149054906101000a900460ff1615610c69576040517f08c379a000000000000000000000000000000000000000000000000000000000815260040180806020018281038252601e8152602001807f4d616e61676572526f6c653a20616c72656164792066696e616c697a6564000081525060200191505060405180910390fd5b6001600260146101000a81548160ff0219169083151502179055507f6823b073d48d6e3a7d385eeb601452d680e74bb46afe3255a7d778f3a9b1768160405160405180910390a1565b60405180807f524546455245525f524f4c450000000000000000000000000000000000000000815250600c019050604051809103902081565b6000610d2c60405180807f47454e4552414c5f504152544e45525f524f4c4500000000000000000000000081525060140190506040518091039020336110da565b610d81576040517f08c379a0000000000000000000000000000000000000000000000000000000008152600401808060200182810382526034815260200180611f1d6034913960400191505060405180910390fd5b8160068190555060019050919050565b6000610d9b611577565b73ffffffffffffffffffffffffffffffffffffffff16600260009054906101000a900473ffffffffffffffffffffffffffffffffffffffff1673ffffffffffffffffffffffffffffffffffffffff1614610e5d576040517f08c379a00000000000000000000000000000000000000000000000000000000081526004018080602001828103825260208152602001807f4f776e61626c653a2063616c6c6572206973206e6f7420746865206f776e657281525060200191505060405180910390fd5b600260149054906101000a900460ff1615610ee0576040517f08c379a000000000000000000000000000000000000000000000000000000000815260040180806020018281038252601e8152602001807f4d616e61676572526f6c653a20616c72656164792066696e616c697a6564000081525060200191505060405180910390fd5b610eea83836117e5565b6001905092915050565b610efc611577565b73ffffffffffffffffffffffffffffffffffffffff16600260009054906101000a900473ffffffffffffffffffffffffffffffffffffffff1673ffffffffffffffffffffffffffffffffffffffff1614610fbe576040517f08c379a00000000000000000000000000000000000000000000000000000000081526004018080602001828103825260208152602001807f4f776e61626c653a2063616c6c6572206973206e6f7420746865206f776e657281525060200191505060405180910390fd5b600073ffffffffffffffffffffffffffffffffffffffff16600260009054906101000a900473ffffffffffffffffffffffffffffffffffffffff1673ffffffffffffffffffffffffffffffffffffffff167f8be0079c531659141344cd1fd0a4f28419497f9722a3daafe3b4186f6b6457e060405160405180910390a36000600260006101000a81548173ffffffffffffffffffffffffffffffffffffffff021916908373ffffffffffffffffffffffffffffffffffffffff160217905550565b6000600260009054906101000a900473ffffffffffffffffffffffffffffffffffffffff16905090565b60006110d2826000808681526020019081526020016000206000016117f390919063ffffffff16565b905092915050565b60006111038260008086815260200190815260200160002060000161180d90919063ffffffff16565b905092915050565b6060600160008381526020019081526020016000208054806020026020016040519081016040528092919081815260200182805480156111a057602002820191906000526020600020905b8160009054906101000a900473ffffffffffffffffffffffffffffffffffffffff1673ffffffffffffffffffffffffffffffffffffffff1681526020019060010190808311611156575b50505050509050919050565b6000801b81565b6000600654905090565b6000600754905090565b60405180807f535455525441505f5445414d5f524f4c450000000000000000000000000000008152506011019050604051809103902081565b60405180807f47454e4552414c5f504152544e45525f524f4c450000000000000000000000008152506014019050604051809103902081565b600061125860008084815260200190815260200160002060000161183d565b9050919050565b6000600454905090565b60006112aa60405180807f47454e4552414c5f504152544e45525f524f4c4500000000000000000000000081525060140190506040518091039020336110da565b6112ff576040517f08c379a0000000000000000000000000000000000000000000000000000000008152600401808060200182810382526034815260200180611f1d6034913960400191505060405180910390fd5b8160048190555060019050919050565b61133560008084815260200190815260200160002060030154611330611577565b6110da565b61138a576040517f08c379a0000000000000000000000000000000000000000000000000000000008152600401808060200182810382526030815260200180611fa66030913960400191505060405180910390fd5b6113948282611686565b5050565b60006113d960405180807f47454e4552414c5f504152544e45525f524f4c4500000000000000000000000081525060140190506040518091039020336110da565b61142e576040517f08c379a0000000000000000000000000000000000000000000000000000000008152600401808060200182810382526034815260200180611f1d6034913960400191505060405180910390fd5b8160078190555060019050919050565b611446611577565b73ffffffffffffffffffffffffffffffffffffffff16600260009054906101000a900473ffffffffffffffffffffffffffffffffffffffff1673ffffffffffffffffffffffffffffffffffffffff1614611508576040517f08c379a00000000000000000000000000000000000000000000000000000000081526004018080602001828103825260208152602001807f4f776e61626c653a2063616c6c6572206973206e6f7420746865206f776e657281525060200191505060405180910390fd5b61151181611852565b50565b6000600360009054906101000a900473ffffffffffffffffffffffffffffffffffffffff16905090565b60405180807f4c494d495445445f504152544e45525f524f4c450000000000000000000000008152506014019050604051809103902081565b600033905090565b6115a68160008085815260200190815260200160002060000161199890919063ffffffff16565b156116825760016000838152602001908152602001600020819080600181540180825580915050600190039060005260206000200160009091909190916101000a81548173ffffffffffffffffffffffffffffffffffffffff021916908373ffffffffffffffffffffffffffffffffffffffff160217905550611627611577565b73ffffffffffffffffffffffffffffffffffffffff168173ffffffffffffffffffffffffffffffffffffffff16837f2f8788117e7eff1d82e926ec794901d17c78024a50270940304540a733656f0d60405160405180910390a45b5050565b6116ad816000808581526020019081526020016000206000016119c990919063ffffffff16565b156117e15760005b600160008481526020019081526020016000208054905081101561177d578173ffffffffffffffffffffffffffffffffffffffff1660016000858152602001908152602001600020828154811061170857fe5b9060005260206000200160009054906101000a900473ffffffffffffffffffffffffffffffffffffffff1673ffffffffffffffffffffffffffffffffffffffff1614156117705761176b81600160008681526020019081526020016000206119fa565b61177d565b80806001019150506116b5565b50611786611577565b73ffffffffffffffffffffffffffffffffffffffff168173ffffffffffffffffffffffffffffffffffffffff16837ff6391f5c32d9c69d2a47ea670b442974b53935d1edc7fd64eb21e047a839171b60405160405180910390a45b5050565b6117ef828261157f565b5050565b60006118028360000183611aee565b60001c905092915050565b6000611835836000018373ffffffffffffffffffffffffffffffffffffffff1660001b611b71565b905092915050565b600061184b82600001611b94565b9050919050565b600073ffffffffffffffffffffffffffffffffffffffff168173ffffffffffffffffffffffffffffffffffffffff1614156118d8576040517f08c379a0000000000000000000000000000000000000000000000000000000008152600401808060200182810382526026815260200180611f806026913960400191505060405180910390fd5b8073ffffffffffffffffffffffffffffffffffffffff16600260009054906101000a900473ffffffffffffffffffffffffffffffffffffffff1673ffffffffffffffffffffffffffffffffffffffff167f8be0079c531659141344cd1fd0a4f28419497f9722a3daafe3b4186f6b6457e060405160405180910390a380600260006101000a81548173ffffffffffffffffffffffffffffffffffffffff021916908373ffffffffffffffffffffffffffffffffffffffff16021790555050565b60006119c1836000018373ffffffffffffffffffffffffffffffffffffffff1660001b84611ba5565b905092915050565b60006119f2836000018373ffffffffffffffffffffffffffffffffffffffff1660001b84611c7b565b905092915050565b60008290505b6001828054905003811015611aaa57816001820181548110611a1e57fe5b9060005260206000200160009054906101000a900473ffffffffffffffffffffffffffffffffffffffff16828281548110611a5557fe5b9060005260206000200160006101000a81548173ffffffffffffffffffffffffffffffffffffffff021916908373ffffffffffffffffffffffffffffffffffffffff1602179055508080600101915050611a00565b5080805480611ab557fe5b6001900381819060005260206000200160006101000a81549073ffffffffffffffffffffffffffffffffffffffff021916905590555050565b600081836000018054905011611b4f576040517f08c379a0000000000000000000000000000000000000000000000000000000008152600401808060200182810382526022815260200180611efb6022913960400191505060405180910390fd5b826000018281548110611b5e57fe5b9060005260206000200154905092915050565b600080836002016000848152602001908152602001600020541415905092915050565b600081600001805490509050919050565b6000611bb18484611b71565b611c6f578360000183908060018154018082558091505060019003906000526020600020016000909190919091505583600101829080600181540180825580915050600190039060005260206000200160009091909190916101000a81548173ffffffffffffffffffffffffffffffffffffffff021916908373ffffffffffffffffffffffffffffffffffffffff16021790555083600001805490508460020160008581526020019081526020016000208190555060019050611c74565b600090505b9392505050565b60008084600201600085815260200190815260200160002054905060008114611df95760006001820390506000600187600001805490500390506000876000018281548110611cc657fe5b9060005260206000200154905080886000018481548110611ce357fe5b9060005260206000200181905550600183018860020160008381526020019081526020016000208190555087600001805480611d1b57fe5b600190038181906000526020600020016000905590558760020160008881526020019081526020016000206000905560008090505b8860010180549050811015611deb578673ffffffffffffffffffffffffffffffffffffffff16896001018281548110611d8557fe5b9060005260206000200160009054906101000a900473ffffffffffffffffffffffffffffffffffffffff1673ffffffffffffffffffffffffffffffffffffffff161415611dde57611dd9818a600101611e06565b611deb565b8080600101915050611d50565b506001945050505050611dff565b60009150505b9392505050565b60008290505b6001828054905003811015611eb657816001820181548110611e2a57fe5b9060005260206000200160009054906101000a900473ffffffffffffffffffffffffffffffffffffffff16828281548110611e6157fe5b9060005260206000200160006101000a81548173ffffffffffffffffffffffffffffffffffffffff021916908373ffffffffffffffffffffffffffffffffffffffff1602179055508080600101915050611e0c565b5080805480611ec157fe5b6001900381819060005260206000200160006101000a81549073ffffffffffffffffffffffffffffffffffffffff02191690559055505056fe456e756d657261626c655365743a20696e646578206f7574206f6620626f756e6473526f6c65733a2063616c6c657220646f6573206e6f742068617665207468652067656e6572616c20706172746e657220726f6c65416363657373436f6e74726f6c3a2073656e646572206d75737420626520616e2061646d696e20746f206772616e744f776e61626c653a206e6577206f776e657220697320746865207a65726f2061646472657373416363657373436f6e74726f6c3a2073656e646572206d75737420626520616e2061646d696e20746f207265766f6b65416363657373436f6e74726f6c3a2063616e206f6e6c792072656e6f756e636520726f6c657320666f722073656c66a264697066735822122097b16070b55d6c2423c0d64f6552c957d1e780b14dfc7d84a7df8673640e4ca964736f6c63430006000033416363657373436f6e74726f6c3a2073656e646572206d75737420626520616e2061646d696e20746f206772616e74",
  "source": "pragma solidity ^0.6.0;\n\nimport \"./interface/IPool.sol\";\nimport \"./interface/IERC20.sol\";\n\nimport \"./access/Roles.sol\";\n\nimport \"./math/SafeMath.sol\";\nimport \"./utils/EnumerableSet.sol\";\n\ncontract InvestmentPool is Roles {\n    // Address token contract ERC20\n    address private _token;\n    // Accessing contract methods\n    // IERC20 _tokenContract = IERC20(_token);\n\n    uint256 private _locked;\n    uint256 private _rate;\n    uint256 private _interestFee;\n    uint256 private _anualPrecent;\n\n    constructor(\n        address token,\n        uint256 locked,\n        uint256 rate,\n        uint256 interestFee,\n        uint256 anualPrecent,\n        address superAdmin,\n        address gPartner,\n        address lPartner,\n        address team,\n        address sturtapTeam,\n        address referer\n    ) public {\n        _token = token;\n        _locked = locked;\n        _rate = rate;\n        _interestFee = interestFee;\n        _anualPrecent = anualPrecent;\n\n        Roles.addAdmin(SUPER_ADMIN_ROLE, msg.sender);\n        Roles.addAdmin(SUPER_ADMIN_ROLE, superAdmin);\n        Roles.finalize();\n        grantRole(GENERAL_PARTNER_ROLE, gPartner);\n        grantRole(LIMITED_PARTNER_ROLE, lPartner);\n        grantRole(TEAM_ROLE, team);\n        grantRole(STURTAP_TEAM_ROLE, sturtapTeam);\n        grantRole(REFERER_ROLE, referer);\n    }\n\n    function token() public view returns (address) {\n        return _token;\n    }\n\n    function locked() public view returns (uint256) {\n        return _locked;\n    }\n\n    function rate() public view returns (uint256) {\n        return _rate;\n    }\n\n    function interestFee() public view returns (uint256) {\n        return _interestFee;\n    }\n\n    function anualPrecent() public view returns (uint256) {\n        return _anualPrecent;\n    }\n\n    function setLock(uint256 lock) public virtual onlyGPartner returns (bool) {\n        _locked = lock;\n        return true;\n    }\n\n    function setRate(uint256 rate) public virtual onlyGPartner returns (bool) {\n        _rate = rate;\n        return true;\n    }\n\n    function setInterestFee(uint256 fee) public virtual onlyGPartner returns (bool){\n        _interestFee = fee;\n        return true;\n    }\n\n    function setAnnualPrecent(uint256 precent) public virtual onlyGPartner returns (bool){\n        _anualPrecent = precent;\n        return true;\n    }\n}\n",
  "sourcePath": "/home/mitgen/Private Projects/DeFi/investmentPool/contracts/InvestmentPool.sol",
  "compiler": {
    "name": "solc",
    "version": "0.6.0+commit.26b70077.Emscripten.clang"
  },
  "schemaVersion": "3.2.3",
  "updatedAt": "2020-12-06T16:56:54.901Z",
  "networkType": "ethereum",
  "devdoc": {
    "methods": {
      "addAdmin(bytes32,address)": {
        "details": "Create and ading new role.",
        "params": {
          "account": "account for adding to the role.",
          "role": "role account."
        }
      },
      "finalize()": {
        "details": "Block adding admins."
      },
      "getMembersRole(bytes32)": {
        "details": "Returns the admin role that controls `role`. See {grantRole} and {revokeRole}.     * To change a role's admin, use {_setRoleAdmin}."
      },
      "getRoleAdmin(bytes32)": {
        "details": "Returns the admin role that controls `role`. See {grantRole} and {revokeRole}.     * To change a role's admin, use {_setRoleAdmin}."
      },
      "getRoleMember(bytes32,uint256)": {
        "details": "Returns one of the accounts that have `role`. `index` must be a value between 0 and {getRoleMemberCount}, non-inclusive.     * Role bearers are not sorted in any particular way, and their ordering may change at any point.     * WARNING: When using {getRoleMember} and {getRoleMemberCount}, make sure you perform all queries on the same block. See the following https://forum.openzeppelin.com/t/iterating-over-elements-on-enumerableset-in-openzeppelin-contracts/2296[forum post] for more information."
      },
      "getRoleMemberCount(bytes32)": {
        "details": "Returns the number of accounts that have `role`. Can be used together with {getRoleMember} to enumerate all bearers of a role."
      },
      "grantRole(bytes32,address)": {
        "details": "Grants `role` to `account`.     * If `account` had not been already granted `role`, emits a {RoleGranted} event.     * Requirements:     * - the caller must have ``role``'s admin role."
      },
      "hasRole(bytes32,address)": {
        "details": "Returns `true` if `account` has been granted `role`."
      },
      "owner()": {
        "details": "Returns the address of the current owner."
      },
      "renounceOwnership()": {
        "details": "Leaves the contract without owner. It will not be possible to call `onlyOwner` functions anymore. Can only be called by the current owner.     * NOTE: Renouncing ownership will leave the contract without an owner, thereby removing any functionality that is only available to the owner."
      },
      "renounceRole(bytes32,address)": {
        "details": "Revokes `role` from the calling account.     * Roles are often managed via {grantRole} and {revokeRole}: this function's purpose is to provide a mechanism for accounts to lose their privileges if they are compromised (such as when a trusted device is misplaced).     * If the calling account had been granted `role`, emits a {RoleRevoked} event.     * Requirements:     * - the caller must be `account`."
      },
      "revokeRole(bytes32,address)": {
        "details": "Revokes `role` from `account`.     * If `account` had been granted `role`, emits a {RoleRevoked} event.     * Requirements:     * - the caller must have ``role``'s admin role."
      },
      "transferOwnership(address)": {
        "details": "Transfers ownership of the contract to a new account (`newOwner`). Can only be called by the current owner."
      }
    }
  },
  "userdoc": {
    "methods": {}
  }
}