{
  "contractName": "IRoleModel",
  "abi": [
    {
      "inputs": [],
      "name": "GENERAL_PARTNER_ROLE",
      "outputs": [
        {
          "internalType": "bytes32",
          "name": "",
          "type": "bytes32"
        }
      ],
      "stateMutability": "view",
      "type": "function"
    },
    {
      "inputs": [],
      "name": "LIMITED_PARTNER_ROLE",
      "outputs": [
        {
          "internalType": "bytes32",
          "name": "",
          "type": "bytes32"
        }
      ],
      "stateMutability": "view",
      "type": "function"
    },
    {
      "inputs": [],
      "name": "ORACLE_ROLE",
      "outputs": [
        {
          "internalType": "bytes32",
          "name": "",
          "type": "bytes32"
        }
      ],
      "stateMutability": "view",
      "type": "function"
    },
    {
      "inputs": [],
      "name": "REFERER_ROLE",
      "outputs": [
        {
          "internalType": "bytes32",
          "name": "",
          "type": "bytes32"
        }
      ],
      "stateMutability": "view",
      "type": "function"
    },
    {
      "inputs": [],
      "name": "STURTAP_TEAM_ROLE",
      "outputs": [
        {
          "internalType": "bytes32",
          "name": "",
          "type": "bytes32"
        }
      ],
      "stateMutability": "view",
      "type": "function"
    },
    {
      "inputs": [],
      "name": "SUPER_ADMIN_ROLE",
      "outputs": [
        {
          "internalType": "bytes32",
          "name": "",
          "type": "bytes32"
        }
      ],
      "stateMutability": "view",
      "type": "function"
    },
    {
      "inputs": [],
      "name": "TEAM_ROLE",
      "outputs": [
        {
          "internalType": "bytes32",
          "name": "",
          "type": "bytes32"
        }
      ],
      "stateMutability": "view",
      "type": "function"
    }
  ],
  "bytecode": "0x608060405234801561001057600080fd5b50610319806100206000396000f3fe608060405234801561001057600080fd5b506004361061007d5760003560e01c80635ac8b0051161005b5780635ac8b005146100dc578063ba12d087146100fa578063c1abd75714610118578063fe070e9d146101365761007d565b806307e2cea5146100825780634460bdd6146100a057806349d5e604146100be575b600080fd5b61008a610154565b6040518082815260200191505060405180910390f35b6100a861018d565b6040518082815260200191505060405180910390f35b6100c66101c6565b6040518082815260200191505060405180910390f35b6100e46101ff565b6040518082815260200191505060405180910390f35b610102610238565b6040518082815260200191505060405180910390f35b610120610271565b6040518082815260200191505060405180910390f35b61013e6102aa565b6040518082815260200191505060405180910390f35b60405180807f4f5241434c455f524f4c45000000000000000000000000000000000000000000815250600b019050604051809103902081565b60405180807f53555045525f41444d494e5f524f4c45000000000000000000000000000000008152506010019050604051809103902081565b60405180807f5445414d5f524f4c4500000000000000000000000000000000000000000000008152506009019050604051809103902081565b60405180807f524546455245525f524f4c450000000000000000000000000000000000000000815250600c019050604051809103902081565b60405180807f535455525441505f5445414d5f524f4c450000000000000000000000000000008152506011019050604051809103902081565b60405180807f47454e4552414c5f504152544e45525f524f4c450000000000000000000000008152506014019050604051809103902081565b60405180807f4c494d495445445f504152544e45525f524f4c45000000000000000000000000815250601401905060405180910390208156fea26469706673582212203733e30a6f0e56c35a7f8158f43da250b5f8cb3a1f8e359bc91a50eb642fa88b64736f6c63430006000033",
  "source": "pragma solidity ^0.6.0;\n\ncontract IRoleModel {\n    /**\n     * SUPER_ADMIN_ROLE - The Role controls adding a new wallet addresses to according roles arrays\n     */\n    bytes32 public constant SUPER_ADMIN_ROLE = keccak256(\"SUPER_ADMIN_ROLE\");\n\n    /**\n     * GENERAL_PARTNER_ROLE - The Role controls the approval process to transfer money inside\n     *               investment pools and control Limited Partners adding, investment\n     *               pools adding\n     */\n    bytes32 public constant GENERAL_PARTNER_ROLE = keccak256(\"GENERAL_PARTNER_ROLE\");\n\n    /**\n     * LIMITED_PARTNER_ROLE - The Role allows the wallet of LP to invest money in the\n     *               investment pool and withdraw money from there (access to limited pools)\n     */\n    bytes32 public constant LIMITED_PARTNER_ROLE = keccak256(\"LIMITED_PARTNER_ROLE\");\n\n    /**\n     * TEAM_ROLE - Role that exposes access to wallets (the team member), were\n     *           distributed all fees, fines, and success premiums from investment pools\n     */\n    bytes32 public constant TEAM_ROLE = keccak256(\"TEAM_ROLE\");\n\n    /**\n     * STURTAP_TEAM_ROLE - Role that exposes access to wallets which can withdraw\n     *              investor’s money after convert to tokens/NFT assets (access tolimited pools)\n     */\n    bytes32 public constant STURTAP_TEAM_ROLE = keccak256(\"STURTAP_TEAM_ROLE\");\n\n    /**\n     * REFERER_ROLE - Registry of wallets, which connects LP with their Referrer to sent\n     *               there a part of the fees.\n     */\n    bytes32 public constant REFERER_ROLE = keccak256(\"REFERER_ROLE\");\n\n    /**\n     * ORACLE_ROLE - Registry of wallets, which connects LP with their Referrer to sent\n     *               there a part of the fees.\n     */\n    bytes32 public constant ORACLE_ROLE = keccak256(\"ORACLE_ROLE\");\n}\n",
  "sourcePath": "/home/mitgen/Private Projects/DeFi/investmentPool/contracts/interface/IRoleModel.sol",
  "compiler": {
    "name": "solc",
    "version": "0.6.0+commit.26b70077.Emscripten.clang"
  },
  "schemaVersion": "3.2.3",
  "updatedAt": "2020-12-06T16:52:16.806Z",
  "devdoc": {
    "methods": {}
  },
  "userdoc": {
    "methods": {}
  }
}